:020000040800F2
:1000000068C30020290300084F230008FF220008CE
:100010004D2300089716000829270008000000005B
:100020000000000000000000000000007102000855
:100030009916000800000000C5020008F52300081A
:100040004303000843030008430300084303000878
:100050004303000843030008430300084303000868
:100060004303000843030008430300084303000858
:100070004303000843030008430300084303000848
:100080004303000843030008430300084303000838
:100090004303000843030008430300084303000828
:1000A0004303000843030008430300084303000818
:1000B0004303000843030008430300084303000808
:1000C00043030008430300084303000843030008F8
:1000D00043030008E5260008430300084303000823
:1000E00043030008430300084303000843030008D8
:1000F00043030008430300084303000843030008C8
:1001000043030008430300084303000843030008B7
:1001100043030008430300084303000843030008A7
:100120004303000843030008430300084303000897
:100130004303000843030008430300084303000887
:100140004303000843030008430300084303000877
:100150004303000843030008430300084303000867
:100160004303000843030008430300084303000857
:100170004303000843030008430300080000000095
:100180004303000843030008430300084303000837
:100190004303000843030008430300084303000827
:1001A00043030008430300084303000800F002F87B
:1001B00000F04FF80AA090E8000C82448344AAF1B2
:1001C0000107DA4501D100F044F8AFF2090EBAE8B0
:1001D0000F0013F0010F18BFFB1A43F0010318477B
:1001E000EC4500000C460000103A24BF78C878C1E6
:1001F000FAD8520724BF30C830C144BF04680C602D
:10020000704700000023002400250026103A28BF74
:1002100078C1FBD8520728BF30C148BF0B60704778
:10022000662904F07F82642900F0D680732900F0EB
:100230007784002070471FB504F06FFA00F0DAFCF5
:1002400004000020002104F0DBF9E0601FBD10B5C0
:1002500010BD00F0F7FD1146FFF7EDFF02F0F8FAD0
:1002600000F015FE03B4FFF7F2FF03BC02F07CFAC6
:100270002A4B19680868B0E8F04F80F30988BFF38B
:100280006F8F4FF0000080F311887047000000006E
:1002900006480068006880F3088862B661B6BFF35C
:1002A0004F8FBFF36F8F00DF00BF00BF08ED00E08E
:1002B000DFF80C00016841F470010160704700BF75
:1002C00088ED00E0EFF30980BFF36F8F134B1A68DE
:1002D0001EF0100F08BF20ED108A20E9F04F1060CB
:1002E00008B44FF0500080F31188BFF34F8FBFF375
:1002F0006F8F03F055FB4FF0000080F3118808BCAE
:1003000019680868B0E8F04F1EF0100F08BFB0EC95
:10031000108A80F30988BFF36F8F70473C0000207C
:10032000EFF30580704700000948804709480047FF
:10033000FEE7FEE7FEE7FEE7FEE7FEE7FEE7FEE795
:10034000FEE7FEE704480549054A064B70470000F2
:100350000D240008AD01000868BD002068C300201E
:1003600068BF002068BF0020704700000FB4044938
:1003700010B503AA029800F0D7FB10BC5DF814FB7F
:100380003800002070B50C460546012A05D02878B3
:10039000800600D5EA69002302E0012305E05B1C2A
:1003A000934202D2E05C0028F9D1A869E618C01A8D
:1003B000A861286A184428622846AFF3008004E048
:1003C000D5E9012114F8010B9047B442F8D328462F
:1003D000AFF3008070BD00002DE9F0410646002417
:1003E00010687529314616A510D0AFF3008000289B
:1003F00002DA404213A507E031688A0701D512A549
:1004000002E0490704D511A5012401E0AFF3008003
:1004100000210A2206F1240709E0B0FBF2FCB0FB40
:10042000F2F302FB1C00303078541846491C0028B7
:10043000F3D123462A463046BDE8F04100F0E0B84B
:10044000000000002D0000002B0000002000000034
:100450002DE9F0474FF0000A89460446C0F820A075
:100460002046E1688847002876D0252806D0D4E9C0
:1004700001219047206A401C2062F1E7E168204694
:1004800000258847C4F81CA006460027C4F818A019
:100490002A2E09D0304602F060F938B304EB870801
:1004A000303EC8F8186019E059F8041B204604EBE8
:1004B00087029161E1688847012F064618D1E069FB
:1004C000002820DA25F020051DE0D8F8180000EB00
:1004D000800006EB40003038C8F818002046E1687C
:1004E0008847064602F039F90028EED1012F0AD0DC
:1004F0002E2E08D12046E16888477F1C0646022F31
:1005000045F02005C4DBA069002803DA404245F02D
:100510000105A061E80701D025F01005B6B1A6F1EC
:100520004100192802D8203645F400654A46314674
:10053000204625604D46FFF773FE58B1012806D0CE
:10054000ED1D25F0070000F1080989E704E005F139
:10055000040985E730468AE7206ABDE8F087032A68
:1005600040F2308010F0030C00F0158011F8013BD0
:10057000BCF1020F624498BF11F801CB00F8013BB7
:1005800038BF11F8013BA2F1040298BF00F801CB7B
:1005900038BF00F8013B11F0030300F0D782083A9E
:1005A000C0F0088051F8043B083A51F804CBA0E8A9
:1005B0000810F5E7121D5CBF51F8043B40F8043BFE
:1005C000AFF30080D20724BF11F8013B11F801CB33
:1005D00048BF11F8012B24BF00F8013B00F801CB04
:1005E00048BF00F8012B704702F0FF0343EA0322E3
:1005F00042EA024200F0DEBA704770477047704727
:100600002DE9F0470D4699469246044600F124082C
:100610000168880604D5E06921F01001216000E03E
:100620000120A84201DD471B00E00027A1697A19DB
:1006300002EB0900081AA0612078C00602D4204607
:10064000AFF30080002608E0D4E901211AF8060083
:100650009047206A401C761C20624E45F4DB2078CF
:10066000C0060AD52046AFF3008006E0D4E9012198
:1006700030209047206A401C2062381EA7F10107F5
:10068000F4DC07E0D4E9012118F805009047206A5E
:10069000401C2062281EA5F10105F3DC2046AFF3C3
:1006A00000802078000602D50220BDE8F0870120F6
:1006B000FBE770472DE9FF4F0C461E464FF0FF3712
:1006C0008BB0D2E90001DDF860800A908A46C1F360
:1006D0000A5505B93D46002108464FF00000BAF121
:1006E000000F00F4400005DA00EB80004FF44001F9
:1006F00001EA50004FEA9059B9F1010F00DDB94607
:100700000A9850EA4A000ED044F61050A5F2FF3580
:1007100045432F14B8F1000F1ED07542291E1EDD6F
:10072000C9F100021CE0B8F1010F4FF0000001D048
:10073000302103E0F24305E02154401CB042FBDBD2
:1007400030460022002121540B99C1F80880C1E9EC
:1007500000200FB0BDE8F08FBD1B6D1CDEE74A46E0
:1007600000DA694206A800F0CFFA06AB93E807006A
:1007700003AB83E8070050460A9900F0D1FB8DE8EF
:100780000700A0F500501F3800900398002D09DDE8
:1007900042F21F014A46084403A90390684600F04C
:1007A00030FE08E0A0F500504A461F3803A9039028
:1007B000684600F03AFE8DE807000004000C03D004
:1007C0004FF0FF30410800E01046B8F1000F03D0B1
:1007D0000022009215461EE0751E05D400F00EFAA8
:1007E000303262556D1EF9D5B3460122084302D05E
:1007F00000227F1C04E02078302801D100227F1ED7
:10080000002A099786D01DE0112D07DA00F0F6F9CD
:10081000303262556D1C50EA0102F5D1084302D016
:100820000098C8B10EE00021681E05E0235C625C00
:1008300063542254401E491C8142F7DBAB46A81B7F
:10084000401E0990002004F80B000B98099AC0F88C
:100850000880C0E9002B7CE711264FF0000859E71B
:100860002DE9F04F88460446D21D22F0070191B0D1
:10087000D1E90001CDE90A0101F057FF02460B98CA
:10088000C00F01D02D2007E02068810701D52B2063
:1008900002E0202101EAC000032A099001D0072AC2
:1008A00005DB03464146204600F0EEF90BE12078D7
:1008B000800601D5E06900E00620B8F1650F8146A9
:1008C00006D0B8F1660F18D0B8F1670F70D131E0DB
:1008D0000020B9F1110F009001DB112301E009F1B3
:1008E00001030AAA01A90CA8FFF7E4FEDDE90C70D8
:1008F000002609F10105834647E001204B460090A0
:100900004FF000470AAA01A90CA8FFF7D3FEDDE9C2
:100910000DB00C995D46002610B909F101000D18C3
:10092000B9EB050003D4C0F1FF3609F10105A5EBD1
:1009300009002BE0B9F1010F01DA4FF001090020A5
:10094000B9F1110F0090484601DD112300E0034684
:100950000AAA01A90CA8FFF7ADFEDDE90C704D460F
:1009600000268346207800070AD4AB4500DA5D46AE
:1009700001A8012D04DD411911F8011C302907D00F
:100980004F4502DA17F1040F04DA012082460FE026
:100990006D1EEEE7002F02DCED1B3E4403E0781CE9
:1009A000A84200DD7D1CB81B00F1010A4FF0004792
:1009B0002078000703D4AA4501DB4FF0FF3A00215D
:1009C000B7F1004F0DF143088DF8431024D00220F9
:1009D0002B23002F01DA7F422D230A21021EA0F1D2
:1009E000010000DC5FB197FBF1FC97FBF1F201FB2A
:1009F0001C7C17460CF1300C08F801CDEEE7A8F18D
:100A0000010003702188090501D5452100E0652119
:100A1000A0F1010800F8011C09980FA9A1EB080733
:100A2000FF1D00B10120411901EBEA70A1693844B2
:100A3000081A401EA0612078C00602D42046AFF3F9
:100A40000080099828B1D4E901219047206A401C10
:100A500020622078C00622D52046AFF300801EE039
:100A6000002E04DBB34502DD01A8805D00E03020EC
:100A7000D4E901219047206A401C2062761CAAF12B
:100A800001005FEA000A0AD100F0B4F8C06801680A
:100A9000405CD4E901219047206A401C2062281E56
:100AA000A5F10105DCDC07E0D4E9012118F8010B10
:100AB0009047206A401C2062381EA7F10107F3DC32
:100AC0002046AFF30080032011B043E601694A1CC1
:100AD00002610878704700B58FB0CDE9013100217F
:100AE000059105497944CDE9031011466846FFF7A1
:100AF000AFFC0FB000BD0000E5FFFFFF10B543697C
:100B000013B1AFF3008001E0FFF73CFC012010BD02
:100B1000127800F124010A7000224A700122EDE7E8
:100B200011684FF0FF32E9E7074B70B50D467B4483
:100B3000FFF7D1FF0446284600F054F910B14FF0FA
:100B4000FF3070BD204670BDCB1C000010B5203AB0
:100B5000C0F00B80B1E81850203AA0E81850B1E876
:100B60001850A0E81850BFF4F5AF5FEA027C24BF2C
:100B7000B1E81850A0E8185044BF18C918C0BDE823
:100B800010405FEA827C24BF51F8043B40F8043BEC
:100B900008BF7047D20728BF31F8023B48BF11F8A1
:100BA000012B28BF20F8023B48BF00F8012B7047FB
:100BB0004FF000020429C0F0128010F0030C00F086
:100BC0001781CCF1040CBCF1020F18BF00F8012B07
:100BD000A8BF20F8022BA1EB0C0100F009B95FEAD5
:100BE000C17C24BF00F8012B00F8012B48BF00F89E
:100BF000012B70470048704724BD002030B5B0F18C
:100C00000A024FEA900E71F100034EEA817EB0EBCA
:100C10000E0061EB91014FEA101E4EEA017E10EBCF
:100C20000E0041EB11114FEA102E4EEA016E10EB4F
:100C30000E0041EB11214FEA104E4EEA014E10EB2F
:100C40000E0041EB1141401841F100014FEAD00084
:100C500040EA41704FEAD10110EB80054FEA810470
:100C600044EA907444EB01046D1944EB0404521BF4
:100C7000A3414FF0000348BF0A3200D530BD401CED
:100C800041F1000130BD00002DE9F0411F4604464E
:100C900003260168072A01F4006004DB08B116A5E9
:100CA00005E016A503E008B115A500E015A521F0A3
:100CB00010002060A069C01EA0610FB1401EA0619D
:100CC0002046AFF300804FB1D4E901213846904768
:100CD000206A401C2062C01C206206E0206AFAE7FD
:100CE000D4E9012115F8010B9047761EF8D2204671
:100CF000AFF30080BDE8F0814E414E006E616E00A2
:100D0000494E4600696E66002DE9F0478146164659
:100D10008AB0334878440DC88DE80D0030487844D7
:100D2000801C03AC0DC884E80D0041F69B300844DC
:100D3000372190FBF1F290FBF1F5A5F1800501FB65
:100D400012041B3C02D56442012000E00020DFF8C1
:100D500090A080460027FA44AAF1BE0A0DE0E00701
:100D600009D03246684607EB47010AEB810100F0E3
:100D70005CFB8DE8070064107F1C002CEFD1184F3E
:100D80007F44AC3F18E0E80714D007EB04100DF1E6
:100D9000180A90E80E008AE80E00C068F04201D1FF
:100DA00098190890324606A903A800F03EFB03AB51
:100DB00083E807006D10641C002DE4D132466946BB
:100DC000B8F1000F03A802D000F01BFB01E000F017
:100DD0002CFBC9E90001C9F808200AB0BDE8F0877A
:100DE0009C3A0000007B00F0800070474FF000024A
:100DF00000B5134694469646203922BFA0E80C5011
:100E0000A0E80C50B1F12001BFF4F7AF090728BFEB
:100E1000A0E80C5048BF0CC05DF804EB890028BF67
:100E200040F8042B08BF704748BF20F8022B11F090
:100E3000804F18BF00F8012B704700000048704732
:100E400004BD00207546FFF7F9FFAE460500694670
:100E5000534620F00700854618B020B5FFF772FA18
:100E6000BDE820404FF000064FF000074FF00008AB
:100E70004FF0000B21F00701AC46ACE8C009ACE82C
:100E8000C009ACE8C009ACE8C0098D46704710B590
:100E90000446AFF300802046BDE81040FFF7E2B9FA
:100EA0004FF0013C50F8042B51F8043B9A4221D1F9
:100EB000A2EB0C03934313EACC1317D150F8042B85
:100EC00051F8043B9A4215D1A2EB0C03934313EA69
:100ED000CC130BD150F8042B51F8043B9A4209D1A2
:100EE000A2EB0C03934313EACC13DBD04FF00000CA
:100EF000704700BFD01A01BAB1FA81F101F01801B0
:100F000022FA01F0CB40C1F12001DBB2C0B2C01A1D
:100F10002CFA01F3D11A914311EAC311E6D17047BB
:100F20005FEA400C08BF91F0000F4FEA8C234FEAB4
:100F3000C12243EA51514FEA1C5018BF00F5F0405E
:100F40004FEA300018BF41F000415FEA6C5C00F0EE
:100F50002980BCF1FF3F08BF40F080407047130C70
:100F600006BF12044FF0100C4FF0000C130E04BF1C
:100F700012020CF1080C130F04BF12010CF1040C47
:100F8000930F04BF92000CF1020CD30F04BF520068
:100F90000CF1010C11464FF00002A0F11F00A0EB74
:100FA0000C00704711F0004F08BF704731F000414E
:100FB0003FF4D5AF0B0C06BF09044FF0100C4FF0F7
:100FC000000C0B0E04BF09020CF1080C0B0F04BF40
:100FD00009010CF1040C8B0F04BF89000CF1020C09
:100FE000CB0F04BF49000CF1010CCCF12003A0EBA6
:100FF0000C0022FA03F302FA0CF241EA030100F1B9
:101000000100704720F07F4C80EA030023F07F4707
:10101000ACEB070303F57C5300F0004003F1FF0342
:101020002DE980494FEA154B09B44FEA144325EAEC
:101030000B4E24EA03480FF2042606EB1327490857
:101040003E785FEA320203FB0667C7F5000707FB3D
:1010500006F64FEA54374FEAD64606F1020607FB7A
:10106000066CCCF1005C4FEA1C472CEA074C07FBEE
:1010700006F40CFB06F504EB15464FEA961634BF52
:1010800000204FF000404FEAD13706FB07FC4FEA43
:101090001C4C0CFB0BF7D21B03FB0CF761EB07019D
:1010A0000CFB0EF7B0EB074072EB17420CFB08F796
:1010B00034BFA2EB0742B2EB074261EB17414FEAA4
:1010C0000C444FEA910706FB07FC4FEA1C4C0CFB53
:1010D0000BF7B0EBC74072EB573203FB0CF734BF92
:1010E000A2EBC742B2EBC74261EB57310CFB0EF7E4
:1010F000B0EBC70072EB57720CFB08F734BFA2EBE2
:10110000C702B2EBC70261EB5771039F4FEA8161DF
:1011100041EA921104EBCC044FEAD1374FEA8262E4
:1011200006FB07FC42EA90124FEA80604FEA1C4C33
:101130000CFB0BF7D21B03FB0CF761EB07010CFB5D
:101140000EF7B0EB074072EB17420CFB08F734BF09
:10115000A2EB0742B2EB074261EB17414FEA8C5515
:101160004FEA910704EB9C2406FB07FC4FEA1C4C5A
:101170000CFB0BF7B0EBC74072EB573203FB0CF7DD
:1011800034BFA2EBC742B2EBC74261EB57310CFB55
:101190000EF7B0EBC70072EB57720CFB08F734BFC9
:1011A000A2EBC702B2EBC70261EB577115EB4C25FE
:1011B0004FEA816141EA92114FEA82624FEAD137E8
:1011C00042EA901206FB07FC44F100044FEA8060FB
:1011D0004FEA1C4C0CFB0BF7D21B03FB0CF761EB2B
:1011E00007010CFB0EF7B0EB074072EB17420CFB4C
:1011F00008F734BFA2EB0742B2EB074261EB17419D
:1012000015EB1C154FEA813141EA92414FEA8232D7
:1012100042EA90424FEA80304FEA0C7644F10004F3
:1012200048EA03434EEA0B484FF0000EB2EB080CBD
:1012300071EB030724BF624639464EEB0E0E4FF0AA
:10124000000B0018524149414BEB0B0BB2EB080C61
:1012500071EB03077BF1000B24BF624639464EEB6E
:101260000E0E4FF0000B0018524149414BEB0B0B97
:10127000B2EB080C71EB03077BF1000B24BF624655
:1012800039464EEB0E0E51EA020718BF46F0010632
:1012900016EB0E7655F1000254F1000103D5BDE8BE
:1012A0008901BDE80088BDE88901BDE80048B6199C
:1012B000524141EB0101A3F10103704780807F7E21
:1012C0007D7C7B7A797877767675747372717170BC
:1012D0006F6E6E6D6C6C6B6A6A696868676666656E
:1012E0006464636362616160605F5F5E5E5D5D5CFC
:1012F0005C5B5B5A5A59595858575756565555556D
:101300005454535352525251515050504F4F4F4ECC
:101310004E4D4D4D4C4C4C4B4B4B4A4A4A4949491A
:10132000484848474747474646464545454444445C
:10133000444343434342424242414141002B26D46D
:10134000770021D01CB54FEA370703B44FF01000E7
:101350004FF010014FF000000FBCBDE810400BF142
:10136000010BBBF1010F08BF5FEA170722BF12F1A3
:10137000010211F101014FF0004143F1000300F0BF
:10138000004043EA00007047F9D35708DAE746EA1D
:10139000064613F1400F4FEA16461FDD13F1200FEA
:1013A000DFBF16430A46002120335B42C8D0C3F199
:1013B000200746EA064602FA07F74FEA164646EACB
:1013C0000706C3F1200722FA03F201FA07F721FA10
:1013D00003F14FF0000342EA0702B1E746EA0206D2
:1013E00046EA06464FEA164646EA0106BCBF46EA0A
:1013F0000646360C4FF000034FF000024FF000019C
:101400009EE72DE9C048934630B491E8380007C8FC
:1014100031EA400C48BF34EA430C03D5FFF7F2FD34
:10142000FFF78CFFF0BCBDE800882DE9C04893466B
:1014300030B491E8380007C810F0804F08BF13F0AF
:10144000804F03D100F005F8FFF778FFF0BCBDE84E
:10145000008820F07F4780EA030023F07F4C07EBF1
:101460000C03A3F57C5300F00040A3F1FE0392F0BF
:10147000000F00F0B38095F0000F00F077802DE9A9
:1014800001494FEA11404FEA144621EA004800FBA7
:1014900006FC24EA064708FB06F607FB08F800FBF3
:1014A00007F718EB06484CEB164C4FEA124B18EBBB
:1014B00007484FEA15464CEB174022EA0B4E0BFB50
:1014C00006FC25EA06470EFB06F607FB0EFE0BFBA5
:1014D00007F71EEB064E4CEB164C4FF000061EEBCA
:1014E000074E4CEB174B18EB0B0840F1000018EBC4
:1014F0000E0B58EB000840F100008F1A4FF000016E
:101500003CBFC943661B14BFB5EB040C00213CBFB4
:10151000C943F61B4FEA17444EEA8E0E27EA0445EC
:101520004FEA1C4704FB07622CEA074C05FB07F750
:101530000CFB05F604FB0CFC16EB074642EB1742CE
:1015400016EB0C4642EB1C421BEB060658EB020264
:10155000414146EA9E0601D5BDE80189B6195241CE
:1015600041EB0101A3F10103BDE801894FEA1445F4
:101570004FEA114724EA054621EA074C05FB07F428
:1015800006FB07F70CFB06F105FB0CFC11EB074112
:1015900044EB17444FEA124711EB0C4144EB1C4457
:1015A00022EA074C05FB07F206FB07F70CFB06F6E1
:1015B00005FB0CFC16EB074642EB174216EB0C46FC
:1015C00042EB1C456A1854F1000148BF7047B61938
:1015D000524141EB0101A3F10103704795F0000F67
:1015E00037D04FEA11424FEA144721EA024624EA73
:1015F000074C02FB07F106FB07F70CFB06F402FBA6
:101600000CFC14EB074441EB17414FEA154714EB70
:101610000C4441EB1C4125EA074C02FB07F506FB95
:1016200007F70CFB06F602FB0CFC16EB074645EB36
:10163000174516EB0C4645EB1C42121951F10001FF
:1016400048BF7047B619524141EB0101A3F10103B4
:1016500070474FEA14454FEA114724EA054621EA4C
:10166000074C05FB07F106FB07F70CFB06F24FF0F2
:10167000000605FB0CFC12EB074241EB174112EB95
:101680000C4251EB1C4148BF7047921841EB0101DD
:10169000A3F101037047FEE7704700002DE9F84F02
:1016A000DFF8A091002209F1040A0AF1040B4FF0BF
:1016B0000F080BF1040E01260B6896403340B3422D
:1016C00071D14C68022C01D0122C11D1D40800EB3E
:1016D00084073D6A5407E40E08FA04FC25EA0C0569
:1016E000D1F810C00CFA04FC4CEA050CC7F820C075
:1016F00007685400032591F804C0A5400CF0030CC2
:10170000AF430CFA04FC4CEA070CC0F800C04F6869
:10171000012F05D0022F03D0112F01D0122F11D18C
:101720008768D1F80CC0AF430CFA04FC4CEA070CF4
:10173000C0F808C04768B7430E79C6F30016964054
:101740003E434660C668AE438D68A5403543C560DC
:101750004C68E4006FD53C4C256845F48045256015
:10176000246822F0030504F480440094374C2E19B9
:10177000D6F808789407250F08FA05F4A743344CE7
:10178000A04201D100242EE0324CA04201D101241C
:1017900029E0314CA04201D1022424E02F4CA04288
:1017A00002D103241FE046E02D4CA04201D10424C5
:1017B00019E02C4CA04201D1052414E02A4CA0428F
:1017C00001D106240FE0294CA04201D107240AE0F0
:1017D000274CA04201D1082405E0264CA04201D1AB
:1017E000092400E00A24AC403C43C6F80848D9F874
:1017F00000404D464E689C43F60300D51C432C60C8
:10180000DAF8004055464E689C43B60300D51C43A9
:101810002C60DBF800405D464E689C43F60200D524
:101820001C432C60DEF8004075464E689C43B602AF
:1018300000D51C432C60521C102AFFF43CAFBDE8BD
:10184000F88F0000003C0140443802400030014065
:10185000000002400004024000080240000C024068
:10186000001002400014024000180240001C024018
:1018700000200240002402400AB18161704709043F
:10188000FBE70000014800687047000028000020C6
:1018900002480168491C01607047000028000020D0
:1018A0000B4810B5016841F400710160016841F412
:1018B00080610160016841F480710160032000F0E3
:1018C00049F80F2000F006F800F015F8002010BDD0
:1018D000003C024010B5044600F096F94FF47A71CE
:1018E000B0FBF1F000F0AAFB00222146501E00F0F0
:1018F00011F8002010BD08B50020009008BD00F0D0
:101900001F02012191404009800000F1E020C0F851
:1019100000117047F0B40E4B1B68C3F30223C3F1F0
:101920000704042C00D904241D1D072D01D2002317
:1019300000E0DB1E012606FA04F56D1E0D409D40F9
:101940009E40761E164045EA0601F0BC00F000BD40
:101950000CED00E0064A00F0070110684FF6FF03A7
:10196000184040EA01200349084310607047000016
:101970000CED00E00000FA052DE9F8431D48016870
:1019800041F0805101600068012700F08050009014
:10199000380490FAA0F0DFF86080B0FA80F048F8E0
:1019A0002070FFF76FFF04464FF47A75134E04E082
:1019B000FFF768FF001BA84213D87068C003F7D573
:1019C0004FF4003090FAA0F0B0FA80F048F82070A0
:1019D000FFF758FF044607E0FFF754FF001BA8423B
:1019E00002D90320BDE8F88370688003F4D5002095
:1019F000F8E700004038024000000E42007000404E
:101A00002DE9F05FDFF8F8A104460F46DAF8000090
:101A1000DFF8F08100F00F02C8B27A49814641F246
:101A2000883608F10808BA4261D202468AF80020D6
:101A3000DAF8000000F00F00B8427DD1207880076E
:101A400007D5D8F80020A36822F0F0021A43C8F89E
:101A500000202078C0072DD0606801281AD0022805
:101A60001BD0032819D009688907002964DAD8F83F
:101A70000010474621F003010143C8F80010FFF7AA
:101A800001FF0546606801280FD0022818D00328FE
:101A90001CD027E009688903E7E709688901E4E7C2
:101AA000FFF7F0FE401BB04258D83868C0F3810001
:101AB0000128F5D188E0FFF7E5FE401BB0424DD884
:101AC0003868C0F381000228F5D17DE03868FFF75F
:101AD000D9FE401BB042F9D940E0FFF7D3FE401BCE
:101AE000B0423BD8386810F00C0FF6D16CE020788B
:101AF000800707D5D8F80020A36822F0F0021A4327
:101B0000C8F800202078C0074CD06068012828D091
:101B1000022829D0032827D009688907002949DA33
:101B2000D8F8002022F003020243C8F80020FFF793
:101B3000A9FE0546606800E03CE001281DD00228AF
:101B400029D0032838D0B3464646306810F00C0F31
:101B500028D0FFF797FE411B5945F6D90320BDE871
:101B6000F09F09688903D9E709688901D6E7FFF77B
:101B700089FE411B594502D9F0E7B3464646306815
:101B8000C0F381000128F2D10CE0FFF77BFE411B7E
:101B9000594502D9E2E7B34646463068C0F38100B2
:101BA0000228F2D18AF80090DAF8000000F00F0065
:101BB000B84209D00120D2E744462068FFF762FE10
:101BC000401BB042F9D9C9E72078400707D5D8F8BB
:101BD0000010E26821F4E0511143C8F800102078A9
:101BE000000708D5D8F80010226921F4604141EAC5
:101BF000C201C8F800100F20FFF76CFE0020AEE70E
:101C0000003C02400038024010B500F043F808499B
:101C10000968F02292FAA2F201F0F001B2FA82F21F
:101C2000D140044A515CC8400349086010BD00001F
:101C300008380240284700081400002010B5FFF7BC
:101C4000E3FF074909684FF4E05292FAA2F201F467
:101C5000E051B2FA82F2D140024A515CC84010BD54
:101C6000083802402847000810B5FFF7CDFF0749A4
:101C700009684FF4604292FAA2F201F46041B2FAAC
:101C800082F2D140024A515CC84010BD083802407F
:101C90002847000830B51948006810F00C011848B2
:101CA00012D0184C04290ED008290DD1134A121F46
:101CB0001168136801F03F015D0247F6C07304D557
:101CC000B4FBF1F003E0204630BDB0FBF1F0116849
:101CD000194093FAA3F3B3FA83F3D9404843116848
:101CE0004FF4403292FAA2F201F44031B2FA82F299
:101CF000D140491C4900B0FBF1F030BD083802402A
:101D00000024F40040787D012DE9F84F0446007866
:101D1000DFF8FCA2BF4DC0074FF0000648D0DAF84C
:101D200000105046C1F38101012908D00068C0F3BA
:101D3000810002280AD1281D0068400206D52868C3
:101D4000800335D56068002873D031E0DFF8C49295
:101D500009F1020989F80060FFF794FD074641F296
:101D6000883804E0FFF78EFDC11B41457AD828680A
:101D70008003F7D4207989F80000606860B1FFF72C
:101D800081FD074604E0FFF77DFDC11B4145EDD80D
:101D900028688003F7D50BE0FFF774FD074604E0E1
:101DA000FFF770FDC11B4145E0D828688003F7D4D8
:101DB0002078DFF86492800744D5DAF800105046A6
:101DC00011F00C0F4FF0F80809D00068C0F3810043
:101DD00002280BD18E48001F0068400206D42868F4
:101DE000800714D5E068012823D110E0E068D0B165
:101DF0000120C9F80000FFF745FD074604E0FFF7A2
:101E000041FDC01B6428B1D828688007F7D5286831
:101E100098FAA8F22169B2FA82F220F0F800914013
:101E2000084328600EE0C9F80060FFF72BFD074665
:101E300005E0EAE0FFF726FDC01B642812D82868F9
:101E40008007F7D42078000725D5DFF8C4817348D0
:101E5000616908F16C0881B101210160FFF712FD91
:101E6000074605E07EE0FFF70DFDC01B642879D82A
:101E7000D8F800008007F6D50DE00660FFF702FDF8
:101E8000074604E0FFF7FEFCC01B64286AD8D8F8B8
:101E900000008007F6D42078400753D55C483830DE
:101EA000016841F0805101600068DFF8748100F042
:101EB00080500090D8F8001041F48071C8F80010EC
:101EC000FFF7E0FC074604E0FFF7DCFCC01B6428DA
:101ED00048D8D8F80000C005F6D5DFF834B10BF1CA
:101EE000680B8BF80060FFF7CDFC074641F288389D
:101EF00004E0FFF7C7FCC11B41457ED8DBF80000BA
:101F00008007F6D4207A8BF80000A06868B1FFF74C
:101F1000B9FC074604E0FFF7B5FCC11B41456CD88E
:101F2000DBF800008007F6D50CE0FFF7ABFC0746B6
:101F300004E0FFF7A7FCC11B41455ED8DBF80000B9
:101F40008007F6D4A069E8B3DAF80010C1F3810184
:101F500002295AD0022806D0C9F86060FFF792FC27
:101F600004464DE049E04F46C9F86060FFF78AFC3F
:101F7000064604E0FFF786FC801B64283DD82868ED
:101F80008001F7D4D4E90701084347F6C07191FAFC
:101F9000A1F1626AB1FA81F18A40A16A4FF0FF3380
:101FA00003EB51014FF4403393FAA3F3B3FA83F3F5
:101FB00099400A4310434FF0706292FAA2F2B2FACB
:101FC00082F200E01FE0E16A914008431049091FD6
:101FD000086001203866FFF755FC044604E0FFF76F
:101FE00051FC001B642808D828688001F7D50AE056
:101FF000FFF748FC001B642802D90320BDE8F88FD6
:1020000028688001F4D40020F8E70120F6E70000FA
:10201000083802400038024000004742800E474224
:10202000007000404FF0E0210428086903D020F040
:1020300004000861704740F00400FAE710B5401E44
:10204000B0F1807F01D3012010BD4FF0E02460612A
:102050000F21601700F07CF90020A06107202061AB
:10206000002010BD704790F83900704738B50168FE
:1020700004460868CA68C0F3000002F4807238B1F0
:1020800032B1086848680090E06B40F00100E063FE
:1020900008684A69C0F3400002F0010238B132B169
:1020A000086848680090E06B40F00400E06308684E
:1020B0004A69C0F3800002F0010238B132B1086809
:1020C00048680090E06B40F00200E06308684A69ED
:1020D000C0F3C00002F0010238B132B108684868AC
:1020E0000090E06B40F00800E0630868C968C0F346
:1020F000401001F0200118B111B1204600F0B0F9F4
:1021000020680168C068C1F3C01100F0800019B1F7
:1021100010B1204600F0B2FA21680868CA68C0F31E
:10212000801002F04002012568B162B1CA68204601
:1021300022F04002CA6094F8391032290CD080F89D
:10214000395000F0DBF8E06B002804D084F83950F7
:102150002046FFF787FF38BD222180F83910F0E7CD
:1021600070B5040004D094F83900002510B106E0E1
:10217000012070BD84F83850204600F021F802207C
:1021800084F839002068C16821F40051C1602046FC
:1021900000F0BAF92068016921F4904101612068DA
:1021A000416921F02A0141612068C16841F4005170
:1021B000C160E563012084F83900002070BD000093
:1021C00010B500681A4986B088422FD119480168B5
:1021D00041F001010160006800F001000590154820
:1021E0001430016841F0100101600068012100F025
:1021F000100005904FF4007000900220CDE901011D
:10220000039007200C4C049069462046FFF746FADD
:102210002115009169462046FFF740FA2520FFF777
:102220006EFB032211462520FFF774FB06B010BD9C
:1022300000100140303802400000024090F8393070
:10224000012B01D0122B2BD131B32AB390F83830A7
:10225000012B25D0012380F8383081628285C28528
:102260000022C26390F83910122917D0222180F879
:1022700039100168CB6843F48073CB6001684B6907
:1022800043F001034B6180F838200068C16841F0D9
:102290002001C16000207047012070473221E6E72D
:1022A0000220704730B50068114988420CD1114AAC
:1022B0005088010408D41146440409784FF0000303
:1022C00006D50A2901D0538030BD40F400400DE00E
:1022D0000D2909D0C0F30D04074D401C80B22955CB
:1022E0005080C728EFD830BD40F48040508030BDCA
:1022F0000010014034000020B00000207047FEE7CD
:10230000104810B5016886B041F002010160006814
:10231000012100F0020005900320CDE90210CDE973
:102320000001094C69462046FFF7B8F90122114621
:102330002046FFF7A1FA012202212046FFF79CFA6E
:1023400006B010BD3038024000040240FEE770477E
:102350000907090E002806DA00F00F0000F1E0205E
:1023600080F8141D704700F1E02080F800147047D9
:1023700070B51E4C92B00025266846F08056266047
:10238000246804F080541194194C266846F44046A1
:10239000266024680DF1240C04F4404411940124B7
:1023A00000940194022406948CE80D006605CDE9A2
:1023B00007616846FFF7A8FC00B1FEE7FFF7DCFA0B
:1023C00000B1FEE70CA90F2081E831004FF4A050C6
:1023D0000F904FF48050109005210CA8FFF710FBD0
:1023E000002800D0FEE712B070BD00004038024067
:1023F0000070004010B501F0A7FE012801D001F0E7
:1024000097FBBDE81040FFF743BA00001048016891
:1024100041F4700101600F48016841F00101016061
:102420000C4A00210832116002680B4B1A4002600E
:10243000031D0A4A1A60026822F4802202600548DD
:102440000C3001600249580680390860704700006E
:1024500088ED00E000380240FFFFF6FE1030002457
:1024600010B590F83910222903D0322901D002206A
:1024700010BD8168B1F5805F11D001690029016844
:102480001FD0496801F07F03816A4A1C82620B7089
:10249000C18D491E0904090CC18518D02FE00269BD
:1024A000816A002A0268526805D0D2B20A80816A25
:1024B000491C8162ECE7C2F308020A80816A891C28
:1024C000F7E74A68816A4B1C83620A70E0E701689B
:1024D000CA6822F02002CA6090F83910322910D060
:1024E0000168CA6822F48072CA6001684A6922F0F1
:1024F00001024A61012180F83910FFF7D3FE002064
:1025000010BD1221F7E700002DE9F04104460068F4
:102510000169E26821F440510A4302612068C16800
:1025200049F20C6291432369A268E5691A43636921
:102530002B431A430A43C2602068416921F4407268
:10254000A16911434161E06964263225B0F5004F6D
:10255000484A494920681DD0884201D0904269D13B
:10256000FFF782FB00EBC00101EB00106168B04691
:102570008900B0FBF1F1B1FBF8F6FFF775FB00EB5A
:10258000C00101EB001061688900B0FBF1F7FFF7B3
:102590006BFB68E0884201D0904219D1FFF764FBE1
:1025A00000EBC00101EB00106168B0464900B0FBD0
:1025B000F1F1B1FBF8F6FFF757FB00EBC00101EBBF
:1025C000001061684900B0FBF1F7FFF74DFB18E020
:1025D000FFF734FB00EBC00101EB00106168B0466F
:1025E0004900B0FBF1F1B1FBF8F6FFF727FB00EB78
:1025F000C00101EB001061684900B0FBF1F7FFF783
:102600001DFB00EBC00101EB001061684900B0FB4D
:10261000F1F1B1FBF8F06FF01801484307EB8000CF
:1026200005EB0011B1FBF8F0216866F31F1088601C
:10263000BDE8F081FFF702FB00EBC00101EB0010E9
:102640006168B0468900B0FBF1F1B1FBF8F6FFF725
:10265000F5FA00EBC00101EB001061688900B0FBE6
:10266000F1F7FFF7EBFA00EBC00101EB0010616836
:102670008900CCE7001401400010014090F83910A7
:10268000122903D0322901D0022070478168B1F5A8
:10269000805F016A0BD04A1C0262026809785160AF
:1026A000C18C491E0904090CC1840ED017E00988A9
:1026B0000268C1F30801516001690029016A02D072
:1026C000491C0162ECE7891CFBE70168CA6822F03B
:1026D0008002CA600068C16841F04001C16000200A
:1026E0007047000070B500240C4D0D48FFF7BEFC8C
:1026F00002E0641CAC4204D80948FFF7B4FC01288E
:10270000F7D1002402E0641CAC4206D8012205493E
:102710000348FFF793FD0028F5D170BDFFFF0100CE
:102720007801002034000020FEE703B40198410046
:10273000009850EAC12018BF04204A0D18BF40F08D
:10274000010040F2FF72B2EB515F08BF40F002009F
:10275000012808BF052002B0704730380A2801D28E
:1027600001207047002070477047000010B50446F4
:102770000420FFF757FC0A484FF47A7114FB01F16B
:102780000122446002804FF0E020026942F0020220
:1027900002614161016941F00101016110BD000068
:1027A0002C0000202DED028B0C4C9FED0D8A4FF478
:1027B0007A7594ED000A30EE080A84ED000A10EEF6
:1027C000100A01F039FF41EC100B06A053EC102B5E
:1027D000FDF7CCFD284600F031FFEAE700000020BD
:1027E0000AD7233C666C6F61745F6E756DB5C4D695
:1027F000B5CEAA3A20252E34660D0A0003490A6890
:102800005206FCD5C2B24A60704700000010014079
:10281000054C4FF4FA75D4F88402C143C4F884120D
:10282000284600F00BFFF6E7008040420025074CE9
:1028300001264FF44877C4F88052C82000F0FEFE0D
:10284000C4F88062384600F0F9FEF4E700804042A8
:102850001CB5FFF725F80823022219214FF4B470A4
:10286000FFF786FDB420FFF781FFFFF749FD4FF426
:10287000E13000F03DFD07490120CDE900010023D2
:10288000802205A1074801F033FC01F037F8002051
:102890001CBD00000400002073746172745F7461D9
:1028A000736B0000653200082DE9F041184E0F46A9
:1028B0000446F5683068001D00F036FD38B9306810
:1028C00090F82C1001208840316981433161601CEF
:1028D00007D137B13168BDE8F0410E48091D00F05D
:1028E0005BBD30682C44AC424460316805D2B06BAB
:1028F000BDE8F041091D00F037BD706B091D00F007
:1029000033FDB06A844200D2B462BDE8F0810000B9
:102910003C000020C80400202DE9F041054600F0ED
:1029200047FD2D4EB068401CB06030682B4F10B191
:10293000706930B32BE03560B068012827D10024DE
:1029400004EB840007EB800000F000FD641C202CE9
:10295000F6D3234800F0FAFC2148143000F0F6FCCE
:102960001F48283000F0F2FC1D483C3000F0EEFC1F
:102970001B48503000F0EAFC194870631430B06313
:1029800005E03068E96AC06A884200D83560706A3C
:102990000121401C70626864E86A32698140114319
:1029A000316100EB800007EB8000291D00F0F4FC92
:1029B00000F03AFD706900280CD03068E96AC06AFE
:1029C000884207D207494FF080500860BFF34F8F0D
:1029D000BFF36F8FBDE8F0813C000020F8010020BC
:1029E0007804002004ED00E010B500F0E1FC0E4C8E
:1029F0002068A0B90D4800F0A9FC0C48143000F084
:102A0000A5FC0A48E0601430206100221021052056
:102A100001F0A4F8206010B105A100F0DBFDBDE8D5
:102A2000104000F001BD000078000020DC04002010
:102A3000546D72510000000070B5124E124D1CE032
:102A400000F0A6FF306820B1002401F0ABFCA4B96F
:102A500001E00124F9E700F0ABFCF068C468201D38
:102A600000F062FCA868401EA8606868401E6860AC
:102A700000F0DAFC204600F052F868680028DFD148
:102A800070BD0000B40400203C00002030B4026C93
:102A90000B46002A0BD0C1681144C1604468A142B2
:102AA00001D30168C16030BC1846FDF758BD30BC89
:102AB00070472DE9F041856B174604460026026CED
:102AC00082B1C7B1E068FDF74AFDE168206C091AE0
:102AD000E1602268914202D26168081AE060022F28
:102AE00016D017E02068A8B9606801F0B5FB06466B
:102AF000002060600EE0A068FDF731FD216CA06849
:102B00000844A0606168884204D32068A06001E0A6
:102B100005B16D1E6D1CA5633046BDE8F08110B592
:102B20000446006B00F0B2FC2046BDE8104000F007
:102B3000ADBC000010484FF43841420706D0C01D1C
:102B40000D4920F00700411AC1F538410B4A002316
:102B50000144C2E900030839103A21F0070111606D
:102B60004B600B600B1AC0E9001393604FF00040FC
:102B70005360D0607047000004050020A8000020CA
:102B8000074E4FF08054074DFFF756FF306801287D
:102B9000FAD92C60BFF34F8FBFF36F8FF4E70000BB
:102BA000F801002004ED00E02DE9F047DDE909849B
:102BB0000E461746824691009946089DA522206B35
:102BC000FDF712FD6FF00301206B01EB8701084454
:102BD00020F00707780705D040F22B3219A11EA07C
:102BE000FDF7C4FB00202218315C82F83410315C00
:102BF00011B1401C1028F6D3002684F84360202D24
:102C000000D31F25E562C4E91356201D00F0A9FB7F
:102C100004F1180000F0A5FB2461C5F120006462F6
:102C2000A061666584F858604A465146384600F00F
:102C300003FB2060B8F1000F01D0C8F80040BDE8E8
:102C4000F08700002E2E5C4672656552544F535C2F
:102C50007461736B732E63004572726F723A2573E1
:102C60002C25640D0A00000030B5114900E0114622
:102C70000A688242FBD34B685C18844203D14068E7
:102C800018444860084643681C18944209D1084C0F
:102C9000103C2468A24209D052681A4442600A6873
:102CA00012680260814200D0086030BD0460F9E71C
:102CB000A800002070B5002441600B4D00619142D6
:102CC00006D8D11A8269914206D2011D286907E00F
:102CD0009A4203D2994201D3012403E0011DE8681E
:102CE00000F042FB204670BD7800002010B504467D
:102CF00000F05EFBA06B20B1002400F095FB2046A5
:102D000010BD0124F9E700002DE9F34100980F46BA
:102D10000026846C2CB940F6CE1216A11AA0FDF73D
:102D200025FBA06BE16B884205D340F6CF1211A1C1
:102D300015A0FDF71BFBA06BE16B88420CD294F948
:102D400045503A4669462046FFF7B3FE0646681CE2
:102D500005D06D1C84F845503046BDE8FC81606AA2
:102D60000028F9D004F1240001F0D0FA0028F3D0B3
:102D70000126F1E72E2E5C4672656552544F535C76
:102D800071756575652E63004572726F723A2573B1
:102D90002C25640D0A000000F8B5054614480E46BF
:102DA000C068C068C468201D00F0BEFAE069012850
:102DB00017D1A0692B46411932462046FFF77AFF0A
:102DC00078B100200346014600902A46204601F0D3
:102DD000CFFB30B907494FF4027201F11800FDF73B
:102DE000C5FA616A01B02046BDE8F040084700001E
:102DF00078000020D444000870B586B02F4E53E010
:102E00000198002806DADDE90301029A904701984B
:102E1000002849DB039C606910B1201D00F084FA92
:102E200005A800F0A7F8054601980A283CD2DFE87B
:102E300000F00505053B273805053B270298A169E9
:102E4000034601442A462046FFF734FF00282BD0D2
:102E5000616A20468847E069012825D1002000905A
:102E60000298A169002342181946204601F080FB10
:102E7000D0B940F2213212A117A0FDF777FA13E082
:102E80000298A06128B94FF44E720DA112A0FDF76F
:102E90006DFAA0692B4641191A462046FFF70AFF32
:102EA00002E0204600F0F2FA00231A4601A9306839
:102EB00000F090FE0028A3D106B070BD780000207D
:102EC0002E2E5C4672656552544F535C74696D6575
:102ED00072732E63000000004572726F723A2573A0
:102EE0002C25640D0A000000F8B50D46064600F0DA
:102EF0004FFD684600F03EF80446009810B101F01E
:102F000051FAF8BD1148ADB101690968D9B1002580
:102F1000311B2A46006800F06FFB01F043FA0028DD
:102F2000EFD10B494FF080500860BFF34F8FBFF3D4
:102F30006F8FF8BDA642EBD801F034FA2146304637
:102F4000FFF72AFFF8BD0125E2E700007800002026
:102F500004ED00E00648416B096829B1416BC9687E
:102F6000C9684968816270474FF0FF31FAE7000095
:102F70003C00002070B5054601F0F4F8064E04460A
:102F8000B068844203D200F009F8012000E000207C
:102F900028602046B46070BD78000020F8B5184E57
:102FA00026E0C068C4680568201D00F0BDF9616AAC
:102FB00020468847E06901281AD1A0692844A84220
:102FC00006D924616060211DF06800F0CDF90FE0A2
:102FD00000200346014600902A46204601F0C8FA28
:102FE00030B9084940F2923201F11800FDF7BEF9FC
:102FF000F06801680029D4D13169C6E90310F8BD31
:1030000078000020D444000808484068401C05D0DF
:1030100040F20F1206A111A0FDF7A8F9502080F38D
:103020001188BFF34F8FBFF36F8FFEE78C00002036
:103030002E2E5C4672656552544F535C706F7274ED
:1030400061626C655C525644535C41524D5F434D26
:1030500034465C706F72742E630000004572726FAC
:10306000723A25732C25640D0A000000084CE068B4
:10307000016839B1002139B10020FFF735FFFFF7B2
:10308000BBFEF4E70121F6E7C0680068F5E7000041
:10309000780000202DE9F041044600F089F994F908
:1030A000455004F1240610E0A06C20B10021204618
:1030B000FFF72AFE04E0606A48B1304601F026F9C5
:1030C00008B100F057FB6D1E6DB2002DECDC4FF027
:1030D000FF3684F8456000F0A7F900F069F994F92B
:1030E000445004F1100709E0206948B1384601F066
:1030F0000DF908B100F03EFB6D1E6DB2002DF3DC42
:1031000084F84460BDE8F04100F08EB92DE9F0414B
:103110000546002600F03CFC324F386808B9FFF73E
:1031200009FDF86805424FD1002D4DD008356807DC
:103130000BD005F00700C0F108000544680704D073
:10314000BF2229A132A0FDF711F9002D3CD07868EB
:10315000854239D8234910310846046801E02146E8
:1031600004466068A84202D220680028F7D1386877
:10317000B846844228D00E68206808606068083627
:10318000401B10280ED96719780704D0EC2216A12D
:103190001FA0FDF7EBF86068401B7860384665605B
:1031A000FFF762FD6168D8F804004246401AC8F88B
:1031B0000400D8F80830984200D29060D8F80C008B
:1031C00001430020C4E9000101F0ECF8700705D0CC
:1031D0004FF4967204A10EA0FDF7C8F83046BDE882
:1031E000F0810000980000202E2E5C46726565522A
:1031F000544F535C706F727461626C655C4D656DA9
:103200004D616E675C686561705F342E630000001D
:103210004572726F723A25732C25640D0A00000006
:103220000449086818B10868026D521C02650868F4
:10323000704700003C00002010B5031F4FF0807461
:103240001C601B1F21F001011960191F044B0B604A
:1032500014390A60091F6FF0020244380A6010BD79
:10326000093000081CB500F0A3F814490220CDE98C
:1032700000010023322212A1144800F039FF0F4947
:103280000320091DCDE900010023322210A11348BB
:1032900000F02EFF094904200831CDE90001002388
:1032A00080220FA1114800F023FF0448083840682D
:1032B00000F0FAF9BDE81C4000F0B6B808000020A4
:1032C0006C6564305F7461736B0000001128000846
:1032D0006C6564315F7461736B0000002D28000819
:1032E000666C6F61745F7461736B0000A5270008E2
:1032F0000B4910B5094AC1E9002000208860C86068
:10330000086188610C2048610846FEF729FFBDE886
:103310001040012203490248FEF790BF001001400F
:103320007801002034000020D0E9013201699A6060
:10333000D0E901235A604A68824201D182684A601A
:10334000002202610868401E0860704700F1080111
:103350004FF0FF32C0E90112C1600161002101603C
:10336000704700210161704730B50C68621C02D0C3
:1033700000F1080202E0026904E01A4653681D6881
:10338000A542FAD953684B6099608A605160086120
:103390000168491C016030BD42684A6093688B60D7
:1033A00093685960916008610168491C0160704729
:1033B000502080F31188BFF34F8FBFF36F8F0949FF
:1033C0004868401C486001280AD10748006810F08E
:1033D000FF0F05D040F2B91204A10FA0FCF7C6BF41
:1033E000704700008C00002004ED00E02E2E5C46AB
:1033F00072656552544F535C706F727461626C6594
:103400005C525644535C41524D5F434D34465C70B0
:103410006F72742E630000004572726F723A2573EA
:103420002C25640D0A00000010B5084C606828B90E
:103430004FF4E07206A111A0FCF798FF6068401EEF
:10344000606001D180F3118810BD00008C00002065
:103450002E2E5C4672656552544F535C706F7274C9
:1034600061626C655C525644535C41524D5F434D02
:1034700034465C706F72742E630000004572726F88
:10348000723A25732C25640D0A00000070B50028DF
:103490002AD0164DA0F108046068E968084205D1F9
:1034A0004FF4A07212A11CA0FCF760FF206828B1A5
:1034B00040F241120EA118A0FCF758FF6068E968BD
:1034C000084211D02268002A0ED18843606000F0C3
:1034D0005FFA60686968084468602046FFF7C4FBCB
:1034E000BDE8704000F05EBF70BD00009800002095
:1034F0002E2E5C4672656552544F535C706F727429
:1035000061626C655C4D656D4D616E675C6865619F
:10351000705F342E630000004572726F723A25733B
:103520002C25640D0A00000006484FF47A710068EB
:10353000B0FBF1F14FF0E020491E4161072101612C
:10354000704700001400002010B5FCF7E9FE104C95
:1035500010280CD300F1E02090F8F0032178884285
:1035600005D24FF440720BA115A0FCF7FFFE1848DE
:103570000068A16800F4E060884207D9BDE8104007
:103580004FF4447203A10EA0FCF7F0BE10BD000082
:103590008C0000202E2E5C4672656552544F535CA1
:1035A000706F727461626C655C525644535C415238
:1035B0004D5F434D34465C706F72742E63000000A3
:1035C0004572726F723A25732C25640D0A00000053
:1035D0000CED00E010B5074B002253F832401CB14F
:1035E000521C082AF9D310BD43F8321003EBC20174
:1035F000486010BDB801002070B515460E4604465F
:10360000FFF7D6FE94F944100020491C01D184F83C
:10361000440094F94510491C01D184F84500FFF796
:1036200003FFA06B28B92A46314604F1240000F0BC
:10363000D1F82046BDE87040FFF72CBD10B504005E
:1036400012D00E49096B29B140F2CF420CA111A052
:10365000FCF78CFE00F09CF900212046FFF724F9CE
:1036600000F0A0FE002807D10E494FF080500860FE
:10367000BFF34F8FBFF36F8F10BD00003C000020E1
:103680002E2E5C4672656552544F535C7461736BA9
:10369000732E63004572726F723A25732C25640D88
:1036A0000A00000004ED00E070B50446FFF780FE5C
:1036B000234D04B92C68201DFFF736FE58B9E06A87
:1036C000204A00EB800152F8211021B901218140EC
:1036D000286988432861A06A18B104F11800FFF72F
:1036E00023FE686A401C68622868844207D1211D55
:1036F0001548FFF751FE6868401C686007E0A8683D
:10370000401EA8602046FFF70AFAFFF723FCFFF7E8
:103710008BFE6869002812D0286884420FD1286B7C
:1037200028B140F2654209A10DA0FCF71FFE104927
:103730004FF080500860BFF34F8FBFF36F8F70BDA5
:103740003C000020F8010020B40400202E2E5C462E
:1037500072656552544F535C7461736B732E6300D2
:103760004572726F723A25732C25640D0A000000B1
:1037700004ED00E001490120C86170473C000020D1
:1037800070B50D46040005D140F6063207A10CA025
:10379000FCF7ECFD0E48016820461831FFF7E4FD08
:1037A0002846BDE870400121FFF77EB82E2E5C460A
:1037B00072656552544F535C7461736B732E630072
:1037C0004572726F723A25732C25640D0A00000051
:1037D0003C00002070B514460E46050005D140F6A9
:1037E000313209A10DA0FCF7C1FD1048016828463F
:1037F0001831FFF7D1FD0CB14FF0FF3621463046AE
:10380000BDE87040FFF750B82E2E5C4672656552D9
:10381000544F535C7461736B732E63004572726F07
:10382000723A25732C25640D0A0000003C0000202C
:1038300070B5040039D01D4DE06A2968C96A884214
:1038400033D2A069002804DB2868C06AC0F12000D8
:10385000A061E06A164E00EB8000616906EB800013
:1038600081421FD1201DFFF75FFD012150B9E06AA1
:1038700000EB800256F8222022B92A6901FA00F0F2
:1038800082432A612868C06AE0622A698140114344
:10389000296100EB800006EB8000211DBDE870402F
:1038A000FFF77ABD2868C06AE06270BD3C00002066
:1038B000F801002010B5040005D140F6C13205A181
:1038C00009A0FCF753FD0C48016A2160C0686060E4
:1038D00010BD00002E2E5C4672656552544F535C3D
:1038E0007461736B732E63004572726F723A257345
:1038F0002C25640D0A0000003C0000201CB5174870
:103900000024CDE900402346822215A1164800F08C
:10391000EFFB012803D100F0F1FD01280AD0401C83
:103920001BD102B040F28472BDE810400FA114A078
:10393000FCF71CBD502080F31188BFF34F8FBFF3FD
:103940006F8F06484FF0FF312C38816201214161B1
:10395000C460BDE81C4000F061B81CBD68000020D8
:1039600049444C4500000000812B00082E2E5C4687
:1039700072656552544F535C7461736B732E6300B0
:103980004572726F723A25732C25640D0A0000008F
:103990000248016B491C0163704700003C00002095
:1039A00070B5134D286B10B10120E86170BD002087
:1039B000E86128690F4EB0FA80F0C0F11F0000EBFB
:1039C000800456F8240028B940F6F6220AA10FA078
:1039D000FCF7CCFC06EB840000F108024168496862
:1039E0004160914201D149684160C868286070BD5A
:1039F0003C000020F80100202E2E5C4672656552C6
:103A0000544F535C7461736B732E63004572726F15
:103A1000723A25732C25640D0A0000001CB5304C49
:103A200020683049884205D140F259122EA139A0B0
:103A3000FCF79CFC20682B49491E884205D14FF4B5
:103A4000AD7229A133A0FCF791FC364C207801908F
:103A5000FF20207020788DF800009DF800009DF870
:103A6000001000F0F000884205D040F273121EA151
:103A700028A0FCF77BFC9DF800002B4A00F05000CA
:103A800010700720906007E09068401E90609DF8DD
:103A9000000040008DF800009DF800000006F3D4FF
:103AA000107A000200F4E0609060019820700C48E9
:103AB0002030016841F470010160016841F07041FB
:103AC0000160FFF731FD00205060FCF7F1FB174863
:103AD000016841F040410160FCF7DAFB00201CBDA9
:103AE00000ED00E071C20F412E2E5C4672656552FA
:103AF000544F535C706F727461626C655C525644D3
:103B0000535C41524D5F434D34465C706F72742E6E
:103B1000630000004572726F723A25732C25640DA4
:103B20000A00000000E400E08C00002034EF00E018
:103B300010B5502080F31188BFF34F8FBFF36F8F04
:103B400000F016FB18B104494FF0805008600020C7
:103B500080F3118810BD000004ED00E02DE9F04174
:103B600017460E46050005D14FF4C47210A115A0EA
:103B7000FCF7FCFBBEB105FB06F05430FFF7C6FABC
:103B800004000ED004F154007EB12060C4E90F5649
:103B90002046012100F0E0F884F850700021204612
:103BA000A164BDE8F0810020E7E72460EEE70000B3
:103BB0002E2E5C4672656552544F535C7175657567
:103BC000652E63004572726F723A25732C25640D61
:103BD0000A0000002DE9FF4F83B09B468A4604008F
:103BE0004FF0000605D140F2DC4251A155A0FCF790
:103BF000BDFBBAF1000F07D1206C28B140F2DD42C5
:103C00004BA150A0FCF7B2FB00F09EFA38B9059822
:103C100028B14FF49C6246A14AA0FCF7A7FB4FF0E5
:103C200000094FF08057DFF82C81FFF7C1FBA56B2F
:103C300045B351462046E668FEF728FFBBF1000F6A
:103C400013D0E660606A50B104F1240000F05EFB1E
:103C500028B1C8F80070BFF34F8FBFF36F8FFFF725
:103C6000E3FB012007B0BDE8F08F6D1EA56320685F
:103C700010B9FFF7D5FA606020690028EFD004F191
:103C80001000E3E7059808B11EB106E0FFF7CCFB92
:103C900027E06846FFF70EFE0126FFF7C5FBFFF79A
:103CA00077FEFFF785FB94F94400401C01D184F8AE
:103CB000449094F94500401C01D184F84590FFF7E9
:103CC000B3FB05A9684600F0CFF9002820460AD0CA
:103CD000FFF7E0F900F066FB2046FFF707F8002841
:103CE000A3D00020BEE7FFF701F8D8B1206830B9B3
:103CF000FFF75EFB6068FFF79BFDFFF795FB04F1A4
:103D000024000599FFF73CFD2046FFF7C3F900F0BA
:103D100049FB002889D1C8F80070BFF34F8FBFF36B
:103D20006F8F82E72046FFF7B5F900F03BFB7CE799
:103D30002E2E5C4672656552544F535C71756575E5
:103D4000652E63004572726F723A25732C25640DDF
:103D50000A00000004ED00E070B50D46040005D136
:103D600040F21B121CA121A0FCF700FBFFF720FB77
:103D7000D4E90F20216802FB001161600021A163DA
:103D80002168A1600A46D4E90F01401E00FB012111
:103D9000E16021464FF0FF3001F8440F487004F114
:103DA00010004DB1FFF7D2FA04F12400FFF7CEFA6C
:103DB000FFF73AFB012070BD21690029F8D000F01F
:103DC000A5FA0028F4D00D494FF080500860BFF3E9
:103DD0004F8FBFF36F8FEBE72E2E5C4672656552F7
:103DE000544F535C71756575652E63004572726F33
:103DF000723A25732C25640D0A00000004ED00E0E2
:103E00002DE9FF4F83B099468B4604004FF0000622
:103E100005D140F2D92252A156A0FCF7A7FABBF176
:103E2000000F07D1206C28B140F2DA224CA151A03A
:103E3000FCF79CFAB9F1020F08D1E06B012805D01C
:103E400040F2DB2246A14BA0FCF790FA00F07CF98F
:103E500038B9059828B140F2DE2241A145A0FCF70F
:103E600085FA4FF0000A4FF08057DFF81881FFF70E
:103E70009FFAA06BE16B884206D3B9F1020F03D021
:103E8000059800B316B325E04A4659462046FEF78A
:103E900010FEA16C21B149462046FEF735FF05E032
:103EA000616A19B104F1240000F030FA28B1C8F8B1
:103EB0000070BFF34F8FBFF36F8FFFF7B5FA01208C
:103EC00007B0BDE8F08FFFF7AFFA21E06846FFF7D3
:103ED000F1FC0126FFF7A8FAFFF75AFDFFF768FA91
:103EE00094F94400401C01D184F844A094F94500A1
:103EF000401C01D184F845A0FFF796FA05A9684651
:103F000000F0B2F830B12046FFF7C4F800F04AFAEA
:103F10000020D5E7FFF74CFAA06BE16B884201D196
:103F2000012500E00025FFF77FFA95B104F11000AC
:103F30000599FFF725FC2046FFF7ACF800F032FAB0
:103F4000002894D1C8F80070BFF34F8FBFF36F8F74
:103F50008DE72046FFF79EF800F024FA87E700007F
:103F60002E2E5C4672656552544F535C71756575B3
:103F7000652E63004572726F723A25732C25640DAD
:103F80000A00000004ED00E02DE9F04798461546D0
:103F90008946040005D140F29F322AA12EA0FCF7E9
:103FA000E5F9B9F1000F07D1206C28B14FF4687220
:103FB00024A129A0FCF7DAF9B8F1020F08D1E06BCF
:103FC000012805D040F2A1321EA123A0FCF7CEF9B2
:103FD000FFF7BAFA5020EFF3118780F31188BFF38F
:103FE0004F8FBFF36F8FA06BE16B884207D3B8F19F
:103FF000020F04D0002087F31188BDE8F08794F900
:104000004560424649462046FEF753FD701C04D0E9
:10401000761C84F845600120EDE7A06C012620B1F4
:1040200041462046FEF770FE06E0606A0028F2D0A6
:1040300004F1240000F06AF90028ECD0002DEAD049
:104040002E60E8E72E2E5C4672656552544F535C35
:1040500071756575652E63004572726F723A2573CE
:104060002C25640D0A00000070B50D46040005D132
:1040700040F6CB3214A119A0FCF778F92DB940F61F
:10408000CC3211A115A0FCF771F9FFF791F9174A8D
:10409000D06829684B1C0FD02368126A934202D063
:1040A000626882420AD96268801A884206D2081A77
:1040B00028602046FFF7FEFB002400E00124FFF704
:1040C000B3F9204670BD00002E2E5C467265655225
:1040D000544F535C7461736B732E63004572726F3F
:1040E000723A25732C25640D0A0000003C00002064
:1040F0002DE9FF5F8346DDE90E87994616468A461D
:104100009000FFF703F805001AD05C20FEF7FEFFD1
:10411000040012D025630021CDE90241CDE90087DA
:104120004B46324651465846FEF73EFD2046FEF7C6
:10413000F3FB012004B0BDE8F09F2846FFF7A6F985
:104140004FF0FF30F6E700000548416919B1006BF8
:1041500018B100207047012070470220704700000E
:104160003C0000200148C068704700003C0000206F
:104170002DE9F0412D4F0026386B40B1B869401C45
:10418000B861F86900B101263046BDE8F081FD68EC
:104190006D1CFD6011D1786B006828B140F6D91212
:1041A00023A128A0FCF7E2F8786BB96B7963B863B8
:1041B000386A401C3862FEF7CDFEB86ADFF894809A
:1041C000854209D3786B006880B1786BC068C46899
:1041D000606885420DD2B8623868C06A00EB800121
:1041E00058F821000128CCD90126CAE74FF0FF304A
:1041F000F1E7201DFFF798F8A06A18B104F1180044
:10420000FFF792F8E06A01213A6981401143396170
:1042100000EB800108EB8100211DFFF7BDF8E06A8B
:104220003968C96A8842CDD30126CBE73C0000201B
:104230002E2E5C4672656552544F535C7461736BED
:10424000732E63004572726F723A25732C25640DCC
:104250000A000000F801002070B504004FF00006CD
:104260003CD01F4D2868844205D040F6C7621DA18E
:1042700021A0FCF77BF8206D28B940F6C96219A18E
:104280001DA0FCF773F8206D401E2065E26CE16A0A
:10429000914223D010BB201DFFF746F81A49012296
:1042A00050B9E06A00EB800351F8233023B92B6941
:1042B00002FA00F083432B61E06CE062C0F1200061
:1042C000A061E06A2B6982401A432A6100EB8000FA
:1042D00001EB8000211DFFF75FF80126304670BD1D
:1042E0003C0000202E2E5C4672656552544F535C94
:1042F0007461736B732E63004572726F723A25732B
:104300002C25640D0A000000F80100202DE9F04181
:10431000C068C4682CB940F6613216A11AA0FCF737
:1043200025F804F118000746FEF7FEFF1A4D286B2A
:10433000012660B139461948FFF72EF8E06A29686E
:10434000C96A884213D90120EE61BDE8F081201DC1
:10435000FEF7EAFFE06A2A6906FA00F111432961D3
:104360000F4900EB800001EB8000211DE4E70020F5
:10437000EBE700002E2E5C4672656552544F535C8D
:104380007461736B732E63004572726F723A25739A
:104390002C25640D0A0000003C000020A004002031
:1043A000F80100202DE9F0472B4D00242746286B0B
:1043B00028B94FF4FD6229A12DA0FBF7D7FFFEF726
:1043C000F7FF286B401E2863286BE8BBA8682C49C0
:1043D0000126C8B3A1F52A798846D8F80010E9B1BA
:1043E000D8F80C00C46804F11800FEF79DFF201DEA
:1043F000FEF79AFFE06A2A6906FA00F11143296183
:1044000000EB800109EB8100211DFEF7C5FFE06A8A
:104410002968C96A8842E0D3EE61DEE70CB1FEF795
:1044200099FDAC693CB1FFF7A3FE00B1EE61641EDB
:10443000F9D10020A861E86930B112490127380795
:104440000860BFF34F8F00E001E0BFF36F8FFEF70E
:10445000EBFF3846BDE8F0873C0000202E2E5C467E
:1044600072656552544F535C7461736B732E6300B5
:104470004572726F723A25732C25640D0A00000094
:10448000A004002004ED00E02DE9F047074699461E
:1044900016460D462C20DDF820A0FEF737FE04005E
:1044A00014D0B8464F46D1462DB94FF4C67209A173
:1044B0000EA0FBF75BFFFEF797FA04F11801C4F8B2
:1044C000008081E8E002201DFEF74BFF2046BDE89A
:1044D000F08700002E2E5C4672656552544F535C87
:1044E00074696D6572732E63000000004572726F0F
:1044F000723A25732C25640D0A0000001CB50024B7
:10450000FEF772FA0C48006868B10B491F20091DBC
:10451000CDE9000100234FF4827208A10948FFF79A
:10452000E7FD040005D140F2331207A10CA0FBF710
:104530001DFF20461CBD000078000020546D722035
:10454000537663006D3000082E2E5C46726565520E
:10455000544F535C74696D6572732E6300000000E4
:104560004572726F723A25732C25640D0A000000A3
:104570002DE9FF47DDF830A0994690460D4606002C
:104580004FF0000705D14FF4D37212A117A0FBF72B
:10459000EDFE1A4C206880B1CDE900580296062D38
:1045A00011DAFFF7D1FD02284FF0000309D00022F5
:1045B00069462068FFF724FC074604B03846BDE88A
:1045C000F0875246F4E700234A466946FFF7DCFCD1
:1045D000F2E700002E2E5C4672656552544F535C24
:1045E00074696D6572732E63000000004572726F0E
:1045F000723A25732C25640D0A0000007800002013
:1046000010B500290AD00878002807D0054878445A
:10461000FCF746FC002801D0002010BD0248784479
:1046200010BD0000DE010000D60100000808A0F562
:1046300000114FEA3101704743004FEAD30C4FEAB3
:104640003C0C43401FBF40070CF1605113F0FE4F7C
:1046500070471CF0006F03D100200CF00041704740
:104660000CF0004343EA507010B540EACC0000F073
:104670000EF800BF000000924FEA0001FFF7D6BF1E
:104680004FF000414FF00000A1F5002170470EF1FE
:10469000020E2EF0030E5EF8044B244204D44FEABF
:1046A0004102B2F17F4F11D84FEA4003B3F17F4F7F
:1046B0000CD80ED14FEAD07CB2F17F4F0CEB4C0CF2
:1046C0000CF1020C08BF4CEBD17C04E04FF0080C5D
:1046D00001E04FEAD17C0CEB4C0324FA03F404F024
:1046E0000704B4F1040C06D20EEB840CBDE81040B4
:1046F0004CF0010C6047DFE80CF0070802024FF0B5
:104700000040A0F5800010BD0846420018BFD2F15D
:10471000807288BF00F0004010BD4FF04070E1EEA5
:10472000100A7047FCF79CB8000000000102030467
:10473000010203040607080902400000000000A06F
:104740000000000005400000000000C8000000005C
:104750000C4000000000409C0000000019400000D8
:104760000020BCBE0000000034400000BFC91B8E0A
:1047700000000004B5400000504BCFD06607E2CFE8
:10478000010000006C4100003E8251AADFEEA73418
:1047900001000000D9420000DCB5A0E23A301F97CA
:1047A000FFFFFFFFB4450000FD25A0C8E9A3C14FEE
:1047B000FFFFFFFFFF3F000000000080000000003F
:1047C000FF3F0000000000800000000008480008D3
:1047D00000000020B0000000E8010008B848000810
:1047E000B0000020B8C20000040200081C00000055
:1047F00043000000F8FFFFFF0C0000000E00000067
:104800000F0000002E00000000000000000000006B
:104810000000000000000000000000000024F40080
:104820000000000000000000010203040607080960
:104830000000000000000000000000000000000078
:104840000000000000000000000000000000000068
:104850000000000000000000000000000000000058
:104860000000000000000000000000000000000048
:104870000000000000000000000000000000000038
:104880000000000000000000000000000000000028
:104890000000000000000000AAAAAAAA0000000070
:1048A0000000000000000000000000000000000008
:0848B000000000000000000000
:04000005080001AD41
:00000001FF
