:020000040800F2
:10000000881B0020190300083D590008AB1E00089A
:100010003B59000839080008E95D000800000000AD
:100020000000000000000000000000006102000865
:100030003B08000800000000B5020008B55A00089F
:1000400033030008330300083303000833030008B8
:1000500033030008330300083303000833030008A8
:100060003303000833030008330300083303000898
:100070003303000833030008330300083303000888
:100080003303000833030008330300083303000878
:100090003303000833030008330300083303000868
:1000A0003303000833030008330300083303000858
:1000B0003303000833030008330300083303000848
:1000C0003303000833030008330300083303000838
:1000D00033030008A55D000833030008330300085C
:1000E0003303000833030008330300083303000818
:1000F0003303000833030008330300083303000808
:1001000033030008330300083303000833030008F7
:1001100033030008330300083303000833030008E7
:1001200033030008330300083303000833030008D7
:1001300033030008330300083303000833030008C7
:1001400033030008330300083303000833030008B7
:1001500033030008330300083303000833030008A7
:100160003303000833030008330300083303000897
:1001700033030008330300083303000800000000C5
:100180003303000833030008330300083303000877
:100190003303000833030008330300083303000867
:1001A00033030008330300083303000800F002F8AB
:1001B00000F047F80AA090E8000C82448344AAF1BA
:1001C0000107DA4501D100F03CF8AFF2090EBAE8B8
:1001D0000F0013F0010F18BFFB1A43F0010318477B
:1001E00078C6000098C60000103A24BF78C878C1CD
:1001F000FAD8520724BF30C830C144BF04680C602D
:10020000704700000023002400250026103A28BF74
:1002100078C1FBD8520728BF30C148BF0B60704778
:10022000642900F00581782900F03E81732900F0EF
:100230006D82002070471FB507F04CFF1FBD10B541
:1002400010BD00F0C6FA1146FFF7F5FF05F02AFED3
:1002500000F0E4FA03B4FFF7F2FF03BC05F0C5FDBC
:100260002A4B19680868B0E8F04F80F30988BFF39B
:100270006F8F4FF0000080F311887047000000007E
:1002800006480068006880F3088862B661B6BFF36C
:100290004F8FBFF36F8F00DF00BF00BF08ED00E09E
:1002A000DFF80C00016841F470010160704700BF85
:1002B00088ED00E0EFF30980BFF36F8F134B1A68EE
:1002C0001EF0100F08BF20ED108A20E9F04F1060DB
:1002D00008B44FF0500080F31188BFF34F8FBFF385
:1002E0006F8F06F097FF4FF0000080F3118808BC75
:1002F00019680868B0E8F04F1EF0100F08BFB0ECA6
:10030000108A80F30988BFF36F8F70477C0000204C
:10031000EFF305807047000009488047094800470F
:10032000FEE7FEE7FEE7FEE7FEE7FEE7FEE7FEE7A5
:10033000FEE7FEE704480549054A064B7047000002
:10034000CD5A0008AD01000888150020881B002048
:100350008817002088170020704700000FB4044958
:1003600010B503AA029800F0D5F910BC5DF814FB93
:10037000680000202DE9F0410E460446002020626E
:100380002046E168884730B3252805D0D4E901210B
:100390009047206A401CF2E7E16820460027884722
:1003A000050018D0A5F14100192802D820354FF4D6
:1003B00000673246294620462760FFF731FF40B1EB
:1003C000012804D0F61D26F007060836D8E7361DAA
:1003D000D6E72846DAE7206ABDE8F08170B50C461A
:1003E0000546012A05D02878800600D5EA69002351
:1003F00002E0012305E05B1C934202D2E05C00288E
:10040000F9D1A869E618C01AA861286A18442862B8
:100410002846AFF3008004E0D5E9012114F8010B70
:100420009047B442F8D32846AFF3008070BD000077
:100430002DE9F0410646002410687529314616A5BD
:1004400010D0AFF30080002802DA404213A507E085
:1004500031688A0701D512A502E0490704D511A524
:10046000012401E0AFF3008000210A2206F12407F5
:1004700009E0B0FBF2FCB0FBF2F302FB1C003030F1
:1004800078541846491C0028F3D123462A463046A2
:10049000BDE8F04100F0B7B8000000002D000000FA
:1004A0002B0000002000000070B504460D462146D8
:1004B0001068AFF300802188090502D50F4A7A44FD
:1004C00002E00E4A7A440E32002104F1240305E0D2
:1004D00000F00F060009965D5E54491C0028F7D114
:1004E00020780023000704D5702D02D009B1022323
:1004F00011322046BDE8704000F085B86CC30000A2
:10050000032A40F2308010F0030C00F0158011F83F
:10051000013BBCF1020F624498BF11F801CB00F817
:10052000013B38BF11F8013BA2F1040298BF00F86B
:1005300001CB38BF00F8013B11F0030300F0258028
:10054000083AC0F0088051F8043B083A51F804CB4F
:10055000A0E80810F5E7121D5CBF51F8043B40F815
:10056000043BAFF30080D20724BF11F8013B11F820
:1005700001CB48BF11F8012B24BF00F8013B00F864
:1005800001CB48BF00F8012B704710B5203AC0F0EE
:100590000B80B1E81850203AA0E81850B1E8185084
:1005A000A0E81850BFF4F5AF5FEA027C24BFB1E8C1
:1005B0001850A0E8185044BF18C918C0BDE8104032
:1005C0005FEA827C24BF51F8043B40F8043B08BF3B
:1005D0007047D20728BF31F8023B48BF11F8012B02
:1005E00028BF20F8023B48BF00F8012B704702F0FB
:1005F000FF0343EA032242EA024200F09FB8704739
:100600007047704770472DE9F0470D46994692466E
:10061000044600F124080168880604D5E06921F049
:100620001001216000E00120A84201DD471B00E02D
:100630000027A1697A1902EB0900081AA061207845
:10064000C00602D42046AFF30080002608E0D4E9BB
:1006500001211AF806009047206A401C761C20628F
:100660004E45F4DB2078C0060AD52046AFF3008063
:1006700006E0D4E9012130209047206A401C206226
:10068000381EA7F10107F4DC07E0D4E9012118F8CE
:1006900005009047206A401C2062281EA5F1010534
:1006A000F3DC2046AFF300802078000602D502205C
:1006B000BDE8F0870120FBE701694A1C0261087868
:1006C000704700B58FB0CDE9013100210591054992
:1006D0007944CDE9031011466846FFF74BFE0FB091
:1006E00000BD0000E5FFFFFF10B5436913B1AFF394
:1006F000008001E0FFF772FE012010BD127800F1CA
:1007000024010A7000224A700122EDE711684FF0BF
:10071000FF32E9E7074B70B50D467B44FFF7D1FF89
:100720000446284600F02AF810B14FF0FF3070BDA3
:10073000204670BD735700004FF000020429C0F03E
:10074000128010F0030C00F01F80CCF1040CBCF1FF
:10075000020F18BF00F8012BA8BF20F8022BA1EB55
:100760000C0100F011B85FEAC17C24BF00F8012B36
:1007700000F8012B48BF00F8012B7047007B00F008
:10078000800070474FF0000200B51346944696462D
:10079000203922BFA0E80C50A0E80C50B1F1200194
:1007A000BFF4F7AF090728BFA0E80C5048BF0CC042
:1007B0005DF804EB890028BF40F8042B08BF7047A0
:1007C00048BF20F8022B11F0804F18BF00F8012B12
:1007D0007047754600F02CF8AE4605006946534652
:1007E00020F00700854618B020B5FFF7A3FDBDE84F
:1007F00020404FF000064FF000074FF000084FF088
:10080000000B21F00701AC46ACE8C009ACE8C00918
:10081000ACE8C009ACE8C0098D46704710B5044685
:10082000AFF300802046BDE81040FFF713BD000085
:100830000048704728150020FEE7704770B5B3F5F3
:10084000804F05D06FF0704140F82210002070BD3D
:1008500050F82230084C2340D1E9004544EA051401
:100860008D688E892D0245EA064589692C430C4323
:100870001C4340F82240E9E70000F0CFF0B50C68D7
:1008800050F82450194A1540D1E90123D1E90367F2
:100890001A433E4332434E6932438E693243CE6936
:1008A00032430E6A32434E6A32438E6A3243CE6A14
:1008B0003243CE6B32430E6B32434E6B32432A438C
:1008C000082B01D142F0400240F824204A6BB2F5D7
:1008D000801F08D10A6832B14FF480720A6104495E
:1008E0000268114301600020F0BD00008000E0FFBD
:1008F00000011000F0B500EB820253688E8903F00E
:100900004044D1E9003543EA05138D682D0245EADC
:1009100006452B430E8A0D4D05EB065633430E7DDF
:100920006F0107EB066633438E69334323435360FD
:100930000268D20207D54268098A22F4700205EBE8
:100940000151114341600020F0BD00000000F0FFA4
:1009500030B5D1E901231A43D1E9033423431A43C3
:100960004B690D681A438B691A43D1E90734012D8D
:10097000496A05686FF30E0505D01A4322430A43FE
:100980002A43026008E0234329430B434168036084
:100990006FF30E010A434260002030BD426942EA13
:1009A0004101416100207047F8B514460546D1E980
:1009B000000210438A686FF01F03C96803EB4212FC
:1009C00042EA412108430090286100F047F90646B9
:1009D00009E0601C07D024B100F040F9801BA04260
:1009E00001D90320F8BDA8698006F2D40020F8BD23
:1009F000F0B56FF00F05D1E9003405EB04145B1E70
:100A00002E0123438C682F0306EB04244FEA054C88
:100A100023430D8A8E8ACC68097E4FF07F4E07EB08
:100A200005450CEB06560EEB0161012A0CD08268DD
:100A30003F1107EB043423432B43334302F070424E
:100A40000B43134383600FE0C2682B430B4302F058
:100A500070428168134301F070422103A1F5805177
:100A600031431143C36081600020F0BD2DE9F84F90
:100A7000DFF8A091002209F1040A0AF1040B4FF0FB
:100A80000F080BF1040E01260B6896403340B34269
:100A900071D14C68022C01D0122C11D1D40800EB7A
:100AA00084073D6A5407E40E08FA04FC25EA0C05A5
:100AB000D1F810C00CFA04FC4CEA050CC7F820C0B1
:100AC00007685400032591F804C0A5400CF0030CFE
:100AD000AF430CFA04FC4CEA070CC0F800C04F68A6
:100AE000012F05D0022F03D0112F01D0122F11D1C9
:100AF0008768D1F80CC0AF430CFA04FC4CEA070C31
:100B0000C0F808C04768B7430E79C6F30016964090
:100B10003E434660C668AE438D68A5403543C56018
:100B20004C68E4006FD53C4C256845F48045256051
:100B3000246822F0030504F480440094374C2E19F5
:100B4000D6F808789407250F08FA05F4A743344C23
:100B5000A04201D100242EE0324CA04201D1012458
:100B600029E0314CA04201D1022424E02F4CA042C4
:100B700002D103241FE046E02D4CA04201D1042401
:100B800019E02C4CA04201D1052414E02A4CA042CB
:100B900001D106240FE0294CA04201D107240AE02C
:100BA000274CA04201D1082405E0264CA04201D1E7
:100BB000092400E00A24AC403C43C6F80848D9F8B0
:100BC00000404D464E689C43F60300D51C432C6004
:100BD000DAF8004055464E689C43B60300D51C43E6
:100BE0002C60DBF800405D464E689C43F60200D561
:100BF0001C432C60DEF8004075464E689C43B602EC
:100C000000D51C432C60521C102AFFF43CAFBDE8F9
:100C1000F88F0000003C01404438024000300140A1
:100C2000000002400004024000080240000C0240A4
:100C3000001002400014024000180240001C024054
:100C400000200240002402400069084000D001203A
:100C500070470AB1816170470904FBE701480068E9
:100C6000704700005800002002480168491C0160DC
:100C700070470000580000200B4810B5016841F48F
:100C800000710160016841F480610160016841F414
:100C900080710160032000F0BFF90F2000F006F81A
:100CA00000F08AF9002010BD003C024010B5044657
:100CB00000F060FC4FF47A71B0FBF1F000F094FFAB
:100CC00000222146501E00F087F9002010BD2DE9BA
:100CD000F041044690F8A00015460F4601281DD0AB
:100CE000012684F8A060022084F8A10005EB8500AD
:100CF00000EBC50004EB800034223830FFF745FCE0
:100D00002A463946204604F067FD2068466284F88A
:100D1000A160002084F8A000BDE8F0810220FBE77C
:100D200070B5040004D094F8A100002510B106E0CD
:100D3000012070BD84F8A050204600F06FF802201A
:100D400084F8A1002068816921F070418161D4E9B3
:100D500001100143D4E90302104301432068826972
:100D600011438161206882682B490A408260A08A11
:100D7000020420688368A6693343134383602068B4
:100D8000C2680A40C260A08B02042068C368266A59
:100D900033431343C360206802690A400261A08C98
:100DA000020420680369A66A334313430361206881
:100DB00042690A404261A08D010420684269236BA8
:100DC0001A430A43426194F83500020294F836004F
:100DD00001042068C36A03F07F43C3622068C36ACA
:100DE00094F83460114333430B43C3622068416B72
:100DF00041F0040141632068416B41F0020141630D
:100E00002068816941F001018161C4F8A45001208A
:100E100084F8A100002070BD00F800F030B536481D
:100E200087B00025016841F080610160006800F032
:100E30008060059030481438016841F40001016079
:100E4000016801F400010591016841F002010160AF
:100E5000016801F002010591016841F02001016083
:100E6000016801F020010591016841F04001016035
:100E7000016801F040010591016841F080010160C5
:100E8000016801F080010591016841F48071016001
:100E90000068032400F48070059020200090012059
:100EA000CDE90204019069461448FFF7DFFD4FF4D5
:100EB000806000900220CDE901050E20CDE90340BD
:100EC00069460F48FFF7D2FD4FF40C600090694669
:100ED0000C48FFF7CBFD4FF47E40009069460A486E
:100EE000FFF7C4FD40F2F760009069460748FFF73E
:100EF000BDFD07B030BD0000443802400004024090
:100F00000014024000180240001C02400020024071
:100F100070B5044690F8A0000E46012820D00125A7
:100F200084F8A050022084F8A10003EB830000EBBA
:100F3000C30004EB800141F8386F886A3044C1E98E
:100F40000102C86A1044C8601A46204604F044FCF6
:100F50002068456284F8A150002084F8A00070BD8C
:100F6000022070BD2DE9F041044690F8A0000F4624
:100F700001281FD0012584F8A050022084F8A10088
:100F800003EB830000EBC30004EB80010026E1E9E2
:100F90000E672046C1E90262C1E90A721A4604F0EE
:100FA0001BFC2068456284F8A15084F8A0600020F2
:100FB000BDE8F0810220FBE708B50020009008BDE5
:100FC00000F01F02012191404009800000F1E02063
:100FD000C0F8001170470000F0B40E4B1B68C3F35B
:100FE0000223C3F10704042C00D904241D1D072D7E
:100FF00001D2002300E0DB1E012606FA04F56D1E77
:101000000D409D409E40761E164045EA0601F0BC0C
:1010100004F095BC0CED00E0064A00F007011068F2
:101020004FF6FF03184040EA0120034908431060CF
:10103000704700000CED00E00000FA052DE9F843D0
:101040001D48016841F0805101600068012700F0EF
:1010500080500090380490FAA0F0DFF86080B0FA79
:1010600080F048F82070FFF7F9FD04464FF47A75D8
:10107000134E04E0FFF7F2FD001BA84213D870687E
:10108000C003F7D54FF4003090FAA0F0B0FA80F02A
:1010900048F82070FFF7E2FD044607E0FFF7DEFDA9
:1010A000001BA84202D90320BDE8F88370688003C2
:1010B000F4D50020F8E700004038024000000E425E
:1010C000007000402DE9F84F04460068DFF8788290
:1010D0009E4DC10747F6C07A4FF0E0464FF0010B36
:1010E0004FF0000901D180074BD59949C1F86890AC
:1010F000FFF7B4FD074604E0FFF7B0FDC01B64280E
:101100007ED828680001F7D420789249C0070DD016
:101110009AFAAAF26068B2FA82F2904096FAA6F3BE
:10112000A268B3FA83F39A401043086020788007DE
:1011300018D5086896FAA6F200F0E040B2FA82F2FA
:10114000D0406268237B920142EA036242EA007067
:101150000860D8F80010E26921F01F01521E114307
:10116000C8F800107A49C1F868B0FFF777FD074664
:1011700004E0FFF773FDC01B642841D82868000114
:10118000F7D52068410701D4000776D57049C1F82A
:101190007090FFF763FD074604E0FFF75FFDC01B9B
:1011A00064282DD82868C0438000F6D520786A4F7F
:1011B00040074FF0706C29D5386896FAA6F100F018
:1011C000E040B1FA81F1C8409AFAAAF22169B2FA74
:1011D00082F291409CFAACF36269B3FA83F39A40CD
:1011E000114396FAA6F2B2FA82F2904001433960B6
:1011F000D8F800106FF0FF0321F4F851226A00E0E4
:1012000079E003EB02221143C8F8001020780007B0
:1012100023D538689CFAACF100F07060B1FA81F126
:10122000C8409AFAAAF22169B2FA82F291409CFA75
:10123000ACF2B2FA82F29040014396FAA6F2A069AB
:10124000B2FA82F2904001433960D8F80010626A25
:1012500021F440311143C8F800103D49C1F870B085
:10126000FFF7FCFC064604E0FFF7F8FC801B64284F
:1012700041D82868C0438000F6D42078800651D534
:1012800032484F464030016841F0805101600068AB
:10129000324E00F080500090306840F48070306032
:1012A000FFF7DCFC054604E0FFF7D8FC401B642890
:1012B00021D83068C005F7D5264E143E3068218D00
:1012C00000F4407001F4407188422BD0306824490A
:1012D00020F44070C1F800B00F603060800710D576
:1012E000FFF7BCFC054641F2883707E0FFF7B6FC84
:1012F000401BB84202D90320BDE8F88F3068800750
:10130000F4D5A06A1149C0F301220831032A13D091
:10131000086820F4F81008603068218DC1F30B01D3
:10132000084330602078C00604D50E4994F82C009C
:10133000C1F8E0010020DFE70A680B4B22F4F81245
:10134000184002430A60E7E78C3802400038024048
:101350000000474284380240883802400070004054
:10136000400E474200104742FFFCFF0F2DE9F05F9F
:10137000DFF8F8A104460F46DAF80000DFF8F08144
:1013800000F00F02C8B27A49814641F2883608F16E
:101390000808BA4261D202468AF80020DAF8000052
:1013A00000F00F00B8427DD12078800707D5D8F82B
:1013B0000020A36822F0F0021A43C8F80020207829
:1013C000C0072DD0606801281AD002281BD003283E
:1013D00019D009688907002964DAD8F8001047464F
:1013E00021F003010143C8F80010FFF737FC054660
:1013F000606801280FD0022818D003281CD027E0ED
:1014000009688903E7E709688901E4E7FFF726FC33
:10141000401BB04258D83868C0F381000128F5D18C
:1014200088E0FFF71BFC401BB0424DD83868C0F382
:1014300081000228F5D17DE03868FFF70FFC401BE2
:10144000B042F9D940E0FFF709FC401BB0423BD85D
:10145000386810F00C0FF6D16CE02078800707D5C3
:10146000D8F80020A36822F0F0021A43C8F8002040
:101470002078C0074CD06068012828D0022829D0E5
:10148000032827D009688907002949DAD8F80020FD
:1014900022F003020243C8F80020FFF7DFFB0546F5
:1014A000606800E03CE001281DD0022829D0032814
:1014B00038D0B3464646306810F00C0F28D0FFF7FE
:1014C000CDFB411B5945F6D90320BDE8F09F0968C3
:1014D0008903D9E709688901D6E7FFF7BFFB411BFC
:1014E000594502D9F0E7B34646463068C0F381005B
:1014F0000128F2D10CE0FFF7B1FB411B594502D99D
:10150000E2E7B34646463068C0F381000228F2D1D4
:101510008AF80090DAF8000000F00F00B84209D015
:101520000120D2E744462068FFF798FB401BB042F9
:10153000F9D9C9E72078400707D5D8F80010E26844
:1015400021F4E0511143C8F800102078000708D5B5
:10155000D8F80010226921F4604141EAC201C8F8BC
:1015600000100F20FFF7A2FB0020AEE7003C024076
:101570000038024010B500F043F808490968F0222D
:1015800092FAA2F201F0F001B2FA82F2D140044ADA
:10159000515CC8400349086010BD00000838024093
:1015A000DE8000084400002010B5FFF7E3FF074984
:1015B00009684FF4E05292FAA2F201F4E051B2FA53
:1015C00082F2D140024A515CC84010BD0838024046
:1015D000DE80000810B5FFF7CDFF074909684FF41A
:1015E000604292FAA2F201F46041B2FA82F2D14072
:1015F000024A515CC84010BD08380240DE80000835
:1016000030B51948006810F00C01184812D0184C79
:1016100004290ED008290DD1134A121F116813682E
:1016200001F03F015D0247F6C07304D5B4FBF1F051
:1016300003E0204630BDB0FBF1F01168194093FA89
:10164000A3F3B3FA83F3D940484311684FF440320F
:1016500092FAA2F201F44031B2FA82F2D140491C6E
:101660004900B0FBF1F030BD083802400024F4001E
:1016700040787D012DE9F84F04460078DFF8FCA2A0
:10168000BF4DC0074FF0000648D0DAF800105046B2
:10169000C1F38101012908D00068C0F3810002284C
:1016A0000AD1281D0068400206D52868800335D578
:1016B0006068002873D031E0DFF8C49209F10209B4
:1016C00089F80060FFF7CAFA074641F2883804E05B
:1016D000FFF7C4FAC11B41457AD828688003F7D4C4
:1016E000207989F80000606860B1FFF7B7FA074613
:1016F00004E0FFF7B3FAC11B4145EDD82868800329
:10170000F7D50BE0FFF7AAFA074604E0FFF7A6FAC1
:10171000C11B4145E0D828688003F7D42078DFF862
:101720006492800744D5DAF80010504611F00C0F8F
:101730004FF0F80809D00068C0F3810002280BD1EF
:101740008E48001F0068400206D42868800714D520
:10175000E068012823D110E0E068D0B10120C9F889
:101760000000FFF77BFA074604E0FFF777FAC01B9B
:101770006428B1D828688007F7D5286898FAA8F2B5
:101780002169B2FA82F220F0F80091400843286003
:101790000EE0C9F80060FFF761FA074605E0EAE0ED
:1017A000FFF75CFAC01B642812D828688007F7D4BA
:1017B0002078000725D5DFF8C4817348616908F1F6
:1017C0006C0881B101210160FFF748FA074605E086
:1017D0007EE0FFF743FAC01B642879D8D8F80000F0
:1017E0008007F6D50DE00660FFF738FA074604E0FB
:1017F000FFF734FAC01B64286AD8D8F800008007C5
:10180000F6D42078400753D55C483830016841F061
:10181000805101600068DFF8748100F08050009012
:10182000D8F8001041F48071C8F80010FFF716FADC
:10183000074604E0FFF712FAC01B642848D8D8F81E
:101840000000C005F6D5DFF834B10BF1680B8BF85A
:101850000060FFF703FA074641F2883804E0FFF71B
:10186000FDF9C11B41457ED8DBF800008007F6D4A6
:10187000207A8BF80000A06868B1FFF7EFF90746FF
:1018800004E0FFF7EBF9C11B41456CD8DBF8000021
:101890008007F6D50CE0FFF7E1F9074604E0FFF713
:1018A000DDF9C11B41455ED8DBF800008007F6D4A6
:1018B000A069E8B3DAF80010C1F3810102295AD017
:1018C000022806D0C9F86060FFF7C8F904464DE069
:1018D00049E04F46C9F86060FFF7C0F9064604E0EA
:1018E000FFF7BCF9801B64283DD828688001F7D435
:1018F000D4E90701084347F6C07191FAA1F1626A81
:10190000B1FA81F18A40A16A4FF0FF3303EB510134
:101910004FF4403393FAA3F3B3FA83F399400A43A5
:1019200010434FF0706292FAA2F2B2FA82F200E033
:101930001FE0E16A914008431049091F0860012037
:101940003866FFF78BF9044604E0FFF787F9001BC0
:10195000642808D828688001F7D50AE0FFF77EF9E7
:10196000001B642802D90320BDE8F88F2868800195
:10197000F4D40020F8E70120F6E700000838024020
:101980000038024000004742800E4742007000408D
:1019900070B50D46040003D094F82C0010B107E098
:1019A000012070BD002084F82D00204600F012F8C0
:1019B000022084F82C00211D2068FEF7C9FFD4E91D
:1019C00000022946FFF714F8012084F82C000020BB
:1019D00070BD0000304800B5016887B041F00101DA
:1019E0000160006800F0010005902B48083801688C
:1019F00041F004010160016801F0040105910168F2
:101A000041F008010160016801F0080105910168D9
:101A100041F010010160016801F0100105910168B9
:101A200041F020010160016801F020010591016889
:101A300041F0400101600068694600F040000590F7
:101A40000D200090022001900120029003200390BD
:101A50000C2004901148FFF709F84CF20370009035
:101A600069460F48FFF702F84FF683700090694609
:101A70000C48FEF7FBFF4FF63F00009069460A480E
:101A8000FEF7F4FF48F23710009069460748FEF76A
:101A9000EDFF07B000BD00003838024000080240EA
:101AA000000C0240001002400014024000180240E6
:101AB00010B5044690F82C00022809D0022084F8C2
:101AC0002C002068FEF76AFF012084F82C0000201B
:101AD00010BD70B5044690F82C000D4602280CD0BD
:101AE000022084F82C002068FEF75EFF2868022898
:101AF00004D0012084F82C00002070BD0520F9E7F7
:101B000070B515460E46040003D094F8490010B194
:101B100007E0012070BD002084F84800204600F056
:101B20001BF804F108012068FEF7A8FE3146A26800
:101B30002068FEF7DFFED4E901022946236BFEF799
:101B40007DFEA168206850F8212042F0010240F893
:101B50002120002070BD00001A4800B5016887B040
:101B600041F001010160006800F001000590154896
:101B70000838016841F008010160016801F00801BE
:101B80000591016841F0100101600068694600F0AC
:101B9000100005904EF2B3700090022001900120D9
:101BA0000290032003900C2004900748FEF75EFF8C
:101BB0004FF68070009069460448FEF757FF07B063
:101BC00000BD000038380240000C02400010024006
:101BD0004FF0E0210428086903D020F004000861D8
:101BE000704740F00400FAE710B5401EB0F1807F66
:101BF00001D3012010BD4FF0E02460610F21601778
:101C000003F09DFE0020A06107202061002010BD90
:101C1000704790F83900704738B501680446086885
:101C2000CA68C0F3000002F4807238B132B10868AB
:101C300048680090E06B40F00100E06308684A6982
:101C4000C0F3400002F0010238B132B108684868C0
:101C50000090E06B40F00400E06308684A69C0F35C
:101C6000800002F0010238B132B108684868009083
:101C7000E06B40F00200E06308684A69C0F3C0000E
:101C800002F0010238B132B1086848680090E06B98
:101C900040F00800E0630868C968C0F3401001F034
:101CA000200118B111B1204603F03AFF2068016805
:101CB000C068C1F3C01100F0800019B110B1204616
:101CC00004F03CF821680868CA68C0F3801002F08C
:101CD0004002012568B162B1CA68204622F0400284
:101CE000CA6094F8391032290CD080F8395000F0CD
:101CF000DBF8E06B002804D084F839502046FFF769
:101D000087FF38BD222180F83910F0E770B5040054
:101D100004D094F83900002510B106E0012070BD10
:101D200084F83850204600F021F8022084F8390069
:101D30002068C16821F40051C160204603F044FFCF
:101D40002068016921F4904101612068416921F016
:101D50002A0141612068C16841F40051C160E56316
:101D6000012084F83900002070BD000010B5006823
:101D70001A4986B088422FD11948016841F0010103
:101D80000160006800F001000590154814300168FA
:101D900041F0100101600068012100F01000059081
:101DA0004FF4007000900220CDE90101039007205C
:101DB0000C4C049069462046FEF758FE2115009110
:101DC00069462046FEF752FE2520FFF7F9F8032268
:101DD00011462520FFF700F906B010BD00100140A4
:101DE000303802400000024090F83930012B01D019
:101DF000122B2BD131B32AB390F83830012B25D0D8
:101E0000012380F8383081628285C2850022C26356
:101E100090F83910122917D0222180F83910016862
:101E2000CB6843F48073CB6001684B6943F00103D6
:101E30004B6180F838200068C16841F02001C16022
:101E400000207047012070473221E6E702207047EA
:101E500030B50068114988420CD1114A50880104FC
:101E600008D41146440409784FF0000306D50A2926
:101E700001D0538030BD40F400400DE00D2909D061
:101E8000C0F30D04074D401C80B229555080C7286F
:101E9000EFD830BD40F48040508030BD001001408C
:101EA00064000020D40E00207047FEE770B51B4888
:101EB00086B00025016841F001010160016801F070
:101EC00001010591016841F004010160016801F020
:101ED00004010591016841F080010160006803245C
:101EE00000F08000059002200126CDE90204CDE932
:101EF000006569460A48FEF7B9FD700303948DE852
:101F0000610069460748FEF7B1FD0C200090694664
:101F10000548FEF7ABFD06B070BD0000303802404A
:101F20000000024000080240001C024070B50E494B
:101F30000E4A064608881268002422B13046BDE8E1
:101F4000704003F0FDB94D8800214543084603F079
:101F500053F803F0BDF9B1B2054801E00180641CFB
:101F6000AC42FBD370BD00002C100020E410002018
:101F7000000008602DE9F05F3E4C3F4DA0712968DC
:101F800039B103F0FDF9E88A2080288B6080BDE834
:101F9000F09F38492C252B2689884FF0F00845F210
:101FA00010594FF4305A4FF4285B4FF42C5E2A2717
:101FB0004FF448734FF4A07C4FF4F07260B1A4F872
:101FC00000C0A4F80280494532D1A4F808A0A4F8C2
:101FD0000AB0A4F80CE042E0A4F80080A4F802C023
:101FE000494506D1A4F808A0A4F80AB0A4F80CE06A
:101FF00011E0A1F5C850633825810AD06781A68118
:10200000A1F5A640103809D0A1F5EE40963805D0CC
:1020100007E06681A78122806380F1E7A4F800C011
:102020006280A1F5184006381FD1228063801CE031
:10203000A1F5C85063380FD0A1F5184006380BD071
:1020400025816781A681A1F5A64010380AD0A1F5A7
:10205000EE40963806D008E025816781A68123806E
:102060006280F0E72280A4F802C0BDE8F05F0020A3
:1020700002F0F0BE2C100020E41000202DE9FE4FED
:102080000026A2EB000882465F1A701E354689467C
:10209000B8F1000F02DD4FF0010102E003D14FF073
:1020A0000001019102E0C8F100080190002F02DD5B
:1020B0004FF0010002E003D14FF00000009002E079
:1020C000C7F1000700904046B84501DD044600E036
:1020D0003C46601C4FF0000B029015E01FFA89F19E
:1020E0001FFA8AF000F016F846443D44A64202DD8D
:1020F0000199361B8A44A54202DD00992D1B8944B3
:102100000BF101001FFA80FB02998B45E6DDBDE86B
:10211000FE8F000010B5084A084C126822B12268F0
:10212000BDE8104003F040B902F066FF03F0D0F8BC
:1021300003492088088010BDE41000206C000020B6
:10214000000008602DE9F0411C4615460E46074682
:102150000B46FFF793FF3A46234631461046FFF7FA
:102160008DFF23462A4619463846FFF787FF2A4641
:1021700023463146BDE8F0411046FFF77FBF00001F
:102180002DE9F041044634480D46006820B1204650
:10219000BDE8F04103F008B9304E270A3046B18857
:1021A0004089A1F5AA434FEA1528103B0FD0A1F5AD
:1021B000C853633B24D003F07FF8384603F070F82F
:1021C000E0B203F06DF8B08903F076F836E003F082
:1021D00073F8384603F064F87089401C80B203F04D
:1021E0006BF8E0B203F05CF8B08903F065F84046A4
:1021F00003F056F8B089401C80B203F05DF820E08F
:10220000B17919B93188091B491E8CB203F054F811
:10221000270A384603F044F8E0B203F041F83846A4
:1022200003F03EF8E0B203F03BF8B08903F044F865
:10223000404603F035F8E8B203F032F8404603F0C8
:102240002FF8E8B203F02CF8054930890880881C83
:102250000280BDE8F0810000E41000202C10002076
:10226000FEFF07602DE9F8431F46144B804608988F
:102270001B6833B100903B46404603F0B3F8BDE81D
:10228000F883A2EB0802521C96B20C4685B2DFF826
:1022900030900FE02146404602F0AEFE03F018F801
:1022A0000020494602E00D80401C80B2B042FAD3C3
:1022B000641CA4B2BC42EDD9E1E70000E4100020A8
:1022C000000008602DE9F04F95B003F029FAF84CB2
:1022D00047F2897545F21036A08045F2105947F251
:1022E000967849F6060A41F6631B18B103F0D4F854
:1022F00002F03BBDEF480027016841F00201016098
:10230000006810A900F00200009020201090012029
:102310001190129003201390E748FEF7A7FBE448C2
:102320004FF02041503802AA0160E449C0E901178A
:102330001021C760C0E9047187610902C761C0E963
:1023400009718900C0E90B7189014763C0E90E7109
:1023500046210B910F20CDE90907CDE90207049032
:10236000D3480F9709A908975038FFF7C9FB3220C7
:1023700003F058FDD32002F09FFF02F039FDA0804A
:1023800002F036FDA08002F033FD4FF6FF7707EA3A
:102390000020A08002F02CFDA1880843A0F5134185
:1023A000A08041397DD0042002F086FF02F020FD9C
:1023B000A08002F01DFDA08002F01AFD07EA0020B7
:1023C000A08002F015FDA1880843A0F50541A0807A
:1023D000523967D0A84264D0D42002F06DFF02F0D9
:1023E00007FDA08002F004FDA08002F001FD07EAD5
:1023F0000020A08002F0FCFCA1880843A080B0422D
:1024000076D0D32002F058FF02F0F2FCA08002F058
:10241000EFFCA08002F0ECFC07EA0020A08002F0B4
:10242000E7FCA1880843A080404561D055214FF4C6
:10243000704002F057FFAA214FF2010002F052FF54
:1024400052214FF2020002F04DFF08214FF203002B
:1024500002F048FF01214FF2040002F043FF4FF465
:10246000454002F029FF02F0C3FC07EA0020A080EB
:102470004CF2015002F020FF02F0BAFCA1880843A0
:10248000A080052003F0CEFCA188494530D0D320A0
:1024900002F012FF02F0ACFCA08002F0A9FCA080C8
:1024A00001E020E020E002F0A3FC07EA0020A08089
:1024B00002F09EFCA1880843A080504518D0A120BE
:1024C00002F0FAFE02F094FCA08002F091FC07EA10
:1024D0000020A08002F08CFCA1880843A0F5AE414A
:1024E000A080613902D003E0A58001E0A4F804B027
:1024F000A18873A0FDF732FFA088A0F513414139F0
:102500007ED0A8427DD1112002F0D6FE782003F0C3
:1025100089FC362002F0D0FE002002F0C1FE3A20F5
:1025200002F0CAFE052002F0BBFEB22002F0C4FE9B
:102530000C2002F0B5FE0C2002F0B2FE002002F0EA
:10254000AFFE332002F0ACFE332002F0A9FEB7202C
:1025500002F0B2FE352002F0A3FEBB2002F0ACFE7A
:10256000322002F09DFEC02002F0A6FE0C2002F0F8
:1025700097FEC22002F0A0FE012002F091FEC320CF
:1025800002F09AFE102002F08BFEC42002F094FEAE
:10259000202002F085FEC62002F08EFE0F2002F001
:1025A0007FFED02002F088FEA42002F079FEA12058
:1025B00002F076FEE02002F07FFED02002F070FEF6
:1025C000002002F06DFE022002F06AFE072002F0F9
:1025D00067FE0A2002F064FE282002F061FE32202D
:1025E00002F05EFE442002F05BFE422002F058FE44
:1025F000062002F055FE0E2002F052FE122001E0ED
:1026000066E077E102F04CFE142002F049FE17204C
:1026100002F046FEE12002F04FFED02002F040FE24
:10262000002002F03DFE022002F03AFE072002F0F8
:1026300037FE0A2002F034FE282002F031FE31205D
:1026400002F02EFE542002F02BFE472002F028FE5E
:102650000E2002F025FE1C2002F022FE172002F0C0
:102660001FFE1B2002F01CFE1E2002F019FE2A2075
:1026700002F022FE002002F013FE002002F010FE05
:10268000002002F00DFEEF2002F00AFE2B2002F0E7
:1026900013FE002002F004FE002002F001FE0120E3
:1026A00002F0FEFD3F2002F0FBFD292002F0A0BA5F
:1026B0002C1000203038024000040240040100A029
:1026C000204C43442049443A25780D0A000000007C
:1026D000CF2002F0F1FD002002F0E2FDC12002F067
:1026E000DFFD302002F0DCFDED2002F0E5FD64208E
:1026F00002F0D6FD032002F0D3FD122002F0D0FD3F
:10270000812002F0CDFDE82002F0D6FD852002F008
:10271000C7FD102002F0C4FD7A2002F0C1FDCB20DD
:1027200002F0CAFD392002F0BBFD2C2002F0B8FDFA
:10273000002002F0B5FD342002F0B2FD022002F0CC
:10274000AFFDF72002F0B8FD202002F0A9FDEA203D
:1027500002F0B2FD002002F0A3FD002002F0A0FD77
:10276000C02002F0A9FD1B2002F09AFDC12002F05A
:10277000A3FD012002F094FDC52002F09DFD302054
:1027800002F08EFD302002F08BFDC72002F094FD98
:10279000B72002F085FD362002F08EFD482002F0C1
:1027A0007FFD3A2002F088FD552002F079FDB1202E
:1027B00002F082FD002002F073FD1A2002F070FD8D
:1027C000B62002F079FD0A2002F06AFDA22002F094
:1027D00067FDF22002F070FD002002F061FD26206E
:1027E00002F06AFD012002F05BFDE02002F064FDD2
:1027F0000F2002F055FD2A2002F052FD282002F0A1
:102800004FFD082002F04CFD0E2002F049FD08208B
:1028100002F046FD542002F043FDA92002F040FDE5
:10282000432002F03DFD0A2002F03AFD0F2002F0A5
:1028300037FD002002F034FD002002F031FD0020C1
:1028400002F02EFD002002F02BFDE12002F034FD0D
:10285000002002F025FD152002F022FD172002F0D5
:102860001FFD072002F01CFD112002F019FD0620BB
:1028700002F016FD2B2002F013FD562002F010FD91
:102880003C2002F00DFD052002F00AFD102002F0B0
:1028900007FD0F2002F004FD3F2002F001FD3F2064
:1028A00002F0FEFC0F2002F0FBFC2B2002F004FDE6
:1028B000002002F0F5FC002002F0F2FC012002F002
:1028C000EFFC3F2002F0ECFC2A2002F0F5FC002097
:1028D00002F0E6FC002002F0E3FC002002F0E0FC45
:1028E000EF2002F0DDFC112002F0E6FC782003F07E
:1028F00099FADAE6B0427CD1ED2002F0DDFC01204D
:1029000002F0CEFCFE2002F0CBFCEE2002F0D4FC64
:10291000DE2002F0C5FC212002F0C2FCF12002F012
:10292000CBFC012002F0BCFCDF2002F0C5FC102033
:1029300002F0B6FCC42002F0BFFC8F2002F0B0FC15
:10294000C62002F0B9FC002002F0AAFCE22002F04E
:10295000A7FCE22002F0A4FCE22002F0A1FCBF20D0
:1029600002F0AAFCAA2002F09BFCB02002F0A4FC1A
:102970000D2002F095FC002002F092FC0D2002F0E8
:102980008FFC002002F08CFC112002F089FC00205A
:1029900002F086FC192002F083FC002002F080FC8B
:1029A000212002F07DFC002002F07AFC2D2002F0B4
:1029B00077FC002002F074FC3D2002F071FC002046
:1029C00002F06EFC5D2002F06BFC002002F068FC5F
:1029D0005D2002F065FC002002F062FCB12002F0F4
:1029E0006BFC802002F05CFC002002F059FC8B2084
:1029F00000E0FCE302F054FC002002F051FC9620C1
:102A000002F04EFC002002F04BFCB22002F054FC1D
:102A1000002002F045FC002002F042FC022002F0FF
:102A20003FFC002002F03CFC032002F039FC0020B7
:102A300002F036FCB32002F03FFC002002F030FC34
:102A4000002002F02DFC002002F02AFC002002F001
:102A500027FC002002F024FC002002F021FC0020D2
:102A600002F01EFC002002F01BFC002002F018FC0B
:102A7000002002F015FC002002F012FC002002F001
:102A80000FFC002002F00CFC002002F009FC0020EA
:102A900002F006FC002002F003FC002002F000FC23
:102AA000002002F0FDFB002002F0FAFB002002F003
:102AB000F7FB002002F0F4FB002002F0F1FB002005
:102AC00002F0EEFB002002F0EBFBB42002F0F4FB7E
:102AD0008B2002F0E5FB002002F0E2FB962002F0E2
:102AE000DFFB002002F0DCFBA12002F0D9FB00207C
:102AF00002F0D6FBB52002F0DFFB022002F0D0FB93
:102B0000002002F0CDFB032002F0CAFB002002F0FF
:102B1000C7FB042002F0C4FB002002F0C1FBB6207A
:102B200002F0CAFB002002F0BBFB002002F0B8FB61
:102B3000B72002F0C1FB002002F0B2FB002002F03F
:102B4000AFFB3F2002F0ACFB002002F0A9FB5E20AF
:102B500002F0A6FB002002F0A3FB642002F0A0FB21
:102B6000002002F09DFB8C2002F09AFB002002F076
:102B700097FBAC2002F094FB002002F091FBDC20DC
:102B800002F08EFB002002F08BFB702002F088FB2D
:102B9000002002F085FB902002F082FB002002F072
:102BA0007FFBEB2002F07CFB002002F079FBDC20B5
:102BB00002F076FB002002F073FBB82002F07CFBF1
:102BC000002002F06DFB002002F06AFB002002F002
:102BD00067FB002002F064FB002002F061FB002094
:102BE00002F05EFB002002F05BFB002002F058FBCD
:102BF000BA2002F061FB242002F052FB002002F018
:102C00004FFB002002F04CFB002002F049FBC120EA
:102C100002F052FB202002F043FB002002F040FBB8
:102C2000542002F03DFB002002F03AFBFF2002F0AE
:102C300037FB002002F034FBC22002F03DFB0A20EB
:102C400002F02EFB002002F02BFB042002F028FBF8
:102C5000002002F025FBC32002F02EFB3C2002F0F6
:102C60001FFB002002F01CFB3A2002F019FB0020A1
:102C700002F016FB392002F013FB002002F010FBDB
:102C8000372002F00DFB002002F00AFB3C2002F08E
:102C900007FB002002F004FB362002F001FB0020BD
:102CA00002F0FEFA322002F0FBFA002002F0F8FAFD
:102CB0002F2002F0F5FA002002F0F2FA2C2002F0A8
:102CC000EFFA002002F0ECFA292002F0E9FA0020E5
:102CD00002F0E6FA262002F0E3FA002002F0E0FA21
:102CE000242002F0DDFA002002F0DAFA242002F0BB
:102CF000D7FA002002F0D4FA232002F0D1FA002003
:102D000002F0CEFA3C2002F0CBFA002002F0C8FA22
:102D1000362002F0C5FA002002F0C2FA322002F09A
:102D2000BFFA002002F0BCFA2F2002F0B9FA00200E
:102D300002F0B6FA2C2002F0B3FA002002F0B0FA4A
:102D4000292002F0ADFA002002F0AAFA262002F0B3
:102D5000A7FA002002F0A4FA242002F0A1FA002031
:102D600002F09EFA242002F09BFA002002F098FA6A
:102D7000232002F095FA002002F092FAC42002F01B
:102D80009BFA622002F08CFA002002F089FA0520FA
:102D900002F086FA002002F083FA842002F080FA22
:102DA000002002F07DFAF02002F07AFA002002F012
:102DB00077FA182002F074FA002002F071FAA420C9
:102DC00002F06EFA002002F06BFA182002F068FAA6
:102DD000002002F065FA502002F062FA002002F0B2
:102DE0005FFA0C2002F05CFA002002F059FA17207A
:102DF00002F056FA002002F053FA952002F050FA41
:102E0000002002F04DFAF32002F04AFA002002F00E
:102E100047FAE62002F044FA002002F041FAC52009
:102E200002F04AFA322002F03BFA002002F038FAAF
:102E3000442002F035FA002002F032FA652002F058
:102E40002FFA002002F02CFA762002F029FA002056
:102E500002F026FA882002F023FA002002F020FA7D
:102E6000C62002F029FA202002F01AFA002002F00F
:102E700017FA172002F014FA002002F011FA0120CC
:102E800002F00EFA002002F00BFAC72002F014FA4A
:102E9000002002F005FA002002F002FA002002F001
:102EA000FFF9002002F0FCF9C82002F005FA00202A
:102EB00002F0F6F9002002F0F3F9002002F0F0F938
:102EC000002002F0EDF9C92002F0F6F9002002F02E
:102ED000E7F9002002F0E4F9002002F0E1F9002017
:102EE00002F0DEF9002002F0DBF9002002F0D8F950
:102EF000002002F0D5F9002002F0D2F9002002F003
:102F0000CFF9002002F0CCF9002002F0C9F900202E
:102F100002F0C6F9002002F0C3F9002002F0C0F967
:102F2000002002F0BDF9002002F0BAF9E02002F022
:102F3000C3F9162002F0B4F9002002F0B1F91C2008
:102F400002F0AEF9002002F0ABF9212002F0A8F95E
:102F5000002002F0A5F9362002F0A2F9002002F0CC
:102F60009FF9462002F09CF9002002F099F95220C6
:102F700002F096F9002002F093F9642002F090F933
:102F8000002002F08DF97A2002F08AF9002002F088
:102F900087F98B2002F084F9002002F081F9992052
:102FA00002F07EF9002002F07BF9A82002F078F907
:102FB000002002F075F9B92002F072F9002002F049
:102FC0006FF9C42002F06CF9002002F069F9CA2000
:102FD00002F066F9002002F063F9D22002F060F9F5
:102FE000002002F05DF9D92002F05AF9002002F029
:102FF00057F9E02002F054F9002002F051F9F320D3
:1030000002F04EF9002002F04BF9E12002F054F9F1
:10301000162002F045F9002002F042F91C2002F0CF
:103020003FF9002002F03CF9222002F039F900209B
:1030300002F036F9362002F033F9002002F030F9C0
:10304000452002F02DF9002002F02AF9522002F06A
:1030500027F9002002F024F9642002F021F9002071
:1030600002F01EF97A2002F01BF9002002F018F994
:103070008B2002F015F9002002F012F9992002F0DD
:103080000FF9002002F00CF9A82002F009F9002045
:1030900002F006F9B92002F003F9002002F000F96D
:1030A000C42002F0FDF8002002F0FAF8CA2002F075
:1030B000F7F8002002F0F4F8D22002F0F1F8002036
:1030C00002F0EEF8D82002F0EBF8002002F0E8F869
:1030D000E02002F0E5F8002002F0E2F8F32002F030
:1030E000DFF8002002F0DCF8E22002F0E5F805202D
:1030F00002F0D6F8002002F0D3F80B2002F0D0F84E
:10310000002002F0CDF81B2002F0CAF8002002F0E7
:10311000C7F8342002F0C4F8002002F0C1F84420BF
:1031200002F0BEF8002002F0BBF84F2002F0B8F821
:10313000002002F0B5F8612002F0B2F8002002F0A1
:10314000AFF8792002F0ACF8002002F0A9F888204E
:1031500002F0A6F8002002F0A3F8972002F0A0F8F1
:10316000002002F09DF8A62002F09AF8002002F05C
:1031700097F8B72002F094F8002002F091F8C220EE
:1031800002F08EF8002002F08BF8C72002F088F8D9
:10319000002002F085F8D12002F082F8002002F031
:1031A0007FF8D62002F07CF8002002F079F8DD20CC
:1031B00002F076F8002002F073F8F32002F070F8C5
:1031C000002002F06DF8E32002F076F8052002F00E
:1031D00067F8002002F064F80A2002F061F800208D
:1031E00002F05EF81C2002F05BF8002000E0FDE237
:1031F00002F056F8332002F053F8002002F050F8A5
:10320000442002F04DF8002002F04AF8502002F06D
:1032100047F8002002F044F8622002F041F8002054
:1032200002F03EF8782002F03BF8002002F038F877
:10323000882002F035F8002002F032F8972002F0E2
:103240002FF8002002F02CF8A62002F029F8002028
:1032500002F026F8B72002F023F8002002F020F850
:10326000C22002F01DF8002002F01AF8C72002F078
:1032700017F8002002F014F8D12002F011F8002015
:1032800002F00EF8D52002F00BF8002002F008F84A
:10329000DD2002F005F8002002F002F8F32001F032
:1032A000FFFF002001F0FCFFE42002F005F8012000
:1032B00001F0F6FF002001F0F3FF012001F0F0FF24
:1032C000002001F0EDFF022001F0EAFF002001F0F4
:1032D000E7FF2A2001F0E4FF002001F0E1FF3C209D
:1032E00001F0DEFF002001F0DBFF4B2001F0D8FFF2
:1032F000002001F0D5FF5D2001F0D2FF002001F099
:10330000CFFF742001F0CCFF002001F0C9FF842022
:1033100001F0C6FF002001F0C3FF932001F0C0FFC1
:10332000002001F0BDFFA22001F0BAFF002001F053
:10333000B7FFB32001F0B4FF002001F0B1FFBE20C1
:1033400001F0AEFF002001F0ABFFC42001F0A8FFA8
:10335000002001F0A5FFCD2001F0A2FF002001F028
:103360009FFFD32001F09CFF002001F099FFDD209A
:1033700001F096FF002001F093FFF32001F090FF91
:10338000002001F08DFFE52001F096FF002001F004
:1033900087FF002001F084FF002001F081FF002062
:1033A00001F07EFF022001F07BFF002001F078FF9A
:1033B000292001F075FF002001F072FF3C2001F090
:1033C0006FFF002001F06CFF4B2001F069FF00202F
:1033D00001F066FF5D2001F063FF002001F060FF57
:1033E000742001F05DFF002001F05AFF842001F0FD
:1033F00057FF002001F054FF932001F051FF0020FF
:1034000001F04EFFA22001F04BFF002001F048FF29
:10341000B32001F045FF002001F042FFBE2001F083
:103420003FFF002001F03CFFC42001F039FF0020E5
:1034300001F036FFCD2001F033FF002001F030FF16
:10344000D32001F02DFF002001F02AFFDC2001F045
:1034500027FF002001F024FFF32001F021FF0020CE
:1034600001F01EFFE62001F027FF112001F018FFF8
:10347000002001F015FF342001F012FF002001F0C0
:103480000FFF562001F00CFF002001F009FF76200D
:1034900001F006FF002001F003FF772001F000FF9C
:1034A000002001F0FDFE662001F0FAFE002001F090
:1034B000F7FE882001F0F4FE002001F0F1FE9920D3
:1034C00001F0EEFE002001F0EBFEBB2001F0E8FE73
:1034D000002001F0E5FE992001F0E2FE002001F05D
:1034E000DFFE662001F0DCFE002001F0D9FE552051
:1034F00001F0D6FE002001F0D3FE552001F0D0FEF1
:10350000002001F0CDFE452001F0CAFE002001F0B0
:10351000C7FE432001F0C4FE002001F0C1FE44209C
:1035200001F0BEFE002001F0BBFEE72001F0C4FE6A
:10353000322001F0B5FE002001F0B2FE552001F06E
:10354000AFFE002001F0ACFE762001F0A9FE0020C5
:1035500001F0A6FE662001F0A3FE002001F0A0FE0F
:10356000672001F09DFE002001F09AFE672001F027
:1035700097FE002001F094FE872001F091FE0020CC
:1035800001F08EFE992001F08BFE002001F088FEF4
:10359000BB2001F085FE002001F082FE992001F0A1
:1035A0007FFE002001F07CFE772001F079FE0020F4
:1035B00001F076FE442001F073FE002001F070FE61
:1035C000562001F06DFE002001F06AFE232001F07C
:1035D00067FE002001F064FE332001F061FE002050
:1035E00001F05EFE452001F05BFE002001F058FE78
:1035F000E82001F061FE002001F052FE002001F001
:103600004FFE992001F04CFE002001F049FE87207A
:1036100001F046FE002001F043FE882001F040FE4C
:10362000002001F03DFE772001F03AFE002001F07D
:1036300037FE662001F034FE002001F031FE8820C4
:1036400001F02EFE002001F02BFEAA2001F028FE42
:10365000002001F025FEBB2001F022FE002001F039
:103660001FFE992001F01CFE002001F019FE6620CB
:1036700001F016FE002001F013FE552001F010FEAF
:10368000002001F00DFE552001F00AFE002001F09F
:1036900007FE442001F004FE002001F001FE44205A
:1036A00001F0FEFD002001F0FBFD552001F0F8FDCA
:1036B000002001F0F5FDE92001F0FEFDAA2001F057
:1036C000EFFD002001F0ECFD002001F0E9FD0020FD
:1036D00001F0E6FD002001F0EFFDAA2001F0E0FD81
:1036E000CF2001F0E9FD002001F0DAFD002001F01B
:1036F000D7FD002001F0D4FD002001F0D1FD002015
:1037000001F0CEFD002001F0CBFD002001F0C8FD4E
:10371000002001F0C5FD002001F0C2FD002001F0F5
:10372000BFFD002001F0BCFD002001F0B9FD00202C
:1037300001F0B6FD002001F0B3FD002001F0B0FD66
:10374000002001F0ADFD002001F0AAFDF02001F005
:10375000B3FD002001F0A4FD502001F0A1FD0020E8
:1037600001F09EFD002001F09BFD002001F098FD7E
:10377000F32001F0A1FD002001F092FDF92001F0FD
:103780009BFD062001F08CFD102001F089FD292011
:1037900001F086FD002001F083FD3A2001F08CFD50
:1037A000552001F07DFD112001F086FD642002F01E
:1037B00039FB292001F080FD352001F07DFD00203E
:1037C00001F06EFD512001F077FDFF2001F068FD52
:1037D000532001F071FD2C2001F062FD552001F015
:1037E0006BFD822001F05CFD01F001BA48457DD1FE
:1037F00055214FF4704001F075FDAA214FF20100F0
:1038000001F070FD52214FF2020001F06BFD4FF20A
:1038100003030821184601F065FD4FF2040701215A
:10382000384601F05FFD0D214FF4304001F05AFDA4
:103830000D214BF2010001F055FD0D214BF202006C
:1038400001F050FD34214FF4364001F04BFD34219E
:103850004BF2016001F046FD34214BF2026001F0B1
:1038600041FD0D214FF4314001F03CFD0D214BF2A3
:10387000011001F037FD0D214BF2021001F032FD75
:1038800034214FF4374001F02DFD34214BF201700B
:1038900001F028FD34214BF2027001F023FD0021DC
:1038A0004FF4324001F01EFD00214BF2012001F0E7
:1038B00019FD00214BF2022001F014FD24214FF4E8
:1038C000384001F00FFD24214BF6010001F00AFD04
:1038D00024214BF6020001F005FD01214FF43F4089
:1038E00001F000FD0F214FF4334000E0FEE301F052
:1038F000F9FC0F214BF2013001F0F4FC0F214BF2E7
:10390000023001F0EFFC34214FF4394001F0EAFCC1
:1039100034214BF6011001F0E5FC34214BF6021086
:1039200001F0E0FC08214FF4354001F0DBFC0821F8
:103930004BF2015001F0D6FC08214BF2025001F08D
:10394000D1FC03214FF4424001F0CCFC24214FF480
:103950003A4001F0C7FC24214BF6012001F0C2FCE3
:1039600024214BF6022001F0BDFC00214FF43C4025
:1039700001F0B8FC78214BF6014001F0B3FC0021C6
:103980004BF6024001F0AEFC00214FF43D4001F047
:10399000A9FC78214BF6015001F0A4FC00214BF664
:1039A000025001F09FFC00214FF43E4001F09AFCD0
:1039B00064214BF6016001F095FC00214FF4514069
:1039C00001F090FC33214DF2011001F08BFC00213D
:1039D0004DF2021001F086FC34214DF2031001F08B
:1039E00081FC00214DF2041001F07CFC3A214DF2E3
:1039F000051001F077FC00214DF2061001F072FC79
:103A00004A214DF2071001F06DFC00214DF2081023
:103A100001F068FC5C214DF2091001F063FC00210B
:103A20004DF20A1001F05EFC81214DF20B1001F005
:103A300059FC00214DF20C1001F054FCA6214DF26E
:103A40000D1001F04FFC00214DF20E1001F04AFC68
:103A5000E5214DF20F1001F045FC01214DF210104F
:103A600001F040FC13214DF2111001F03BFC01214B
:103A70004DF2121001F036FC54214DF2131001F0FA
:103A800031FC01214DF2141001F02CFC82214DF289
:103A9000151001F027FC01214DF2161001F022FC57
:103AA000CA214DF2171001F01DFC02214DF2181031
:103AB00001F018FC00214DF2191001F013FC022155
:103AC0004DF21A1001F00EFC01214DF21B1001F015
:103AD00009FC02214DF21C1001F004FC34214DF2CE
:103AE0001D1001F0FFFB02214DF21E1001F0FAFB48
:103AF00067214DF21F1001F0F5FB02214DF220105D
:103B000001F0F0FB84214DF2211001F0EBFB0221CA
:103B10004DF2221001F0E6FBA4214DF2231001F03A
:103B2000E1FB02214DF2241001F0DCFBB7214DF244
:103B3000251001F0D7FB02214DF2261001F0D2FB37
:103B4000CF214DF2271001F0CDFB02214DF22810BC
:103B500001F0C8FBDE214DF2291001F0C3FB022168
:103B60004DF22A1001F0BEFBF2214DF22B1001F0B4
:103B7000B9FB02214DF22C1001F0B4FBFE214DF2F5
:103B80002D1001F0AFFB03214DF22E1001F0AAFB26
:103B900010214DF22F1001F0A5FB03214DF2301042
:103BA00001F0A0FB33214DF2311001F09BFB03210A
:103BB0004DF2321001F096FB6D214DF2331001F001
:103BC00091FB00214FF4524001F08CFB33214DF268
:103BD000012001F087FB00214DF2022001F082FB61
:103BE00034214DF2032001F07DFB00214DF2042031
:103BF00001F078FB3A214DF2052001F073FB002122
:103C00004DF2062001F06EFB4A214DF2072001F033
:103C100069FB00214DF2082001F064FB5C214DF2AC
:103C2000092001F05FFB00214DF20A2001F05AFB50
:103C300081214DF20B2001F055FB00214DF20C20AB
:103C400001F050FBA6214DF20D2001F04BFB0021AD
:103C50004DF20E2001F046FBE5214DF20F2001F060
:103C600041FB01214DF2102001F03CFB13214DF2EC
:103C7000112001F037FB01214DF2122001F032FB3F
:103C800054214DF2132001F02DFB01214DF214209F
:103C900001F028FB82214DF2152001F023FB0121C8
:103CA0004DF2162001F01EFBCA214DF2172001F043
:103CB00019FB02214DF2182001F014FB00214DF2F6
:103CC000192001F00FFB02214DF21A2001F00AFB2E
:103CD00001214DF21B2001F005FB02214DF21C20B9
:103CE00001F000FB34214DF21D2001F0FBFA02210E
:103CF0004DF21E2001F0F6FA67214DF21F2001F06F
:103D0000F1FA02214DF2202001F0ECFA84214DF26B
:103D1000212001F0E7FA02214DF2222001F0E2FA1F
:103D2000A4214DF2232001F0DDFA02214DF22420DE
:103D300001F0D8FAB7214DF2252001F0D3FA022183
:103D40004DF2262001F0CEFACF214DF2272001F0CE
:103D5000C9FA02214DF2282001F0C4FADE214DF209
:103D6000292001F0BFFA02214DF22A2001F0BAFA0F
:103D7000F2214DF22B2001F0B5FA02214DF22C2058
:103D800001F0B0FAFE214DF22D2001F0ABFA032133
:103D90004DF22E2001F0A6FA10214DF22F2001F055
:103DA000A1FA03214DF2302001F09CFA33214DF2AB
:103DB000312001F097FA03214DF2322001F092FAFE
:103DC0006D214DF2332001F08DFA00214FF4534064
:103DD00001F088FA33214DF2013001F083FA00211D
:103DE0004DF2023001F07EFA34214DF2033001F041
:103DF00079FA00214DF2043001F074FA3A214DF2C3
:103E0000053001F06FFA00214DF2063001F06AFA38
:103E10004A214DF2073001F065FA00214DF20830D9
:103E200001F060FA5C214DF2093001F05BFA0021EB
:103E30004DF20A3001F056FA81214DF20B3001F0BB
:103E400051FA00214DF20C3001F04CFAA6214DF24E
:103E50000D3001F047FA00214DF20E3001F042FA28
:103E6000E5214DF20F3001F03DFA01214DF2103005
:103E700001F038FA13214DF2113001F033FA01212B
:103E80004DF2123001F02EFA54214DF2133001F0B0
:103E900029FA01214DF2143001F024FA82214DF269
:103EA000153001F01FFA01214DF2163001F01AFA17
:103EB000CA214DF2173001F015FA02214DF21830E7
:103EC00001F010FA00214DF2193001F00BFA022135
:103ED0004DF21A3001F006FA01214DF21B3001F0CB
:103EE00001FA02214DF21C3001F0FCF934214DF2AF
:103EF0001D3001F0F7F902214DF21E3001F0F2F908
:103F000067214DF21F3001F0EDF902214DF2203012
:103F100001F0E8F984214DF2213001F0E3F90221AA
:103F20004DF2223001F0DEF9A4214DF2233001F0F0
:103F3000D9F902214DF2243001F0D4F9B7214DF224
:103F4000253001F0CFF902214DF2263001F0CAF9F7
:103F5000CF214DF2273001F0C5F902214DF2283072
:103F600001F0C0F9DE214DF2293001F0BBF9022148
:103F70004DF22A3001F0B6F9F2214DF22B3001F06A
:103F8000B1F902214DF22C3001F0ACF9FE214DF2D5
:103F90002D3001F0A7F903214DF22E3001F0A2F9E6
:103FA00010214DF22F3001F09DF903214DF23030F8
:103FB00001F098F933214DF2313001F093F90321EA
:103FC0004DF2323001F08EF96D214DF2333001F0B7
:103FD00089F900214FF4544001F084F933214DF266
:103FE000014001F07FF900214DF2024001F07AF921
:103FF00034214DF2034001F075F900214DF20440E7
:1040000001F070F93A214DF2054001F06BF9002101
:104010004DF2064001F066F94A214DF2074001F0E9
:1040200061F900214DF2084001F05CF95C214DF28C
:10403000094001F057F900214DF20A4001F052F910
:1040400081214DF20B4001F04DF900214DF20C4061
:1040500001F048F9A6214DF20D4001F043F900218D
:104060004DF20E4001F03EF9E5214DF20F4001F016
:1040700039F901214DF2104001F034F913214DF2CC
:10408000114001F02FF901214DF2124001F02AF9FF
:1040900054214DF2134001F025F901214DF2144055
:1040A00001F020F982214DF2154001F01BF90121A8
:1040B0004DF2164001F016F9CA214DF2174001F0F9
:1040C00011F902214DF2184001F00CF900214DF2D6
:1040D000194001F007F902214DF21A4001F002F9EE
:1040E00001214DF21B4001F0FDF800E0FCE202214D
:1040F0004DF21C4001F0F6F834214DF21D4001F064
:10410000F1F802214DF21E4001F0ECF867214DF26A
:104110001F4001F0E7F802214DF2204001F0E2F8E3
:1041200084214DF2214001F0DDF802214DF22240C0
:1041300001F0D8F8A4214DF2234001F0D3F8022178
:104140004DF2244001F0CEF8B7214DF2254001F0A8
:10415000C9F802214DF2264001F0C4F8CF214DF2FA
:10416000274001F0BFF802214DF2284001F0BAF8D3
:10417000DE214DF2294001F0B5F802214DF22A402E
:1041800001F0B0F8F2214DF22B4001F0ABF8022122
:104190004DF22C4001F0A6F8FE214DF22D4001F029
:1041A000A1F803214DF22E4001F09CF810214DF2B0
:1041B0002F4001F097F803214DF2304001F092F8C2
:1041C00033214DF2314001F08DF803214DF23240A0
:1041D00001F088F86D214DF2334001F083F80021A1
:1041E0004FF4554001F07EF833214DF2015001F0BB
:1041F00079F800214DF2025001F074F834214DF2AB
:10420000035001F06FF800214DF2045001F06AF8FC
:104210003A214DF2055001F065F800214DF20650AB
:1042200001F060F84A214DF2075001F05BF80021DF
:104230004DF2085001F056F85C214DF2095001F0A2
:1042400051F800214DF20A5001F04CF881214DF255
:104250000B5001F047F800214DF20C5001F042F8EC
:10426000A6214DF20D5001F03DF800214DF20E5007
:1042700001F038F8E5214DF20F5001F033F801213B
:104280004DF2105001F02EF813214DF2115001F0B3
:1042900029F801214DF2125001F024F854214DF279
:1042A000135001F01FF801214DF2145001F01AF8DB
:1042B00082214DF2155001F015F801214DF21650F2
:1042C00001F010F8CA214DF2175001F00BF802214D
:1042D0004DF2185001F006F800214DF2195001F08E
:1042E00001F802214DF21A5000F0FCFF01214DF2BD
:1042F0001B5000F0F7FF02214DF21C5000F0F2FFBE
:1043000034214DF21D5000F0EDFF02214DF21E5000
:1043100000F0E8FF67214DF21F5000F0E3FF02219B
:104320004DF2205000F0DEFF84214DF2215000F0CC
:10433000D9FF02214DF2225000F0D4FFA4214DF20A
:10434000235000F0CFFF02214DF2245000F0CAFFAD
:10435000B7214DF2255000F0C5FF02214DF2265045
:1043600000F0C0FFCF214DF2275000F0BBFF02212B
:104370004DF2285000F0B6FFDE214DF2295000F03A
:10438000B1FF02214DF22A5000F0ACFFF2214DF2B4
:104390002B5000F0A7FF02214DF22C5000F0A2FF9D
:1043A000FE214DF22D5000F09DFF03214DF22E50C5
:1043B00000F098FF10214DF22F5000F093FF0321E1
:1043C0004DF2305000F08EFF33214DF2315000F0AD
:1043D00089FF03214DF2325000F084FF6D214DF230
:1043E000335000F07FFF00214FF4564000F07AFF79
:1043F00033214DF2016000F075FF00214DF20260A3
:1044000000F070FF34214DF2036000F06BFF0021DB
:104410004DF2046000F066FF3A214DF2056000F0B5
:1044200061FF00214DF2066000F05CFF4A214DF271
:10443000076000F057FF00214DF2086000F052FFC6
:104440005C214DF2096000F04DFF00214DF20A6041
:1044500000F048FF81214DF20B6000F043FF002186
:104460004DF20C6000F03EFFA6214DF20D6000F011
:1044700039FF00214DF20E6000F034FFE5214DF2CE
:104480000F6000F02FFF01214DF2106000F02AFFB5
:1044900013214DF2116000F025FF01214DF2126051
:1044A00000F020FF54214DF2136000F01BFF0121AA
:1044B0004DF2146000F016FF82214DF2156000F0FD
:1044C00011FF01214DF2166000F00CFFCA214DF2E0
:1044D000176000F007FF02214DF2186000F002FFA4
:1044E00000214DF2196000F0FDFE02214DF21A602C
:1044F00000F0F8FE01214DF21B6000F0F3FE0221F6
:104500004DF21C6000F0EEFE34214DF21D6000F013
:10451000E9FE02214DF21E6000F0E4FE67214DF23B
:104520001F6000F0DFFE02214DF2206000F0DAFE95
:1045300084214DF2216000F0D5FE02214DF222606F
:1045400000F0D0FEA4214DF2236000F0CBFE02214A
:104550004DF2246000F0C6FEB7214DF2256000F058
:10456000C1FE02214DF2266000F0BCFECF214DF2CB
:10457000276000F0B7FE02214DF2286000F0B2FE85
:10458000DE214DF2296000F0ADFE02214DF22A60DD
:1045900000F0A8FEF2214DF22B6000F0A3FE0221F4
:1045A0004DF22C6000F09EFEFE214DF22D6000F0D9
:1045B00099FE03214DF22E6000F094FE10214DF281
:1045C0002F6000F08FFE03214DF2306000F08AFE74
:1045D00033214DF2316000F085FE03214DF232604F
:1045E00000F080FE6D214DF2336000F07BFE55211E
:1045F000381F00F077FEAA21F81E00F073FE52214A
:10460000B81E00F06FFE0821184600F06BFE002176
:10461000384600F067FECC214FF4314000F062FED6
:1046200000214BF2011000F05DFE05214FF43640F1
:1046300000F058FE70214FF4374000F053FE702117
:104640004BF2017000F04EFE01214FF4384000F0B3
:1046500049FE03214BF6010000F044FE03214BF616
:10466000020000F03FFE03214BF6030000F03AFE8B
:1046700002214FF43C4000F035FE00214BF6014092
:1046800000F030FE00214BF6024000F02BFED0215E
:104690004FF4494000F026FE02214CF6011000F0D4
:1046A00021FE50214CF6021000F01CFE50214CF669
:1046B000031000F017FE50214CF6041000F012FE1B
:1046C00000214FF4545000F00DFE55214FF4685076
:1046D00000F008FE4FF4885000F0EEFD782001F065
:1046E000BDFB4FF4245083E240457CD1112000F003
:1046F000E3FD782001F096FB362000F0DDFD482038
:1047000000F0CEFD3A2000F0D7FD552000F0C8FDA6
:10471000F02000F0D1FDC32000F0C2FDF02000F039
:10472000CBFD962000F0BCFDB42000F0C5FD0120BB
:1047300000F0B6FDB62000F0BFFD0A2000F0B0FD8D
:10474000A22000F0ADFDB72000F0B6FDC62000F0BD
:10475000A7FDB92000F0B0FD022000F0A1FDE0208F
:1047600000F09EFDC02000F0A7FD802000F098FD25
:10477000162000F095FDC12000F09EFD192000F0EC
:104780008FFDC22000F098FDA72000F089FDC52014
:1047900000F092FD162000F083FDE82000F08CFD73
:1047A000402000F07DFD8A2000F07AFD002000F01E
:1047B00077FD002000F074FD292000F071FD192024
:1047C00000F06EFDA52000F06BFD332000F068FDC9
:1047D000E02000F071FDF02000F062FD072000F005
:1047E0005FFD0D2000E063E000F05AFD042000F0C2
:1047F00057FD052000F054FD142000F051FD362037
:1048000000F04EFD542000F04BFD4C2000F048FD20
:10481000382000F045FD132000F042FD142000F088
:104820003FFD2E2000F03CFD342000F039FDE1205A
:1048300000F042FDF02000F033FD102000F030FDCC
:10484000142000F02DFD0E2000F02AFD0C2000F0B9
:1048500027FD082000F024FD352000F021FD442034
:1048600000F01EFD4C2000F01BFD262000F018FD7E
:10487000102000F015FD122000F012FD2C2000F099
:104880000FFD322000F00CFDF02000F015FD3C2063
:1048900000F006FDF02000F00FFD692000F000FDA3
:1048A000782001F0BFFA212000F006FDFDF7FDBEE3
:1048B00050457CD1FF2000F0FFFCFF2000F0F0FC11
:1048C000982000F0EDFC062000F0EAFCBC2000F08F
:1048D000F3FC012000F0E4FC0F2000F0E1FC61207B
:1048E00000F0DEFCFF2000F0DBFC012000F0D8FC33
:1048F000012000F0D5FC0B2000F0D2FC102000F0CD
:10490000CFFC372000F0CCFC632000F0C9FCFF2076
:1049100000F0C6FCFF2000F0C3FC012000F0C0FC4A
:10492000012000F0BDFC002000F0BAFC002000F0E7
:10493000B7FCFF2000F0B4FC522000F0B1FC0120D5
:1049400000F0AEFC002000F0ABFC402000F0A8FC22
:10495000BD2000F0B1FC012000F0A2FC232000F0FB
:104960009FFC452000F09CFC672000F099FC012092
:1049700000F096FC232000F093FC452000F090FC12
:10498000672000F08DFCBE2000F096FC002000F0B7
:1049900087FC012000F084FCAB2000F081FC60204B
:1049A00000F07EFC222000F07BFC222000E022E1CF
:1049B00000F076FC222000F073FC222000F070FC56
:1049C000222000F06DFCC72000F076FC362000F0BD
:1049D00067FCED2000F070FC7F2000F061FC0F20F0
:1049E00000F05EFCC02000F067FC0F2000F058FCD7
:1049F0000B2000F055FC0A2000F052FCFC2000F0D7
:104A00005BFC082000F04CFCDF2000F055FC00208F
:104A100000F046FC002000F043FC002000F040FCC9
:104A2000002000F03DFC002000F03AFC202000F0C7
:104A300037FCF32000F040FC742000F031FCB4207F
:104A400000F03AFC002000F02BFC002000F028FCD5
:104A5000002000F025FCF72000F02EFC822000F062
:104A60001FFCB12000F028FC002000F019FC1320EE
:104A700000F016FC132000F013FCF22000F01CFCE8
:104A8000802000F00DFC042000F00AFC402000F023
:104A900007FC282000F004FCC12000F00DFC1720CA
:104AA00000F0FEFB882000F0FBFB882000F0F8FB04
:104AB000202000F0F5FBE02000F0FEFB002000F0DD
:104AC000EFFB0A2000F0ECFB122000F0E9FB1020C5
:104AD00000F0E6FB0E2000F0E3FB202000F0E0FBFE
:104AE000CC2000F0DDFB072000F0DAFB062000F010
:104AF000D7FB0B2000F0D4FB0E2000F0D1FB0F20E1
:104B000000F0CEFB0D2000F0CBFB152000F0C8FB21
:104B1000102000F0C5FB002000F0C2FBE12000F0F7
:104B2000CBFB002000F0BCFB0B2000F0B9FB1320F6
:104B300000F0B6FB0D2000F0B3FB0E2000F0B0FB40
:104B40001B2000F0ADFB712000F0AAFB062000F056
:104B5000A7FB062000F0A4FB0A2000F0A1FB0F2019
:104B600000F09EFB0E2000F09BFB0F2000F098FB56
:104B7000152000F095FB0C2000F092FB002000F0C7
:104B80008FFB2A2000F098FB002000F089FB00201A
:104B900000F086FB012000F083FBDF2000F080FBAB
:104BA0002B2000F089FB002000F07AFB002000F0B1
:104BB00077FB032000F074FB1F2000F071FB3A200C
:104BC00000F07AFB552000F06BFB362000F074FB00
:104BD000002000F065FB112000F06EFB782001F052
:104BE00021F9292000F068FB142001F01BF92C208A
:104BF00000F062FBB9E05845FCD1E22000F05CFB1C
:104C00001D2000F04DFB022000F04AFB042000F0C4
:104C100047FB642001F022F9E02000F04DFB012069
:104C200000F03EFB0A2001F0FDF8E02000F044FB1C
:104C3000032000F035FB0C2001F0F4F8012000F017
:104C40003BFB0A2001F0EEF8E62000F035FB2F20B8
:104C500000F026FBFF2000F023FBFF2000F020FBEC
:104C6000B02000F029FB202000F01AFB002000F00B
:104C700017FB032000F014FB40F21F3000F010FB84
:104C8000012000F00DFB40F2DF1000F009FB0020D6
:104C900000F006FBB42000F00FFB042000F000FB46
:104CA00040F21F4000F0FCFA002000F0F9FA2E203C
:104CB00000F0F6FA002000F0F3FA002000F0F0FA1D
:104CC000002000F0EDFA002000F0EAFAB62000F033
:104CD000F3FA022000F0E4FA4FF4037000F0E0FA77
:104CE000002000F0DDFA172000F0DAFA152000F0BD
:104CF000D7FA002000F0D4FA002000F0D1FAF0201A
:104D000000F0DAFA032000F0CBFA292000F0D4FA00
:104D1000D02000F0D1FA002000F0C2FABE2000F04E
:104D2000CBFA052000F0BCFAFE2000F0B9FA012011
:104D300000F0B6FA002000F0B3FA002000F0B0FA5C
:104D4000002000F0ADFAB82000F0B6FA032000F021
:104D5000A7FA012000F0A4FABA2000F0ADFA012071
:104D600000F09EFA642000F04DF8A088A0F51341F1
:104D700041390BD0B04209D0484507D0584505D03D
:104D8000A84203D0404501D0504519D14FF02040F2
:104D9000D0F8041121F00F01C0F80411D0F804116B
:104DA00021F47061C0F80411D0F8041141F005013C
:104DB000C0F80411D0F8041141F4A061C0F8041146
:104DC0000020FDF7D7F805490120C1F894024FF6FD
:104DD000FF70FDF7ABF815B0BDE8F08F00804042E2
:104DE0000346012000E05843491EC9B2FBD2704778
:104DF000034808B50088ADF80000BDF8000008BD04
:104E00000000086010B50246BE2000F055FA0520EB
:104E100000F046FA104603F04CF89FED0C1B53ECE3
:104E2000112B03F059F803F017F880B200F038FAAC
:104E3000012000F035FAFF2000F032FA002000F0E7
:104E40002FFABDE81040002000F02ABA66666666B8
:104E50006666044070B5674C00232146A2798988B4
:104E600041F66315012A01D01AB11BE0A94202D113
:104E700018E0A94216D1082814D2DFE800F0040691
:104E8000080A0C0E101206200CE007200AE004208D
:104E900008E0052006E0012004E0002002E00320F5
:104EA00000E00220082812D2DFE800F01104060812
:104EB0000A0C0E1080230AE0402308E0C02306E01D
:104EC000202304E0602302E0A02300E0E02336205A
:104ED00045F21056B14200D10002A1F51342413A09
:104EE00007D0A1F5EE42893A03D0A1F5EE42963AF9
:104EF00001D143F00803194600F0F4F9A288AA4250
:104F00000AD098062088618802D5884202D303E03F
:104F1000884201D9218060806089B24240D100F08E
:104F2000CBF9002000F0BCF96089401C80B200F091
:104F3000C3F9002000F0B4F96089801C80B200F051
:104F4000BBF92088401EC0F30F2000F0A9F960894A
:104F5000C01C80B200F0B0F92078401EC0B200F052
:104F60009FF9A08900F0A8F9002000F099F9A08924
:104F7000401C80B200F0A0F9002000F091F9A08957
:104F8000801C80B200F098F96088401EC0F30F20AA
:104F900000F086F9A089C01C80B200F08DF921E0F4
:104FA00000F08AF9002000F07BF9002000F078F989
:104FB0002088401EC0F30F2000F072F92078401EB8
:104FC000C0B200F06DF9A08900F076F9002000F081
:104FD00067F9002000F064F96088401EC0F30F20DC
:104FE00000F05EF9A078BDE87040401EC0B200F04D
:104FF00057B900002C100020F0B53A4D0C4602467F
:10500000060AA9882846270A4089A1F5C853633BA8
:1050100016D0A1F5AA43103B4BD000F04DF9304615
:1050200000F03EF9D0B200F03BF9A88900F044F955
:10503000384600F035F9E0B2BDE8F04000F030B994
:10504000A97929B300F038F9304600F029F9D0B237
:1050500000F026F92888401EC0F30F2000F020F948
:105060002878401EC0B200F01BF9A88900F024F98E
:10507000384600F015F9E0B200F012F96888401ED9
:10508000C0F30F2000F00CF9A878401EC0B2D3E79F
:105090002988891A491E8AB200F00EF9002000F012
:1050A000FFF8002000F0FCF8100A00F0F9F8D0B288
:1050B000D9E700F001F9304600F0F2F86889401CA9
:1050C00080B200F0F9F8D0B200F0EAF8A88900F058
:1050D000F3F8384600F0E4F8A889401C80B200F0EC
:1050E000EBF8A8E72C1000202DE9F84F82461F4668
:1050F0000E468B46580700D0012000EBD7007908F8
:1051000010FB01F0203AC0B202F0FF090025009028
:1051100047E00C2F10D0102F12D0182F14D0202FB2
:1051200042D1224901EBC9104FF00008445D20062E
:1051300010D51F48026811E009EB49001D4906E03F
:105140001D4901EB0910EFE71C4909EBC90001EB10
:105150008000E9E70A9828B9154842683146504668
:10516000FDF70EF86006040E1548761CB6B24088AE
:10517000B04219D9A6EB0B00B84209D10AF10100DF
:105180001FFA80FA0E485E46018851450CD906E0A8
:1051900008F1010000F0FF08B8F1080FC7D36D1C3B
:1051A000EDB200988542B4D3BDE8F88FAE98000800
:1051B0006C000020EE80000862850008528B000819
:1051C0002C1000202DE9F84F044600F0FF081019BC
:1051D0000D46DDE90A761FFA80FA58191FFA80F9A0
:1051E0004FF0000B11E0544502D3E819444685B254
:1051F0004D450FD23B4629462046CDF800B0FFF77B
:1052000073FF04EB570084B2761C3278A2F12000C1
:105210005E28E8D9BDE8F88F2DE9FF4F81B08046C0
:10522000DDF83CA00E984FF000091F4693464C460F
:105230000AF0010546082BE0381B401EC1B20A20C7
:10524000FFF7CEFDBBFBF0F00A21B0FBF1F201FB52
:105250001200B9F1000F05D1791E8C4202DA48B173
:105260004FF001093030C2B206FB048080B20095D5
:105270000E9B08E05FEA0A6006FB04800E9B80B28A
:1052800000950AD530220299FFF72EFF641CE4B284
:10529000BC42D1D305B0BDE8F08F2022F3E7000077
:1052A00001B5BDF80000ADF80000BDF800000149EF
:1052B000088008BD0000086001B5BDF80000ADF829
:1052C0000000BDF800000149088008BDFEFF07602E
:1052D0000248034900890880704700002C10002014
:1052E000FEFF0760024A1080901C0180704700009A
:1052F000FEFF0760104810B5016886B041F002015A
:1053000001600068012100F0020005900320CDE952
:105310000210CDE90001094C69462046FBF7A6FBC7
:10532000012211462046FBF794FC0122022120466F
:10533000FBF78FFC06B010BD30380240000402407D
:1053400008B500900548018BC08A491E8BB2401EEB
:1053500082B20021084600F045F808BDE4100020A4
:1053600000B58DB008230992049000930691684619
:10537000FBF7A8FE002800D001200DB000BD000002
:1053800010B5084B1C465875A1888AB2218889B28D
:1053900020B1012801D1D9821A8310BDDA82198384
:1053A00010BD0000E4100020F0B50C4F94B23D4653
:1053B000DFF82CC02B68EA692D7D7E7D5CF82550D6
:1053C00026B103FB01004243AC52F0BD7E68301AA7
:1053D000401E03FB001050432C52F0BDE41000208F
:1053E000740000202DE9F843274EDDF820900024BA
:1053F000757D0DB1054606E077680D46B91A1A4667
:105400003B1A491E5B1E306896F814C0DFF87C809A
:10541000521B871A58F82CC0F66900FB015006FB96
:1054200000C51B487F1EBFB2066846F40006066032
:10543000006800F4000000901648066826F0010697
:1054400006604FF440360660022646630764C56373
:10545000591AF30303EB0242491C11434164C0F89B
:105460003890016841F0010101605A0102E0641CBA
:10547000944202D241688907F9D5816841F002015E
:105480008160BDE8F8830000E41000207400002073
:105490003038024000B002402DE9FF5F00F040F9D3
:1054A00004460126784DA0F586404FF4F0714FF088
:1054B000280941F2180A423847D03204A4F5E043E3
:1054C0004FF448704FF4C67B843B50D003238C27A5
:1054D000A4F5E04C4FF4B47EBCF1160C54D0A4F506
:1054E000E0484FF4A06CB8F118085DD0A4F58048EE
:1054F000B8F561785BD054450CD1C5E900C0AF81E7
:105500000A2028822881E88168826B810221704606
:10551000FFF726FF5D482A685E4F02806968418078
:105520000220E8615A48386057485B4BA8384FF072
:105530000008C0E90038C0F80880C0F80C80544565
:1055400045D14FF08053036143E04FF48870C5E9C3
:1055500000102E816E810820A5F80C90E8810521AD
:1055600029828203688204214FF49070D0E7C5E954
:1055700000012E816E812E20A8811720E881D22083
:105580002882162068821FE04FF4806028604FF464
:1055900016706860142028816B81AF81E881A0209B
:1055A00028820C206882B1E7C5E900C0B2E7C5E9EE
:1055B00000015820A881A5F81090302028812020D3
:1055C000E8810D2068826B8103215846A0E7C0F86E
:1055D00010802C89631E43616B89A3F1010CC0F814
:1055E00018C0B5F80CC06444A4F1010CC0F81CC08C
:1055F000B5F80EC06344A3F1010CC0F820C0A2F1BD
:10560000010CA444C0F824C0A1F1010C9C44C0F8D2
:1056100028C0B5F810C062442244521EC2626A8A91
:1056200011441944491E016380F8368080F83580A2
:1056300080F834801448A838FBF772FB0720062155
:10564000CDE90208CDE90081FF230222002039685C
:1056500000F026F8A888002280B200902888114621
:1056600083B2104600F04AF80020FFF789FE0B488D
:1056700085F81480C0F8946204B04FF0FF30BDE8A4
:10568000F05FFFF75DBE0000E41000202C1000204A
:10569000000000C07400002000680140008040420B
:1056A0002DE9F0438DB0164614AA002492E8801329
:1056B000114D009402942A6801926D68CDE904634B
:1056C0004FEA0823CDE9067303954FEA09230DF14C
:1056D000240E08938EE8260002468DF832400648D4
:1056E0008DF831408DF830C06946A838FBF7EFFAE5
:1056F0000DB0BDE8F0830000E410002070B51E4638
:10570000044603460548049DFBF702FC23462A464F
:105710003146BDE870400148FBF724BC3C10002036
:1057200030B52A4887B00021026842F0400202608A
:10573000026802F040020592026842F48072026040
:105740000068234C00F4807005904020CDE90001F2
:10575000012002900320039069462046FBF786F95A
:1057600084201C4D009069462846FBF77FF94021B4
:105770002046FBF769FA044604212846FBF764FA41
:1057800044EA400480212846FBF75EFA44EA8000A0
:10579000C0B2062817D2DFE800F003070A0D101385
:1057A00044F2423007B030BD47F28400FAE747F2D6
:1057B0001600F7E747F21800F4E744F28430F1E707
:1057C00041F21800EEE70020ECE70000303802401C
:1057D0000018024000200240F0B504688B88E5689C
:1057E000C5F30B452B441D04882303EBC213E65875
:1057F00006F47046E65004680F68E668C6F30B4688
:10580000761C3E442E43E65003688C89DD68C5F360
:105810000A052C4425048C2404EBC2141E5906F4FA
:1058200070461E5103688F68DE68C6F30A06761C50
:105830003E442E431E519423046803EBC213E558E3
:1058400025F00705E55005680C69EC5091F83130FA
:1058500005681F0291F832301C040B7E1E069C2343
:1058600003EBC21355F803C04FF0000C45F803C01A
:1058700091F8305034433D4325430468E550982364
:10588000046803EBC213E55825F0FF05E5500568F1
:105890004C69EC50A023046803EBC213E55840F2B6
:1058A0000776B543E550D1E907452C430568EC5030
:1058B000AC23046803EBC213E55844F803C0056841
:1058C0004C6AEC500B698BB3012B32D0042B32D0D5
:1058D000022B30D0032B2ED0072B2CD00123B02449
:1058E000056804EBC2142E5906F0E0262E51D1E9CA
:1058F0000065AD1B0E8D5D435E43ED1C45EA06431E
:1059000005682B51B423046803EBC213E5586FF309
:105910000A05E5500468C96AE1500068842101EB7A
:10592000C211425842F001024250F0BDFFE7042389
:10593000D5E70323D3E70223D1E7FEE77047090742
:10594000090E002806DA00F00F0000F1E02080F8D0
:10595000141D704700F1E02080F80014704700002B
:1059600000B5254887B023490022C0E90012012173
:10597000816008211023C0E90313402343614FF4E1
:10598000C073C0E906320A0202624A0242628A0217
:1059900082620220CDE9000106210291CDE90310C7
:1059A0000590069069461448FBF7F2FF0023012298
:1059B0001146184600F022F84FF4FA7000F04EFA43
:1059C000002301220221184600F018F800230822C3
:1059D0000321184600F012F84FF40C730122042141
:1059E000002000F00BF840F2AB210348FCF760F810
:1059F00007B000BD400100A0041100201FB5002425
:105A000010B1012802D002E0102400E00824CDE902
:105A10000014CDE902234FF4805269460348FCF795
:105A200058F8002800D0012004B010BD0411002057
:105A300070B51E4C92B00025266846F08056266050
:105A4000246804F080541194194C266846F44046AA
:105A5000266024680DF1240C04F4404411940124C0
:105A600000940194022406948CE80D006605CDE9AB
:105A700007616846FBF7FEFD00B1FEE7FBF7DEFAC3
:105A800000B1FEE70CA90F2081E831004FF4A050CF
:105A90000F904FF48050109005210CA8FBF766FC86
:105AA000002800D0FEE712B070BD00004038024070
:105AB0000070004010B501F0A3FF012801D001F0F3
:105AC00071FCBDE81040FBF7CFB80000104801683A
:105AD00041F4700101600F48016841F0010101606B
