:020000040800F2
:10000000C8C400201903000841570008AB1E0008AF
:100010003F57000839080008ED5B000800000000A9
:100020000000000000000000000000006102000865
:100030003B08000800000000B5020008B95800089D
:1000400033030008330300083303000833030008B8
:1000500033030008330300083303000833030008A8
:100060003303000833030008330300083303000898
:100070003303000833030008330300083303000888
:100080003303000833030008330300083303000878
:100090003303000833030008330300083303000868
:1000A0003303000833030008330300083303000858
:1000B0003303000833030008330300083303000848
:1000C0003303000833030008330300083303000838
:1000D00033030008A95B000833030008330300085A
:1000E0003303000833030008330300083303000818
:1000F0003303000833030008330300083303000808
:1001000033030008330300083303000833030008F7
:1001100033030008330300083303000833030008E7
:1001200033030008330300083303000833030008D7
:1001300033030008330300083303000833030008C7
:1001400033030008330300083303000833030008B7
:1001500033030008330300083303000833030008A7
:100160003303000833030008330300083303000897
:1001700033030008330300083303000800000000C5
:100180003303000833030008330300083303000877
:100190003303000833030008330300083303000867
:1001A00033030008330300083303000800F002F8AB
:1001B00000F047F80AA090E8000C82448344AAF1BA
:1001C0000107DA4501D100F03CF8AFF2090EBAE8B8
:1001D0000F0013F0010F18BFFB1A43F0010318477B
:1001E000D4C30000F4C30000103A24BF78C878C11B
:1001F000FAD8520724BF30C830C144BF04680C602D
:10020000704700000023002400250026103A28BF74
:1002100078C1FBD8520728BF30C148BF0B60704778
:10022000642900F00581782900F03E81732900F0EF
:100230006D82002070471FB507F0FAFD1FBD10B595
:1002400010BD00F0C6FA1146FFF7F5FF05F03AFDC4
:1002500000F0E4FA03B4FFF7F2FF03BC05F0C7FCBB
:100260002A4B19680868B0E8F04F80F30988BFF39B
:100270006F8F4FF0000080F311887047000000007E
:1002800006480068006880F3088862B661B6BFF36C
:100290004F8FBFF36F8F00DF00BF00BF08ED00E09E
:1002A000DFF80C00016841F470010160704700BF85
:1002B00088ED00E0EFF30980BFF36F8F134B1A68EE
:1002C0001EF0100F08BF20ED108A20E9F04F1060DB
:1002D00008B44FF0500080F31188BFF34F8FBFF385
:1002E0006F8F06F037FE4FF0000080F3118808BCD6
:1002F00019680868B0E8F04F1EF0100F08BFB0ECA6
:10030000108A80F30988BFF36F8F70474400002084
:10031000EFF305807047000009488047094800470F
:10032000FEE7FEE7FEE7FEE7FEE7FEE7FEE7FEE7A5
:10033000FEE7FEE704480549054A064B7047000002
:10034000D1580008AD010008C8BE0020C8C4002074
:10035000C8C00020C8C00020704700000FB4044986
:1003600010B503AA029800F0D5F910BC5DF814FB93
:10037000300000202DE9F0410E46044600202062A6
:100380002046E168884730B3252805D0D4E901210B
:100390009047206A401CF2E7E16820460027884722
:1003A000050018D0A5F14100192802D820354FF4D6
:1003B00000673246294620462760FFF731FF40B1EB
:1003C000012804D0F61D26F007060836D8E7361DAA
:1003D000D6E72846DAE7206ABDE8F08170B50C461A
:1003E0000546012A05D02878800600D5EA69002351
:1003F00002E0012305E05B1C934202D2E05C00288E
:10040000F9D1A869E618C01AA861286A18442862B8
:100410002846AFF3008004E0D5E9012114F8010B70
:100420009047B442F8D32846AFF3008070BD000077
:100430002DE9F0410646002410687529314616A5BD
:1004400010D0AFF30080002802DA404213A507E085
:1004500031688A0701D512A502E0490704D511A524
:10046000012401E0AFF3008000210A2206F12407F5
:1004700009E0B0FBF2FCB0FBF2F302FB1C003030F1
:1004800078541846491C0028F3D123462A463046A2
:10049000BDE8F04100F0B7B8000000002D000000FA
:1004A0002B0000002000000070B504460D462146D8
:1004B0001068AFF300802188090502D50F4A7A44FD
:1004C00002E00E4A7A440E32002104F1240305E0D2
:1004D00000F00F060009965D5E54491C0028F7D114
:1004E00020780023000704D5702D02D009B1022323
:1004F00011322046BDE8704000F085B8C8C0000049
:10050000032A40F2308010F0030C00F0158011F83F
:10051000013BBCF1020F624498BF11F801CB00F817
:10052000013B38BF11F8013BA2F1040298BF00F86B
:1005300001CB38BF00F8013B11F0030300F0258028
:10054000083AC0F0088051F8043B083A51F804CB4F
:10055000A0E80810F5E7121D5CBF51F8043B40F815
:10056000043BAFF30080D20724BF11F8013B11F820
:1005700001CB48BF11F8012B24BF00F8013B00F864
:1005800001CB48BF00F8012B704710B5203AC0F0EE
:100590000B80B1E81850203AA0E81850B1E8185084
:1005A000A0E81850BFF4F5AF5FEA027C24BFB1E8C1
:1005B0001850A0E8185044BF18C918C0BDE8104032
:1005C0005FEA827C24BF51F8043B40F8043B08BF3B
:1005D0007047D20728BF31F8023B48BF11F8012B02
:1005E00028BF20F8023B48BF00F8012B704702F0FB
:1005F000FF0343EA032242EA024200F09FB8704739
:100600007047704770472DE9F0470D46994692466E
:10061000044600F124080168880604D5E06921F049
:100620001001216000E00120A84201DD471B00E02D
:100630000027A1697A1902EB0900081AA061207845
:10064000C00602D42046AFF30080002608E0D4E9BB
:1006500001211AF806009047206A401C761C20628F
:100660004E45F4DB2078C0060AD52046AFF3008063
:1006700006E0D4E9012130209047206A401C206226
:10068000381EA7F10107F4DC07E0D4E9012118F8CE
:1006900005009047206A401C2062281EA5F1010534
:1006A000F3DC2046AFF300802078000602D502205C
:1006B000BDE8F0870120FBE701694A1C0261087868
:1006C000704700B58FB0CDE9013100210591054992
:1006D0007944CDE9031011466846FFF74BFE0FB091
:1006E00000BD0000E5FFFFFF10B5436913B1AFF394
:1006F000008001E0FFF772FE012010BD127800F1CA
:1007000024010A7000224A700122EDE711684FF0BF
:10071000FF32E9E7074B70B50D467B44FFF7D1FF89
:100720000446284600F02AF810B14FF0FF3070BDA3
:10073000204670BD935500004FF000020429C0F020
:10074000128010F0030C00F01F80CCF1040CBCF1FF
:10075000020F18BF00F8012BA8BF20F8022BA1EB55
:100760000C0100F011B85FEAC17C24BF00F8012B36
:1007700000F8012B48BF00F8012B7047007B00F008
:10078000800070474FF0000200B51346944696462D
:10079000203922BFA0E80C50A0E80C50B1F1200194
:1007A000BFF4F7AF090728BFA0E80C5048BF0CC042
:1007B0005DF804EB890028BF40F8042B08BF7047A0
:1007C00048BF20F8022B11F0804F18BF00F8012B12
:1007D0007047754600F02CF8AE4605006946534652
:1007E00020F00700854618B020B5FFF7A3FDBDE84F
:1007F00020404FF000064FF000074FF000084FF088
:10080000000B21F00701AC46ACE8C009ACE8C00918
:10081000ACE8C009ACE8C0098D46704710B5044685
:10082000AFF300802046BDE81040FFF713BD000085
:100830000048704768BE0020FEE7704770B5B3F50A
:10084000804F05D06FF0704140F82210002070BD3D
:1008500050F82230084C2340D1E9004544EA051401
:100860008D688E892D0245EA064589692C430C4323
:100870001C4340F82240E9E70000F0CFF0B50C68D7
:1008800050F82450194A1540D1E90123D1E90367F2
:100890001A433E4332434E6932438E693243CE6936
:1008A00032430E6A32434E6A32438E6A3243CE6A14
:1008B0003243CE6B32430E6B32434E6B32432A438C
:1008C000082B01D142F0400240F824204A6BB2F5D7
:1008D000801F08D10A6832B14FF480720A6104495E
:1008E0000268114301600020F0BD00008000E0FFBD
:1008F00000011000F0B500EB820253688E8903F00E
:100900004044D1E9003543EA05138D682D0245EADC
:1009100006452B430E8A0D4D05EB065633430E7DDF
:100920006F0107EB066633438E69334323435360FD
:100930000268D20207D54268098A22F4700205EBE8
:100940000151114341600020F0BD00000000F0FFA4
:1009500030B5D1E901231A43D1E9033423431A43C3
:100960004B690D681A438B691A43D1E90734012D8D
:10097000496A05686FF30E0505D01A4322430A43FE
:100980002A43026008E0234329430B434168036084
:100990006FF30E010A434260002030BD426942EA13
:1009A0004101416100207047F8B514460546D1E980
:1009B000000210438A686FF01F03C96803EB4212FC
:1009C00042EA412108430090286100F047F90646B9
:1009D00009E0601C07D024B100F040F9801BA04260
:1009E00001D90320F8BDA8698006F2D40020F8BD23
:1009F000F0B56FF00F05D1E9003405EB04145B1E70
:100A00002E0123438C682F0306EB04244FEA054C88
:100A100023430D8A8E8ACC68097E4FF07F4E07EB08
:100A200005450CEB06560EEB0161012A0CD08268DD
:100A30003F1107EB043423432B43334302F070424E
:100A40000B43134383600FE0C2682B430B4302F058
:100A500070428168134301F070422103A1F5805177
:100A600031431143C36081600020F0BD2DE9F84F90
:100A7000DFF8A091002209F1040A0AF1040B4FF0FB
:100A80000F080BF1040E01260B6896403340B34269
:100A900071D14C68022C01D0122C11D1D40800EB7A
:100AA00084073D6A5407E40E08FA04FC25EA0C05A5
:100AB000D1F810C00CFA04FC4CEA050CC7F820C0B1
:100AC00007685400032591F804C0A5400CF0030CFE
:100AD000AF430CFA04FC4CEA070CC0F800C04F68A6
:100AE000012F05D0022F03D0112F01D0122F11D1C9
:100AF0008768D1F80CC0AF430CFA04FC4CEA070C31
:100B0000C0F808C04768B7430E79C6F30016964090
:100B10003E434660C668AE438D68A5403543C56018
:100B20004C68E4006FD53C4C256845F48045256051
:100B3000246822F0030504F480440094374C2E19F5
:100B4000D6F808789407250F08FA05F4A743344C23
:100B5000A04201D100242EE0324CA04201D1012458
:100B600029E0314CA04201D1022424E02F4CA042C4
:100B700002D103241FE046E02D4CA04201D1042401
:100B800019E02C4CA04201D1052414E02A4CA042CB
:100B900001D106240FE0294CA04201D107240AE02C
:100BA000274CA04201D1082405E0264CA04201D1E7
:100BB000092400E00A24AC403C43C6F80848D9F8B0
:100BC00000404D464E689C43F60300D51C432C6004
:100BD000DAF8004055464E689C43B60300D51C43E6
:100BE0002C60DBF800405D464E689C43F60200D561
:100BF0001C432C60DEF8004075464E689C43B602EC
:100C000000D51C432C60521C102AFFF43CAFBDE8F9
:100C1000F88F0000003C01404438024000300140A1
:100C2000000002400004024000080240000C0240A4
:100C3000001002400014024000180240001C024054
:100C400000200240002402400069084000D001203A
:100C500070470AB1816170470904FBE701480068E9
:100C6000704700002000002002480168491C016014
:100C700070470000200000200B4810B5016841F4C7
:100C800000710160016841F480610160016841F414
:100C900080710160032000F0BFF90F2000F006F81A
:100CA00000F08AF9002010BD003C024010B5044657
:100CB00000F060FC4FF47A71B0FBF1F000F094FFAB
:100CC00000222146501E00F087F9002010BD2DE9BA
:100CD000F041044690F8A00015460F4601281DD0AB
:100CE000012684F8A060022084F8A10005EB8500AD
:100CF00000EBC50004EB800034223830FFF745FCE0
:100D00002A463946204604F069FC2068466284F889
:100D1000A160002084F8A000BDE8F0810220FBE77C
:100D200070B5040004D094F8A100002510B106E0CD
:100D3000012070BD84F8A050204600F06FF802201A
:100D400084F8A1002068816921F070418161D4E9B3
:100D500001100143D4E90302104301432068826972
:100D600011438161206882682B490A408260A08A11
:100D7000020420688368A6693343134383602068B4
:100D8000C2680A40C260A08B02042068C368266A59
:100D900033431343C360206802690A400261A08C98
:100DA000020420680369A66A334313430361206881
:100DB00042690A404261A08D010420684269236BA8
:100DC0001A430A43426194F83500020294F836004F
:100DD00001042068C36A03F07F43C3622068C36ACA
:100DE00094F83460114333430B43C3622068416B72
:100DF00041F0040141632068416B41F0020141630D
:100E00002068816941F001018161C4F8A45001208A
:100E100084F8A100002070BD00F800F030B536481D
:100E200087B00025016841F080610160006800F032
:100E30008060059030481438016841F40001016079
:100E4000016801F400010591016841F002010160AF
:100E5000016801F002010591016841F02001016083
:100E6000016801F020010591016841F04001016035
:100E7000016801F040010591016841F080010160C5
:100E8000016801F080010591016841F48071016001
:100E90000068032400F48070059020200090012059
:100EA000CDE90204019069461448FFF7DFFD4FF4D5
:100EB000806000900220CDE901050E20CDE90340BD
:100EC00069460F48FFF7D2FD4FF40C600090694669
:100ED0000C48FFF7CBFD4FF47E40009069460A486E
:100EE000FFF7C4FD40F2F760009069460748FFF73E
:100EF000BDFD07B030BD0000443802400004024090
:100F00000014024000180240001C02400020024071
:100F100070B5044690F8A0000E46012820D00125A7
:100F200084F8A050022084F8A10003EB830000EBBA
:100F3000C30004EB800141F8386F886A3044C1E98E
:100F40000102C86A1044C8601A46204604F046FBF5
:100F50002068456284F8A150002084F8A00070BD8C
:100F6000022070BD2DE9F041044690F8A0000F4624
:100F700001281FD0012584F8A050022084F8A10088
:100F800003EB830000EBC30004EB80010026E1E9E2
:100F90000E672046C1E90262C1E90A721A4604F0EE
:100FA0001DFB2068456284F8A15084F8A0600020F1
:100FB000BDE8F0810220FBE708B50020009008BDE5
:100FC00000F01F02012191404009800000F1E02063
:100FD000C0F8001170470000F0B40E4B1B68C3F35B
:100FE0000223C3F10704042C00D904241D1D072D7E
:100FF00001D2002300E0DB1E012606FA04F56D1E77
:101000000D409D409E40761E164045EA0601F0BC0C
:1010100004F097BB0CED00E0064A00F007011068F1
:101020004FF6FF03184040EA0120034908431060CF
:10103000704700000CED00E00000FA052DE9F843D0
:101040001D48016841F0805101600068012700F0EF
:1010500080500090380490FAA0F0DFF86080B0FA79
:1010600080F048F82070FFF7F9FD04464FF47A75D8
:10107000134E04E0FFF7F2FD001BA84213D870687E
:10108000C003F7D54FF4003090FAA0F0B0FA80F02A
:1010900048F82070FFF7E2FD044607E0FFF7DEFDA9
:1010A000001BA84202D90320BDE8F88370688003C2
:1010B000F4D50020F8E700004038024000000E425E
:1010C000007000402DE9F84F04460068DFF8788290
:1010D0009E4DC10747F6C07A4FF0E0464FF0010B36
:1010E0004FF0000901D180074BD59949C1F86890AC
:1010F000FFF7B4FD074604E0FFF7B0FDC01B64280E
:101100007ED828680001F7D420789249C0070DD016
:101110009AFAAAF26068B2FA82F2904096FAA6F3BE
:10112000A268B3FA83F39A401043086020788007DE
:1011300018D5086896FAA6F200F0E040B2FA82F2FA
:10114000D0406268237B920142EA036242EA007067
:101150000860D8F80010E26921F01F01521E114307
:10116000C8F800107A49C1F868B0FFF777FD074664
:1011700004E0FFF773FDC01B642841D82868000114
:10118000F7D52068410701D4000776D57049C1F82A
:101190007090FFF763FD074604E0FFF75FFDC01B9B
:1011A00064282DD82868C0438000F6D520786A4F7F
:1011B00040074FF0706C29D5386896FAA6F100F018
:1011C000E040B1FA81F1C8409AFAAAF22169B2FA74
:1011D00082F291409CFAACF36269B3FA83F39A40CD
:1011E000114396FAA6F2B2FA82F2904001433960B6
:1011F000D8F800106FF0FF0321F4F851226A00E0E4
:1012000079E003EB02221143C8F8001020780007B0
:1012100023D538689CFAACF100F07060B1FA81F126
:10122000C8409AFAAAF22169B2FA82F291409CFA75
:10123000ACF2B2FA82F29040014396FAA6F2A069AB
:10124000B2FA82F2904001433960D8F80010626A25
:1012500021F440311143C8F800103D49C1F870B085
:10126000FFF7FCFC064604E0FFF7F8FC801B64284F
:1012700041D82868C0438000F6D42078800651D534
:1012800032484F464030016841F0805101600068AB
:10129000324E00F080500090306840F48070306032
:1012A000FFF7DCFC054604E0FFF7D8FC401B642890
:1012B00021D83068C005F7D5264E143E3068218D00
:1012C00000F4407001F4407188422BD0306824490A
:1012D00020F44070C1F800B00F603060800710D576
:1012E000FFF7BCFC054641F2883707E0FFF7B6FC84
:1012F000401BB84202D90320BDE8F88F3068800750
:10130000F4D5A06A1149C0F301220831032A13D091
:10131000086820F4F81008603068218DC1F30B01D3
:10132000084330602078C00604D50E4994F82C009C
:10133000C1F8E0010020DFE70A680B4B22F4F81245
:10134000184002430A60E7E78C3802400038024048
:101350000000474284380240883802400070004054
:10136000400E474200104742FFFCFF0F2DE9F05F9F
:10137000DFF8F8A104460F46DAF80000DFF8F08144
:1013800000F00F02C8B27A49814641F2883608F16E
:101390000808BA4261D202468AF80020DAF8000052
:1013A00000F00F00B8427DD12078800707D5D8F82B
:1013B0000020A36822F0F0021A43C8F80020207829
:1013C000C0072DD0606801281AD002281BD003283E
:1013D00019D009688907002964DAD8F8001047464F
:1013E00021F003010143C8F80010FFF737FC054660
:1013F000606801280FD0022818D003281CD027E0ED
:1014000009688903E7E709688901E4E7FFF726FC33
:10141000401BB04258D83868C0F381000128F5D18C
:1014200088E0FFF71BFC401BB0424DD83868C0F382
:1014300081000228F5D17DE03868FFF70FFC401BE2
:10144000B042F9D940E0FFF709FC401BB0423BD85D
:10145000386810F00C0FF6D16CE02078800707D5C3
:10146000D8F80020A36822F0F0021A43C8F8002040
:101470002078C0074CD06068012828D0022829D0E5
:10148000032827D009688907002949DAD8F80020FD
:1014900022F003020243C8F80020FFF7DFFB0546F5
:1014A000606800E03CE001281DD0022829D0032814
:1014B00038D0B3464646306810F00C0F28D0FFF7FE
:1014C000CDFB411B5945F6D90320BDE8F09F0968C3
:1014D0008903D9E709688901D6E7FFF7BFFB411BFC
:1014E000594502D9F0E7B34646463068C0F381005B
:1014F0000128F2D10CE0FFF7B1FB411B594502D99D
:10150000E2E7B34646463068C0F381000228F2D1D4
:101510008AF80090DAF8000000F00F00B84209D015
:101520000120D2E744462068FFF798FB401BB042F9
:10153000F9D9C9E72078400707D5D8F80010E26844
:1015400021F4E0511143C8F800102078000708D5B5
:10155000D8F80010226921F4604141EAC201C8F8BC
:1015600000100F20FFF7A2FB0020AEE7003C024076
:101570000038024010B500F043F808490968F0222D
:1015800092FAA2F201F0F001B2FA82F2D140044ADA
:10159000515CC8400349086010BD00000838024093
:1015A0003A7E00080C00002010B5FFF7E3FF074962
:1015B00009684FF4E05292FAA2F201F4E051B2FA53
:1015C00082F2D140024A515CC84010BD0838024046
:1015D0003A7E000810B5FFF7CDFF074909684FF4C0
:1015E000604292FAA2F201F46041B2FA82F2D14072
:1015F000024A515CC84010BD083802403A7E0008DB
:1016000030B51948006810F00C01184812D0184C79
:1016100004290ED008290DD1134A121F116813682E
:1016200001F03F015D0247F6C07304D5B4FBF1F051
:1016300003E0204630BDB0FBF1F01168194093FA89
:10164000A3F3B3FA83F3D940484311684FF440320F
:1016500092FAA2F201F44031B2FA82F2D140491C6E
:101660004900B0FBF1F030BD083802400024F4001E
:1016700040787D012DE9F84F04460078DFF8FCA2A0
:10168000BF4DC0074FF0000648D0DAF800105046B2
:10169000C1F38101012908D00068C0F3810002284C
:1016A0000AD1281D0068400206D52868800335D578
:1016B0006068002873D031E0DFF8C49209F10209B4
:1016C00089F80060FFF7CAFA074641F2883804E05B
:1016D000FFF7C4FAC11B41457AD828688003F7D4C4
:1016E000207989F80000606860B1FFF7B7FA074613
:1016F00004E0FFF7B3FAC11B4145EDD82868800329
:10170000F7D50BE0FFF7AAFA074604E0FFF7A6FAC1
:10171000C11B4145E0D828688003F7D42078DFF862
:101720006492800744D5DAF80010504611F00C0F8F
:101730004FF0F80809D00068C0F3810002280BD1EF
:101740008E48001F0068400206D42868800714D520
:10175000E068012823D110E0E068D0B10120C9F889
:101760000000FFF77BFA074604E0FFF777FAC01B9B
:101770006428B1D828688007F7D5286898FAA8F2B5
:101780002169B2FA82F220F0F80091400843286003
:101790000EE0C9F80060FFF761FA074605E0EAE0ED
:1017A000FFF75CFAC01B642812D828688007F7D4BA
:1017B0002078000725D5DFF8C4817348616908F1F6
:1017C0006C0881B101210160FFF748FA074605E086
:1017D0007EE0FFF743FAC01B642879D8D8F80000F0
:1017E0008007F6D50DE00660FFF738FA074604E0FB
:1017F000FFF734FAC01B64286AD8D8F800008007C5
:10180000F6D42078400753D55C483830016841F061
:10181000805101600068DFF8748100F08050009012
:10182000D8F8001041F48071C8F80010FFF716FADC
:10183000074604E0FFF712FAC01B642848D8D8F81E
:101840000000C005F6D5DFF834B10BF1680B8BF85A
:101850000060FFF703FA074641F2883804E0FFF71B
:10186000FDF9C11B41457ED8DBF800008007F6D4A6
:10187000207A8BF80000A06868B1FFF7EFF90746FF
:1018800004E0FFF7EBF9C11B41456CD8DBF8000021
:101890008007F6D50CE0FFF7E1F9074604E0FFF713
:1018A000DDF9C11B41455ED8DBF800008007F6D4A6
:1018B000A069E8B3DAF80010C1F3810102295AD017
:1018C000022806D0C9F86060FFF7C8F904464DE069
:1018D00049E04F46C9F86060FFF7C0F9064604E0EA
:1018E000FFF7BCF9801B64283DD828688001F7D435
:1018F000D4E90701084347F6C07191FAA1F1626A81
:10190000B1FA81F18A40A16A4FF0FF3303EB510134
:101910004FF4403393FAA3F3B3FA83F399400A43A5
:1019200010434FF0706292FAA2F2B2FA82F200E033
:101930001FE0E16A914008431049091F0860012037
:101940003866FFF78BF9044604E0FFF787F9001BC0
:10195000642808D828688001F7D50AE0FFF77EF9E7
:10196000001B642802D90320BDE8F88F2868800195
:10197000F4D40020F8E70120F6E700000838024020
:101980000038024000004742800E4742007000408D
:1019900070B50D46040003D094F82C0010B107E098
:1019A000012070BD002084F82D00204600F012F8C0
:1019B000022084F82C00211D2068FEF7C9FFD4E91D
:1019C00000022946FFF714F8012084F82C000020BB
:1019D00070BD0000304800B5016887B041F00101DA
:1019E0000160006800F0010005902B48083801688C
:1019F00041F004010160016801F0040105910168F2
:101A000041F008010160016801F0080105910168D9
:101A100041F010010160016801F0100105910168B9
:101A200041F020010160016801F020010591016889
:101A300041F0400101600068694600F040000590F7
:101A40000D200090022001900120029003200390BD
:101A50000C2004901148FFF709F84CF20370009035
:101A600069460F48FFF702F84FF683700090694609
:101A70000C48FEF7FBFF4FF63F00009069460A480E
:101A8000FEF7F4FF48F23710009069460748FEF76A
:101A9000EDFF07B000BD00003838024000080240EA
:101AA000000C0240001002400014024000180240E6
:101AB00010B5044690F82C00022809D0022084F8C2
:101AC0002C002068FEF76AFF012084F82C0000201B
:101AD00010BD70B5044690F82C000D4602280CD0BD
:101AE000022084F82C002068FEF75EFF2868022898
:101AF00004D0012084F82C00002070BD0520F9E7F7
:101B000070B515460E46040003D094F8490010B194
:101B100007E0012070BD002084F84800204600F056
:101B20001BF804F108012068FEF7A8FE3146A26800
:101B30002068FEF7DFFED4E901022946236BFEF799
:101B40007DFEA168206850F8212042F0010240F893
:101B50002120002070BD00001A4800B5016887B040
:101B600041F001010160006800F001000590154896
:101B70000838016841F008010160016801F00801BE
:101B80000591016841F0100101600068694600F0AC
:101B9000100005904EF2B3700090022001900120D9
:101BA0000290032003900C2004900748FEF75EFF8C
:101BB0004FF68070009069460448FEF757FF07B063
:101BC00000BD000038380240000C02400010024006
:101BD0004FF0E0210428086903D020F004000861D8
:101BE000704740F00400FAE710B5401EB0F1807F66
:101BF00001D3012010BD4FF0E02460610F21601778
:101C000003F09FFD0020A06107202061002010BD8F
:101C1000704790F83900704738B501680446086885
:101C2000CA68C0F3000002F4807238B132B10868AB
:101C300048680090E06B40F00100E06308684A6982
:101C4000C0F3400002F0010238B132B108684868C0
:101C50000090E06B40F00400E06308684A69C0F35C
:101C6000800002F0010238B132B108684868009083
:101C7000E06B40F00200E06308684A69C0F3C0000E
:101C800002F0010238B132B1086848680090E06B98
:101C900040F00800E0630868C968C0F3401001F034
:101CA000200118B111B1204603F03CFE2068016804
:101CB000C068C1F3C01100F0800019B110B1204616
:101CC00003F03EFF21680868CA68C0F3801002F084
:101CD0004002012568B162B1CA68204622F0400284
:101CE000CA6094F8391032290CD080F8395000F0CD
:101CF000DBF8E06B002804D084F839502046FFF769
:101D000087FF38BD222180F83910F0E770B5040054
:101D100004D094F83900002510B106E0012070BD10
:101D200084F83850204600F021F8022084F8390069
:101D30002068C16821F40051C160204603F046FECE
:101D40002068016921F4904101612068416921F016
:101D50002A0141612068C16841F40051C160E56316
:101D6000012084F83900002070BD000010B5006823
:101D70001A4986B088422FD11948016841F0010103
:101D80000160006800F001000590154814300168FA
:101D900041F0100101600068012100F01000059081
:101DA0004FF4007000900220CDE90101039007205C
:101DB0000C4C049069462046FEF758FE2115009110
:101DC00069462046FEF752FE2520FFF7F9F8032268
:101DD00011462520FFF700F906B010BD00100140A4
:101DE000303802400000024090F83930012B01D019
:101DF000122B2BD131B32AB390F83830012B25D0D8
:101E0000012380F8383081628285C2850022C26356
:101E100090F83910122917D0222180F83910016862
:101E2000CB6843F48073CB6001684B6943F00103D6
:101E30004B6180F838200068C16841F02001C16022
:101E400000207047012070473221E6E702207047EA
:101E500030B50068114988420CD1114A50880104FC
:101E600008D41146440409784FF0000306D50A2926
:101E700001D0538030BD40F400400DE00D2909D061
:101E8000C0F30D04074D401C80B229555080C7286F
:101E9000EFD830BD40F48040508030BD001001408C
:101EA0002C000020B80000207047FEE770B51B48EA
:101EB00086B00025016841F001010160016801F070
:101EC00001010591016841F004010160016801F020
:101ED00004010591016841F080010160006803245C
:101EE00000F08000059002200126CDE90204CDE932
:101EF000006569460A48FEF7B9FD700303948DE852
:101F0000610069460748FEF7B1FD0C200090694664
:101F10000548FEF7ABFD06B070BD0000303802404A
:101F20000000024000080240001C024070B50E494B
:101F30000E4A064608881268002422B13046BDE8E1
:101F4000704003F0FFB84D8800214543084602F079
:101F500099FF03F0BFF8B1B2054801E00180641CAD
:101F6000AC42FBD370BD000010020020C80200206C
:101F7000000008602DE9F05F3E4C3F4DA0712968DC
:101F800039B103F0FFF8E88A2080288B6080BDE833
:101F9000F09F38492C252B2689884FF0F00845F210
:101FA00010594FF4305A4FF4285B4FF42C5E2A2717
:101FB0004FF448734FF4A07C4FF4F07260B1A4F872
:101FC00000C0A4F80280494532D1A4F808A0A4F8C2
:101FD0000AB0A4F80CE042E0A4F80080A4F802C023
:101FE000494506D1A4F808A0A4F80AB0A4F80CE06A
:101FF00011E0A1F5C850633825810AD06781A68118
:10200000A1F5A640103809D0A1F5EE40963805D0CC
:1020100007E06681A78122806380F1E7A4F800C011
:102020006280A1F5184006381FD1228063801CE031
:10203000A1F5C85063380FD0A1F5184006380BD071
:1020400025816781A681A1F5A64010380AD0A1F5A7
:10205000EE40963806D008E025816781A68123806E
:102060006280F0E72280A4F802C0BDE8F05F0020A3
:1020700002F036BE10020020C80200202DE9F04117
:10208000044634480D46006820B12046BDE8F041C2
:1020900003F08CB8304E270A3046B1884089A1F54C
:1020A000AA434FEA1528103B0FD0A1F5C853633B54
:1020B00024D003F003F8384602F0F4FFE0B202F057
:1020C000F1FFB08902F0FAFF36E002F0F7FF384680
:1020D00002F0E8FF7089401C80B202F0EFFFE0B22E
:1020E00002F0E0FFB08902F0E9FF404602F0DAFFBB
:1020F000B089401C80B202F0E1FF20E0B17919B94B
:102100003188091B491E8CB202F0D8FF270A3846D5
:1021100002F0C8FFE0B202F0C5FF384602F0C2FF8D
:10212000E0B202F0BFFFB08902F0C8FF404602F003
:10213000B9FFE8B202F0B6FF404602F0B3FFE8B2E2
:1021400002F0B0FF054930890880881C0280BDE894
:10215000F0810000C802002010020020FEFF07608E
:102160002DE9F04F95B003F0DDF9F84C47F2897591
:1021700045F21036A08045F2105947F2967849F69C
:10218000060A41F6631B18B103F088F802F03BBD64
:10219000EF480027016841F002010160006810A9C2
:1021A00000F0020000902020109001201190129069
:1021B00003201390E748FEF759FCE4484FF0204114
:1021C000503802AA0160E449C0E901171021C76034
:1021D000C0E9047187610902C761C0E9097189001A
:1021E000C0E90B7189014763C0E90E7146210B916B
:1021F0000F20CDE90907CDE902070490D3480F97D6
:1022000009A908975038FFF77BFC322003F00CFD3A
:10221000D32002F053FF02F031FDA08002F02EFD2A
:10222000A08002F02BFD4FF6FF7707EA0020A08088
:1022300002F024FDA1880843A0F51341A080413994
:102240007DD0042002F03AFF02F018FDA08002F0D9
:1022500015FDA08002F012FD07EA0020A08002F028
:102260000DFDA1880843A0F50541A080523967D033
:10227000A84264D0D42002F021FF02F0FFFCA0802D
:1022800002F0FCFCA08002F0F9FC07EA0020A0802C
:1022900002F0F4FCA1880843A080B04276D0D3209D
:1022A00002F00CFF02F0EAFCA08002F0E7FCA08044
:1022B00002F0E4FC07EA0020A08002F0DFFCA18825
:1022C0000843A080404561D055214FF4704002F092
:1022D0000BFFAA214FF2010002F006FF52214FF23C
:1022E000020002F001FF08214FF2030002F0FCFEA1
:1022F00001214FF2040002F0F7FE4FF4454002F0D6
:10230000DDFE02F0BBFC07EA0020A0804CF2015089
:1023100002F0D4FE02F0B2FCA1880843A0800520A0
:1023200003F082FCA188494530D0D32002F0C6FEDC
:1023300002F0A4FCA08002F0A1FCA08001E020E05B
:1023400020E002F09BFC07EA0020A08002F096FC4F
:10235000A1880843A080504518D0A12002F0AEFE0D
:1023600002F08CFCA08002F089FC07EA0020A0802B
:1023700002F084FCA1880843A0F5AE41A080613939
:1023800002D003E0A58001E0A4F804B0A18873A006
:10239000FDF7E4FFA088A0F5134141397ED0A842A3
:1023A0007DD1112002F08AFE782003F03DFC36201A
:1023B00002F084FE002002F075FE3A2002F07EFE5C
:1023C000052002F06FFEB22002F078FE0C2002F031
:1023D00069FE0C2002F066FE002002F063FE33204E
:1023E00002F060FE332002F05DFEB72002F066FED0
:1023F000352002F057FEBB2002F060FE322002F0D2
:1024000051FEC02002F05AFE0C2002F04BFEC2200A
:1024100002F054FE012002F045FEC32002F04EFE01
:10242000102002F03FFEC42002F048FE202002F0FF
:1024300039FEC62002F042FE0F2002F033FED0200B
:1024400002F03CFEA42002F02DFEA12002F02AFEA4
:10245000E02002F033FED02002F024FE002002F043
:1024600021FE022002F01EFE072002F01BFE0A20C1
:1024700002F018FE282002F015FE322002F012FEB3
:10248000442002F00FFE422002F00CFE062002F073
:1024900009FE0E2002F006FE122001E066E077E160
:1024A00002F000FE142002F0FDFD172002F0FAFDFC
:1024B000E12002F003FED02002F0F4FD002002F043
:1024C000F1FD022002F0EEFD072002F0EBFD0A20F4
:1024D00002F0E8FD282002F0E5FD312002F0E2FDE7
:1024E000542002F0DFFD472002F0DCFD0E2002F058
:1024F000D9FD1C2002F0D6FD172002F0D3FD1B20D1
:1025000002F0D0FD1E2002F0CDFD2A2002F0D6FD03
:10251000002002F0C7FD002002F0C4FD002002F000
:10252000C1FDEF2002F0BEFD2B2002F0C7FD002010
:1025300002F0B8FD002002F0B5FD012002F0B2FD6E
:102540003F2002F0AFFD292002F0A0BA10020020C7
:102550003038024000040240040100A0204C4344F3
:102560002049443A25780D0A00000000CF2002F0EF
:10257000A5FD002002F096FDC12002F093FD302061
:1025800002F090FDED2002F099FD642002F08AFD3A
:10259000032002F087FD122002F084FD812002F06A
:1025A00081FDE82002F08AFD852002F07BFD1020ED
:1025B00002F078FD7A2002F075FDCB2002F07EFD5E
:1025C000392002F06FFD2C2002F06CFD002002F09B
:1025D00069FD342002F066FD022002F063FDF72061
:1025E00002F06CFD202002F05DFDEA2002F066FDA5
:1025F000002002F057FD002002F054FDC02002F040
:102600005DFD1B2002F04EFDC12002F057FD0120B0
:1026100002F048FDC52002F051FD302002F042FDDD
:10262000302002F03FFDC72002F048FDB72002F045
:1026300039FD362002F042FD482002F033FD3A20F9
:1026400002F03CFD552002F02DFDB12002F036FDD8
:10265000002002F027FD1A2002F024FDB62002F02F
:102660002DFD0A2002F01EFDA22002F01BFDF2202B
:1026700002F024FD002002F015FD262002F01EFDD0
:10268000012002F00FFDE02002F018FD0F2002F003
:1026900009FD2A2002F006FD282002F003FD082093
:1026A00002F000FD0E2002F0FDFC082002F0FAFC12
:1026B000542002F0F7FCA92002F0F4FC432002F0C1
:1026C000F1FC0A2002F0EEFC0F2002F0EBFC0020EF
:1026D00002F0E8FC002002F0E5FC002002F0E2FC41
:1026E000002002F0DFFCE12002F0E8FC002002F014
:1026F000D9FC152002F0D6FC172002F0D3FC0720ED
:1027000002F0D0FC112002F0CDFC062002F0CAFC41
:102710002B2002F0C7FC562002F0C4FC3C2002F043
:10272000C1FC052002F0BEFC102002F0BBFC0F2013
:1027300002F0B8FC3F2002F0B5FC3F2002F0B2FCF2
:102740000F2002F0AFFC2B2002F0B8FC002002F0BA
:10275000A9FC002002F0A6FC012002F0A3FC3F200F
:1027600002F0A0FC2A2002F0A9FC002002F09AFC52
:10277000002002F097FC002002F094FCEF2002F011
:1027800091FC112002F09AFC782003F04DFADAE671
:10279000B0427CD1ED2002F091FC012002F082FCDD
:1027A000FE2002F07FFCEE2002F088FCDE2002F02A
:1027B00079FC212002F076FCF12002F07FFC012060
:1027C00002F070FCDF2002F079FC102002F06AFCBD
:1027D000C42002F073FC8F2002F064FCC62002F0DB
:1027E0006DFC002002F05EFCE22002F05BFCE220C7
:1027F00002F058FCE22002F055FCBF2002F05EFC23
:10280000AA2002F04FFCB02002F058FC0D2002F08C
:1028100049FC002002F046FC0D2002F043FC0020A1
:1028200002F040FC112002F03DFC002002F03AFCD6
:10283000192002F037FC002002F034FC212002F0C5
:1028400031FC002002F02EFC2D2002F02BFC002099
:1028500002F028FC3D2002F025FC002002F022FCC2
:102860005D2002F01FFC002002F01CFC5D2002F045
:1028700019FC002002F016FCB12002F01FFC8020A1
:1028800002F010FC002002F00DFC8B2000E0FCE3C5
:1028900002F008FC002002F005FC962002F002FC89
:1028A000002002F0FFFBB22002F008FC002002F042
:1028B000F9FB002002F0F6FB022002F0F3FB0020FF
:1028C00002F0F0FB032002F0EDFB002002F0EAFB37
:1028D000B32002F0F3FB002002F0E4FB002002F042
:1028E000E1FB002002F0DEFB002002F0DBFB002019
:1028F00002F0D8FB002002F0D5FB002002F0D2FB52
:10290000002002F0CFFB002002F0CCFB002002F000
:10291000C9FB002002F0C6FB002002F0C3FB002030
:1029200002F0C0FB002002F0BDFB002002F0BAFB69
:10293000002002F0B7FB002002F0B4FB002002F000
:10294000B1FB002002F0AEFB002002F0ABFB002048
:1029500002F0A8FB002002F0A5FB002002F0A2FB81
:10296000002002F09FFBB42002F0A8FB8B2002F0B5
:1029700099FB002002F096FB962002F093FB0020CA
:1029800002F090FBA12002F08DFB002002F08AFBF8
:10299000B52002F093FB022002F084FB002002F03D
:1029A00081FB032002F07EFB002002F07BFB042071
:1029B00002F078FB002002F075FBB62002F07EFBEF
:1029C000002002F06FFB002002F06CFBB72002F049
:1029D00075FB002002F066FB002002F063FB3F2045
:1029E00002F060FB002002F05DFB5E2002F05AFB6B
:1029F000002002F057FB642002F054FB002002F09C
:102A000051FB8C2002F04EFB002002F04BFBAC206F
:102A100002F048FB002002F045FBDC2002F042FB04
:102A2000002002F03FFB702002F03CFB002002F08F
:102A300039FB902002F036FB002002F033FBEB2044
:102A400002F030FB002002F02DFBDC2002F02AFB1C
:102A5000002002F027FBB82002F030FB002002F03B
:102A600021FB002002F01EFB002002F01BFB0020D7
:102A700002F018FB002002F015FB002002F012FB10
:102A8000002002F00FFB002002F00CFBBA2002F045
:102A900015FB242002F006FB002002F003FB0020BF
:102AA00002F000FB002002F0FDFAC12002F006FB5C
:102AB000202002F0F7FA002002F0F4FA542002F08D
:102AC000F1FA002002F0EEFAFF2002F0EBFA00200B
:102AD00002F0E8FAC22002F0F1FA0A2002F0E2FA6B
:102AE000002002F0DFFA042002F0DCFA002002F0FD
:102AF000D9FAC32002F0E2FA3C2002F0D3FA002017
:102B000002F0D0FA3A2002F0CDFA002002F0CAFA20
:102B1000392002F0C7FA002002F0C4FA372002F090
:102B2000C1FA002002F0BEFA3C2002F0BBFA0020FD
:102B300002F0B8FA362002F0B5FA002002F0B2FA3C
:102B4000322002F0AFFA002002F0ACFA2F2002F09F
:102B5000A9FA002002F0A6FA2C2002F0A3FA002025
:102B600002F0A0FA292002F09DFA002002F09AFA61
:102B7000262002F097FA002002F094FA242002F0B6
:102B800091FA002002F08EFA242002F08BFA002045
:102B900002F088FA232002F085FA002002F082FA7F
:102BA0003C2002F07FFA002002F07CFA362002F08E
:102BB00079FA002002F076FA322002F073FA00204F
:102BC00002F070FA2F2002F06DFA002002F06AFA8B
:102BD0002C2002F067FA002002F064FA292002F0AB
:102BE00061FA002002F05EFA262002F05BFA002073
:102BF00002F058FA242002F055FA002002F052FAAE
:102C0000242002F04FFA002002F04CFA232002F0B8
:102C100049FA002002F046FAC42002F04FFA62207E
:102C200002F040FA002002F03DFA052002F03AFAE4
:102C3000002002F037FA842002F034FA002002F07B
:102C400031FAF02002F02EFA002002F02BFA1820C0
:102C500002F028FA002002F025FAA42002F022FA5D
:102C6000002002F01FFA182002F01CFA002002F0E7
:102C700019FA502002F016FA002002F013FA0C2084
:102C800002F010FA002002F00DFA172002F00AFA02
:102C9000002002F007FA952002F004FA002002F06A
:102CA00001FAF32002F0FEF9002002F0FBF9E62021
:102CB00002F0F8F9002002F0F5F9C52002F0FEF963
:102CC000322002F0EFF9002002F0ECF9442002F08B
:102CD000E9F9002002F0E6F9652002F0E3F90020AE
:102CE00002F0E0F9762002F0DDF9002002F0DAF9D6
:102CF000882002F0D7F9002002F0D4F9C62002F0B3
:102D0000DDF9202002F0CEF9002002F0CBF91720E7
:102D100002F0C8F9002002F0C5F9012002F0C2F962
:102D2000002002F0BFF9C72002F0C8F9002002F02D
:102D3000B9F9002002F0B6F9002002F0B3F9002042
:102D400002F0B0F9C82002F0B9F9002002F0AAF9A7
:102D5000002002F0A7F9002002F0A4F9002002F000
:102D6000A1F9C92002F0AAF9002002F09BF9002085
:102D700002F098F9002002F095F9002002F092F993
:102D8000002002F08FF9002002F08CF9002002F000
:102D900089F9002002F086F9002002F083F9002072
:102DA00002F080F9002002F07DF9002002F07AF9AB
:102DB000002002F077F9002002F074F9002002F000
:102DC00071F9002002F06EF9E02002F077F9162088
:102DD00002F068F9002002F065F91C2002F062F9A7
:102DE000002002F05FF9212002F05CF9002002F0DF
:102DF00059F9362002F056F9002002F053F9462026
:102E000002F050F9002002F04DF9522002F04AF988
:102E1000002002F047F9642002F044F9002002F09B
:102E200041F97A2002F03EF9002002F03BF98B20B4
:102E300002F038F9002002F035F9992002F032F959
:102E4000002002F02FF9A82002F02CF9002002F057
:102E500029F9B92002F026F9002002F023F9C42054
:102E600002F020F9002002F01DF9CA2002F01AF940
:102E7000002002F017F9D22002F014F9002002F02D
:102E800011F9D92002F00EF9002002F00BF9E02030
:102E900002F008F9002002F005F9F32002F002F92F
:102EA000002002F0FFF8E12002F008F9162002F0FD
:102EB000F9F8002002F0F6F81C2002F0F3F80020E8
:102EC00002F0F0F8222002F0EDF8002002F0EAF81B
:102ED000362002F0E7F8002002F0E4F8452002F086
:102EE000E1F8002002F0DEF8522002F0DBF80020CA
:102EF00002F0D8F8642002F0D5F8002002F0D2F8F1
:102F00007A2002F0CFF8002002F0CCF88B2002F0FB
:102F1000C9F8002002F0C6F8992002F0C3F800209A
:102F200002F0C0F8A82002F0BDF8002002F0BAF8C4
:102F3000B92002F0B7F8002002F0B4F8C42002F083
:102F4000B1F8002002F0AEF8CA2002F0ABF8002081
:102F500002F0A8F8D22002F0A5F8002002F0A2F8B2
:102F6000D82002F09FF8002002F09CF8E02002F048
:102F700099F8002002F096F8F32002F093F8002070
:102F800002F090F8E22002F099F8052002F08AF8A9
:102F9000002002F087F80B2002F084F8002002F0F5
:102FA00081F81B2002F07EF8002002F07BF834202C
:102FB00002F078F8002002F075F8442002F072F870
:102FC000002002F06FF84F2002F06CF8002002F0B1
:102FD00069F8612002F066F8002002F063F87920B9
:102FE00002F060F8002002F05DF8882002F05AF844
:102FF000002002F057F8972002F054F8002002F069
:1030000051F8A62002F04EF8002002F04BF8B7204D
:1030100002F048F8002002F045F8C22002F042F821
:10302000002002F03FF8C72002F03CF8002002F038
:1030300039F8D12002F036F8002002F033F8D6201B
:1030400002F030F8002002F02DF8DD2002F02AF81E
:10305000002002F027F8F32002F024F8002002F00C
:1030600021F8E32002F02AF8052002F01BF80020E6
:1030700002F018F80A2002F015F8002002F012F809
:103080001C2002F00FF8002000E0FDE202F00AF838
:10309000332002F007F8002002F004F8442002F088
:1030A00001F8002001F0FEFF502001F0FBFF00209E
:1030B00001F0F8FF622001F0F5FF002001F0F2FFBF
:1030C000782001F0EFFF002001F0ECFF882001F0F4
:1030D000E9FF002001F0E6FF972001F0E3FF002068
:1030E00001F0E0FFA62001F0DDFF002001F0DAFF93
:1030F000B72001F0D7FF002001F0D4FFC22001F07B
:10310000D1FF002001F0CEFFC72001F0CBFF00204F
:1031100001F0C8FFD12001F0C5FF002001F0C2FF7F
:10312000D52001F0BFFF002001F0BCFFDD2001F041
:10313000B9FF002001F0B6FFF32001F0B3FF00203B
:1031400001F0B0FFE42001F0B9FF012001F0AAFF77
:10315000002001F0A7FF012001F0A4FF002001F0F2
:10316000A1FF022001F09EFF002001F09BFF2A201A
:1031700001F098FF002001F095FF3C2001F092FF44
:10318000002001F08FFF4B2001F08CFF002001F0A8
:1031900089FF5D2001F086FF002001F083FF74208D
:1031A00001F080FF002001F07DFF842001F07AFF14
:1031B000002001F077FF932001F074FF002001F060
:1031C00071FFA22001F06EFF002001F06BFFB32021
:1031D00001F068FF002001F065FFBE2001F062FFF2
:1031E000002001F05FFFC42001F05CFF002001F02F
:1031F00059FFCD2001F056FF002001F053FFD320EE
:1032000001F050FF002001F04DFFDD2001F04AFFEA
:10321000002001F047FFF32001F044FF002001F0FF
:1032200041FFE52001F04AFF002001F03BFF0020B4
:1032300001F038FF002001F035FF002001F032FFDF
:10324000022001F02FFF002001F02CFF292001F0C7
:1032500029FF002001F026FF3C2001F023FF002081
:1032600001F020FF4B2001F01DFF002001F01AFFAC
:103270005D2001F017FF002001F014FF742001F021
:1032800011FF002001F00EFF842001F00BFF002051
:1032900001F008FF932001F005FF002001F002FF7C
:1032A000A22001F0FFFE002001F0FCFEB32001F09F
:1032B000F9FE002001F0F6FEBE2001F0F3FE002032
:1032C00001F0F0FEC42001F0EDFE002001F0EAFE66
:1032D000CD2001F0E7FE002001F0E4FED32001F054
:1032E000E1FE002001F0DEFEDC2001F0DBFE00202C
:1032F00001F0D8FEF32001F0D5FE002001F0D2FE4F
:10330000E62001F0DBFE112001F0CCFE002001F0F0
:10331000C9FE342001F0C6FE002001F0C3FE562095
:1033200001F0C0FE002001F0BDFE762001F0BAFEE3
:10333000002001F0B7FE772001F0B4FE002001F07C
:10334000B1FE662001F0AEFE002001F0ABFE882049
:1033500001F0A8FE002001F0A5FE992001F0A2FED8
:10336000002001F09FFEBB2001F09CFE002001F038
:1033700099FE992001F096FE002001F093FE662050
:1033800001F090FE002001F08DFE552001F08AFE34
:10339000002001F087FE552001F084FE002001F09E
:1033A00081FE452001F07EFE002001F07BFE4320DF
:1033B00001F078FE002001F075FE442001F072FE5D
:1033C000002001F06FFEE72001F078FE322001F0CE
:1033D00069FE002001F066FE552001F063FE00202A
:1033E00001F060FE762001F05DFE002001F05AFE43
:1033F000662001F057FE002001F054FE672001F026
:1034000051FE002001F04EFE672001F04BFE00202F
:1034100001F048FE872001F045FE002001F042FE49
:10342000992001F03FFE002001F03CFEBB2001F09E
:1034300039FE002001F036FE992001F033FE002015
:1034400001F030FE772001F02DFE002001F02AFE71
:10345000442001F027FE002001F024FE562001F058
:1034600021FE002001F01EFE232001F01BFE0020A3
:1034700001F018FE332001F015FE002001F012FECD
:10348000452001F00FFE002001F00CFEE82001F0C5
:1034900015FE002001F006FE002001F003FE992039
:1034A00001F000FE002001F0FDFD872001F0FAFD93
:1034B000002001F0F7FD882001F0F4FD002001F06C
:1034C000F1FD772001F0EEFD002001F0EBFD66201C
:1034D00001F0E8FD002001F0E5FD882001F0E2FDAB
:1034E000002001F0DFFDAA2001F0DCFD002001F04A
:1034F000D9FDBB2001F0D6FD002001F0D3FD9920BD
:1035000001F0D0FD002001F0CDFD662001F0CAFDE4
:10351000002001F0C7FD552001F0C4FD002001F09E
:10352000C1FD552001F0BEFD002001F0BBFD44208F
:1035300001F0B8FD002001F0B5FD442001F0B2FD1E
:10354000002001F0AFFD552001F0ACFD002001F09E
:10355000A9FDE92001F0B2FDAA2001F0A3FD0020A1
:1035600001F0A0FD002001F09DFD002001F09AFD7A
:10357000002001F0A3FDAA2001F094FDCF2001F06E
:103580009DFD002001F08EFD002001F08BFD00204C
:1035900001F088FD002001F085FD002001F082FD92
:1035A000002001F07FFD002001F07CFD002001F0F3
:1035B00079FD002001F076FD002001F073FD002070
:1035C00001F070FD002001F06DFD002001F06AFDAA
:1035D000002001F067FD002001F064FD002001F0F3
:1035E00061FD002001F05EFDF02001F067FD00208C
:1035F00001F058FD502001F055FD002001F052FD72
:10360000002001F04FFD002001F04CFDF32001F0FF
:1036100055FD002001F046FDF92001F04FFD062088
:1036200001F040FD102001F03DFD292001F03AFDA0
:10363000002001F037FD3A2001F040FD552001F057
:1036400031FD112001F03AFD642002F0EDFA29204D
:1036500001F034FD352001F031FD002001F022FDA4
:10366000512001F02BFDFF2001F01CFD532001F043
:1036700025FD2C2001F016FD552001F01FFD8220B4
:1036800001F010FD01F001BA48457DD155214FF4FC
:10369000704001F029FDAA214FF2010001F024FD44
:1036A00052214FF2020001F01FFD4FF203030821E7
:1036B000184601F019FD4FF204070121384601F0C8
:1036C00013FD0D214FF4304001F00EFD0D214BF2A2
:1036D000010001F009FD0D214BF2020001F004FD93
:1036E00034214FF4364001F0FFFC34214BF20160ED
:1036F00001F0FAFC34214BF2026001F0F5FC0D21DF
:103700004FF4314001F0F0FC0D214BF2011001F0BB
:10371000EBFC0D214BF2021001F0E6FC34214FF4DA
:10372000374001F0E1FC34214BF2017001F0DCFC88
:1037300034214BF2027001F0D7FC00214FF43240EB
:1037400001F0D2FC00214BF2012001F0CDFC002160
:103750004BF2022001F0C8FC24214FF4384001F064
:10376000C3FC24214BF6010001F0BEFC24214BF6E2
:10377000020001F0B9FC01214FF43F4001F0B4FC1C
:103780000F214FF4334000E0FEE301F0ADFC0F21C8
:103790004BF2013001F0A8FC0F214BF2023001F096
:1037A000A3FC34214FF4394001F09EFC34214BF648
:1037B000011001F099FC34214BF6021001F094FC49
:1037C00008214FF4354001F08FFC08214BF20150E5
:1037D00001F08AFC08214BF2025001F085FC032124
:1037E0004FF4424001F080FC24214FF43A4001F0B4
:1037F0007BFC24214BF6012001F076FC24214BF6C2
:10380000022001F071FC00214FF43C4001F06CFCFF
:1038100078214BF6014001F067FC00214BF6024095
:1038200001F062FC00214FF43D4001F05DFC782185
:103830004BF6015001F058FC00214BF6025001F00C
:1038400053FC00214FF43E4001F04EFC64214BF646
:10385000016001F049FC00214FF4514001F044FCAB
:1038600033214DF2011001F03FFC00214DF2021016
:1038700001F03AFC34214DF2031001F035FC002137
:103880004DF2041001F030FC3A214DF2051001F028
:103890002BFC00214DF2061001F026FC4A214DF2CE
:1038A000071001F021FC00214DF2081001F01CFC72
:1038B0005C214DF2091001F017FC00214DF20A10B5
:1038C00001F012FC81214DF20B1001F00DFC0021E2
:1038D0004DF20C1001F008FCA6214DF20D1001F084
:1038E00003FC00214DF20E1001F0FEFBE5214DF22C
:1038F0000F1001F0F9FB01214DF2101001F0F4FB63
:1039000013214DF2111001F0EFFB01214DF21210C5
:1039100001F0EAFB54214DF2131001F0E5FB012107
:103920004DF2141001F0E0FB82214DF2151001F070
:10393000DBFB01214DF2161001F0D6FBCA214DF23E
:10394000171001F0D1FB02214DF2181001F0CCFB51
:1039500000214DF2191001F0C7FB02214DF21A109F
:1039600001F0C2FB01214DF21B1001F0BDFB022151
:103970004DF21C1001F0B8FB34214DF21D1001F086
:10398000B3FB02214DF21E1001F0AEFB67214DF298
:103990001F1001F0A9FB02214DF2201001F0A4FB41
:1039A00084214DF2211001F09FFB02214DF22210E3
:1039B00001F09AFBA4214DF2231001F095FB0221A6
:1039C0004DF2241001F090FBB7214DF2251001F0CB
:1039D0008BFB02214DF2261001F086FBCF214DF228
:1039E000271001F081FB02214DF2281001F07CFB31
:1039F000DE214DF2291001F077FB02214DF22A1051
:103A000001F072FBF2214DF22B1001F06DFB02214F
:103A10004DF22C1001F068FBFE214DF22D1001F04B
:103A200063FB03214DF22E1001F05EFB10214DF2DD
:103A30002F1001F059FB03214DF2301001F054FB1F
:103A400033214DF2311001F04FFB03214DF23210C2
:103A500001F04AFB6D214DF2331001F045FB0021CE
:103A60004FF4524001F040FB33214DF2012001F0B0
:103A70003BFB00214DF2022001F036FB34214DF2D8
:103A8000032001F031FB00214DF2042001F02CFB5A
:103A90003A214DF2052001F027FB00214DF20620CE
:103AA00001F022FB4A214DF2072001F01DFB00210D
:103AB0004DF2082001F018FB5C214DF2092001F0C5
:103AC00013FB00214DF20A2001F00EFB81214DF283
:103AD0000B2001F009FB00214DF20C2001F004FB4A
:103AE000A6214DF20D2001F0FFFA00214DF20E202B
:103AF00001F0FAFAE5214DF20F2001F0F5FA01216B
:103B00004DF2102001F0F0FA13214DF2112001F0D6
:103B1000EBFA01214DF2122001F0E6FA54214DF2A8
:103B2000132001F0E1FA01214DF2142001F0DCFA3A
:103B300082214DF2152001F0D7FA01214DF2162015
:103B400001F0D2FACA214DF2172001F0CDFA02217C
:103B50004DF2182001F0C8FA00214DF2192001F0B1
:103B6000C3FA02214DF21A2001F0BEFA01214DF2F2
:103B70001B2001F0B9FA02214DF21C2001F0B4FA29
:103B800034214DF21D2001F0AFFA02214DF21E202A
:103B900001F0AAFA67214DF21F2001F0A5FA0221D7
:103BA0004DF2202001F0A0FA84214DF2212001F0F5
:103BB0009BFA02214DF2222001F096FAA4214DF247
:103BC000232001F091FA02214DF2242001F08CFA19
:103BD000B7214DF2252001F087FA02214DF226206F
:103BE00001F082FACF214DF2272001F07DFA022167
:103BF0004DF2282001F078FADE214DF2292001F063
:103C000073FA02214DF22A2001F06EFAF2214DF2F0
:103C10002B2001F069FA02214DF22C2001F064FA08
:103C2000FE214DF22D2001F05FFA03214DF22E20EE
:103C300001F05AFA10214DF22F2001F055FA03211C
:103C40004DF2302001F050FA33214DF2312001F0D5
:103C50004BFA03214DF2322001F046FA6D214DF26C
:103C6000332001F041FA00214FF4534001F03CFAB7
:103C700033214DF2013001F037FA00214DF20230CC
:103C800001F032FA34214DF2033001F02DFA002117
:103C90004DF2043001F028FA3A214DF2053001F0DE
:103CA00023FA00214DF2063001F01EFA4A214DF2AE
:103CB000073001F019FA00214DF2083001F014FA32
:103CC0005C214DF2093001F00FFA00214DF20A306B
:103CD00001F00AFA81214DF20B3001F005FA0021C2
:103CE0004DF20C3001F000FAA6214DF20D3001F03A
:103CF000FBF900214DF20E3001F0F6F9E5214DF20D
:103D00000F3001F0F1F901214DF2103001F0ECF922
:103D100013214DF2113001F0E7F901214DF212307B
:103D200001F0E2F954214DF2133001F0DDF90121E7
:103D30004DF2143001F0D8F982214DF2153001F026
:103D4000D3F901214DF2163001F0CEF9CA214DF21E
:103D5000173001F0C9F902214DF2183001F0C4F911
:103D600000214DF2193001F0BFF902214DF21A3055
:103D700001F0BAF901214DF21B3001F0B5F9022131
:103D80004DF21C3001F0B0F934214DF21D3001F03C
:103D9000ABF902214DF21E3001F0A6F967214DF278
:103DA0001F3001F0A1F902214DF2203001F09CF901
:103DB00084214DF2213001F097F902214DF2223099
:103DC00001F092F9A4214DF2233001F08DF9022186
:103DD0004DF2243001F088F9B7214DF2253001F081
:103DE00083F902214DF2263001F07EF9CF214DF208
:103DF000273001F079F902214DF2283001F074F9F1
:103E0000DE214DF2293001F06FF902214DF22A3006
:103E100001F06AF9F2214DF22B3001F065F902212F
:103E20004DF22C3001F060F9FE214DF22D3001F001
:103E30005BF903214DF22E3001F056F910214DF2BD
:103E40002F3001F051F903214DF2303001F04CF9DF
:103E500033214DF2313001F047F903214DF2323078
:103E600001F042F96D214DF2333001F03DF90021AE
:103E70004FF4544001F038F933214DF2014001F084
:103E800033F900214DF2024001F02EF934214DF2B8
:103E9000034001F029F900214DF2044001F024F91A
:103EA0003A214DF2054001F01FF900214DF2064084
:103EB00001F01AF94A214DF2074001F015F90021ED
:103EC0004DF2084001F010F95C214DF2094001F07B
:103ED0000BF900214DF20A4001F006F981214DF263
:103EE0000B4001F001F900214DF20C4001F0FCF80B
:103EF000A6214DF20D4001F0F7F800214DF20E40E1
:103F000001F0F2F8E5214DF20F4001F0EDF801214A
:103F10004DF2104001F0E8F813214DF2114001F08C
:103F2000E3F801214DF2124001F0DEF854214DF288
:103F3000134001F0D9F801214DF2144001F0D4F8FA
:103F400082214DF2154001F0CFF801214DF21640CB
:103F500001F0CAF8CA214DF2174001F0C5F802215C
:103F60004DF2184001F0C0F800214DF2194001F067
:103F7000BBF802214DF21A4001F0B6F801214DF2D2
:103F80001B4001F0B1F800E0FCE202214DF21C40C0
:103F900001F0AAF834214DF21D4001F0A5F80221EC
:103FA0004DF21E4001F0A0F867214DF21F4001F0D4
:103FB0009BF802214DF2204001F096F884214DF249
:103FC000214001F091F802214DF2224001F08CF8DD
:103FD000A4214DF2234001F087F802214DF2244044
:103FE00001F082F8B7214DF2254001F07DF8022161
:103FF0004DF2264001F078F8CF214DF2274001F034
:1040000073F802214DF2284001F06EF8DE214DF2E6
:10401000294001F069F802214DF22A4001F064F8CC
:10402000F2214DF22B4001F05FF802214DF22C40BD
:1040300001F05AF8FE214DF22D4001F055F8032110
:104040004DF22E4001F050F810214DF22F4001F0BA
:104050004BF803214DF2304001F046F833214DF288
:10406000314001F041F803214DF2324001F03CF8BB
:104070006D214DF2334001F037F800214FF45540E7
:1040800001F032F833214DF2015001F02DF80021FA
:104090004DF2025001F028F834214DF2035001F0A6
:1040A00023F800214DF2045001F01EF83A214DF2A0
:1040B000055001F019F800214DF2065001F014F8F6
:1040C0004A214DF2075001F00FF800214DF208503F
:1040D00001F00AF85C214DF2095001F005F80021C9
:1040E0004DF20A5001F000F881214DF20B5000F022
:1040F000FBFF00214DF20C5000F0F6FFA6214DF21F
:104100000D5000F0F1FF00214DF20E5000F0ECFFD9
:10411000E5214DF20F5000F0E7FF01214DF2105064
:1041200000F0E2FF13214DF2115000F0DDFF0121FC
:104130004DF2125000F0D8FF54214DF2135000F010
:10414000D3FF01214DF2145000F0CEFF82214DF239
:10415000155000F0C9FF01214DF2165000F0C4FFC8
:10416000CA214DF2175000F0BFFF02214DF2185046
:1041700000F0BAFF00214DF2195000F0B5FF022106
:104180004DF21A5000F0B0FF01214DF21B5000F02B
:10419000ABFF02214DF21C5000F0A6FF34214DF27E
:1041A0001D5000F0A1FF02214DF21E5000F09CFFB7
:1041B00067214DF21F5000F097FF02214DF2205071
:1041C00000F092FF84214DF2215000F08DFF02217A
:1041D0004DF2225000F088FFA4214DF2235000F050
:1041E00083FF02214DF2245000F07EFFB7214DF2F3
:1041F000255000F079FF02214DF2265000F074FFA7
:10420000CF214DF2275000F06FFF02214DF22850D0
:1042100000F06AFFDE214DF2295000F065FF022117
:104220004DF22A5000F060FFF2214DF22B5000F0C9
:104230005BFF02214DF22C5000F056FFFE214DF2A3
:104240002D5000F051FF03214DF22E5000F04CFF95
:1042500010214DF22F5000F047FF03214DF2305056
:1042600000F042FF33214DF2315000F03DFF0321B9
:104270004DF2325000F038FF6D214DF2335000F016
:1042800033FF00214FF4564000F02EFF33214DF252
:10429000016000F029FF00214DF2026000F024FFD0
:1042A00034214DF2036000F01FFF00214DF2046045
:1042B00000F01AFF3A214DF2056000F015FF0021D1
:1042C0004DF2066000F010FF4A214DF2076000F049
:1042D0000BFF00214DF2086000F006FF5C214DF25B
:1042E000096000F001FF00214DF20A6000F0FCFEC1
:1042F00081214DF20B6000F0F7FE00214DF20C60C1
:1043000000F0F2FEA6214DF20D6000F0EDFE00215E
:104310004DF20E6000F0E8FEE5214DF20F6000F076
:10432000E3FE01214DF2106000F0DEFE13214DF29C
:10433000116000F0D9FE01214DF2126000F0D4FEB0
:1043400054214DF2136000F0CFFE01214DF21460B4
:1043500000F0CAFE82214DF2156000F0C5FE012179
:104360004DF2166000F0C0FECA214DF2176000F059
:10437000BBFE02214DF2186000F0B6FE00214DF2A6
:10438000196000F0B1FE02214DF21A6000F0ACFE9F
:1043900001214DF21B6000F0A7FE02214DF21C60CE
:1043A00000F0A2FE34214DF21D6000F09DFE0221BE
:1043B0004DF21E6000F098FE67214DF21F6000F084
:1043C00093FE02214DF2206000F08EFE84214DF21A
:1043D000216000F089FE02214DF2226000F084FE8F
:1043E000A4214DF2236000F07FFE02214DF22460F3
:1043F00000F07AFEB7214DF2256000F075FE022133
:104400004DF2266000F070FECF214DF2276000F0E3
:104410006BFE02214DF2286000F066FEDE214DF2B7
:10442000296000F061FE02214DF22A6000F05CFE7E
:10443000F2214DF22B6000F057FE02214DF22C606C
:1044400000F052FEFE214DF22D6000F04DFE0321E2
:104450004DF22E6000F048FE10214DF22F6000F06A
:1044600043FE03214DF2306000F03EFE33214DF259
:10447000316000F039FE03214DF2326000F034FE6D
:104480006D214DF2336000F02FFE5521381F00F0F2
:104490002BFEAA21F81E00F027FE5221B81E00F0C4
:1044A00023FE0821184600F01FFE0021384600F0C8
:1044B0001BFECC214FF4314000F016FE00214BF2E0
:1044C000011000F011FE05214FF4364000F00CFE03
:1044D00070214FF4374000F007FE70214BF201705D
:1044E00000F002FE01214FF4384000F0FDFD0321F1
:1044F0004BF6010000F0F8FD03214BF6020000F03E
:10450000F3FD03214BF6030000F0EEFD02214FF412
:104510003C4000F0E9FD00214BF6014000F0E4FDD5
:1045200000214BF6024000F0DFFDD0214FF449405E
:1045300000F0DAFD02214CF6011000F0D5FD50210B
:104540004CF6021000F0D0FD50214CF6031000F0A4
:10455000CBFD50214CF6041000F0C6FD00214FF4B5
:10456000545000F0C1FD55214FF4685000F0BCFDDF
:104570004FF4885000F0A2FD782001F071FB4FF459
:10458000245083E240457CD1112000F097FD782033
:1045900001F04AFB362000F091FD482000F082FD3A
:1045A0003A2000F08BFD552000F07CFDF02000F05B
:1045B00085FDC32000F076FDF02000F07FFD962001
:1045C00000F070FDB42000F079FD012000F06AFDDC
:1045D000B62000F073FD0A2000F064FDA22000F078
:1045E00061FDB72000F06AFDC62000F05BFDB92038
:1045F00000F064FD022000F055FDE02000F052FDC7
:10460000C02000F05BFD802000F04CFD162000F083
:1046100049FDC12000F052FD192000F043FDC220E9
:1046200000F04CFDA72000F03DFDC52000F046FD48
:10463000162000F037FDE82000F040FD402000F09B
:1046400031FD8A2000F02EFD002000F02BFD00201F
:1046500000F028FD292000F025FD192000F022FDA2
:10466000A52000F01FFD332000F01CFDE02000F02D
:1046700025FDF02000F016FD072000F013FD0D20B1
:1046800000E063E000F00EFD042000F00BFD0520CB
:1046900000F008FD142000F005FD362000F002FDBA
:1046A000542000F0FFFC4C2000F0FCFC382000F00F
:1046B000F9FC132000F0F6FC142000F0F3FC2E208F
:1046C00000F0F0FC342000F0EDFCE12000F0F6FCFE
:1046D000F02000F0E7FC102000F0E4FC142000F0D3
:1046E000E1FC0E2000F0DEFC0C2000F0DBFC0820DA
:1046F00000F0D8FC352000F0D5FC442000F0D2FCBE
:104700004C2000F0CFFC262000F0CCFC102000F064
:10471000C9FC122000F0C6FC2C2000F0C3FC3220A3
:1047200000F0C0FCF02000F0C9FC3C2000F0BAFC16
:10473000F02000F0C3FC692000F0B4FC782001F008
:1047400073FA212000F0BAFCFDF7FDBE50457CD184
:10475000FF2000F0B3FCFF2000F0A4FC982000F044
:10476000A1FC062000F09EFCBC2000F0A7FC01206C
:1047700000F098FC0F2000F095FC612000F092FC06
:10478000FF2000F08FFC012000F08CFC012000F0E5
:1047900089FC0B2000F086FC102000F083FC372001
:1047A00000F080FC632000F07DFCFF2000F07AFC2C
:1047B000FF2000F077FC012000F074FC012000F0E5
:1047C00071FC002000F06EFC002000F06BFCFF206C
:1047D00000F068FC522000F065FC012000F062FC53
:1047E000002000F05FFC402000F05CFCBD2000F0E9
:1047F00065FC012000F056FC232000F053FC45200E
:1048000000F050FC672000F04DFC012000F04AFC55
:10481000232000F047FC452000F044FC672000F016
:1048200041FCBE2000F04AFC002000F03BFC0120CF
:1048300000F038FCAB2000F035FC602000F032FCCA
:10484000222000F02FFC222000E022E100F02AFCD0
:10485000222000F027FC222000F024FC222000F07F
:1048600021FCC72000F02AFC362000F01BFCED20C4
:1048700000F024FC7F2000F015FC0F2000F012FC5B
:10488000C02000F01BFC0F2000F00CFC0B2000F0FF
:1048900009FC0A2000F006FCFC2000F00FFC0820B8
:1048A00000F000FCDF2000F009FC002000F0FAFB23
:1048B000002000F0F7FB002000F0F4FB002000F0E7
:1048C000F1FB002000F0EEFB202000F0EBFBF320DA
:1048D00000F0F4FB742000F0E5FBB42000F0EEFBE8
:1048E000002000F0DFFB002000F0DCFB002000F0E7
:1048F000D9FBF72000F0E2FB822000F0D3FBB120CF
:1049000000F0DCFB002000F0CDFB132000F0CAFB20
:10491000132000F0C7FBF22000F0D0FB802000F055
:10492000C1FB042000F0BEFB402000F0BBFB2820B0
:1049300000F0B8FBC12000F0C1FB172000F0B2FB73
:10494000882000F0AFFB882000F0ACFB202000F0B6
:10495000A9FBE02000F0B2FB002000F0A3FB0A203E
:1049600000F0A0FB122000F09DFB102000F09AFB4D
:104970000E2000F097FB202000F094FBCC2000F0EC
:1049800091FB072000F08EFB062000F08BFB0B2034
:1049900000F088FB0E2000F085FB0F2000F082FB6A
:1049A0000D2000F07FFB152000F07CFB102000F0B4
:1049B00079FB002000F076FBE12000F07FFB002077
:1049C00000F070FB0B2000F06DFB132000F06AFB81
:1049D0000D2000F067FB0E2000F064FB1B2000F0B0
:1049E00061FB712000F05EFB062000F05BFB0620FF
:1049F00000F058FB0A2000F055FB0F2000F052FB9E
:104A00000E2000F04FFB0F2000F04CFB152000F0B3
:104A100049FB0C2000F046FB002000F043FB2A205D
:104A200000F04CFB002000F03DFB002000F03AFBC2
:104A3000012000F037FBDF2000F034FB2B2000F0DA
:104A40003DFB002000F02EFB002000F02BFB03209C
:104A500000F028FB1F2000F025FB3A2000F02EFB81
:104A6000552000F01FFB362000F028FB002000F04E
:104A700019FB112000F022FB782001F0D5F8292045
:104A800000F01CFB142001F0CFF82C2000F016FBE6
:104A9000B9E05845FCD1E22000F010FB1D2000F0E9
:104AA00001FB022000F0FEFA042000F0FBFA642073
:104AB00001F0D6F8E02000F001FB012000F0F2FA4E
:104AC0000A2001F0B1F8E02000F0F8FA032000F02D
:104AD000E9FA0C2001F0A8F8012000F0EFFA0A2012
:104AE00001F0A2F8E62000F0E9FA2F2000F0DAFA4F
:104AF000FF2000F0D7FAFF2000F0D4FAB02000F039
:104B0000DDFA202000F0CEFA002000F0CBFA0320DE
:104B100000F0C8FA40F21F3000F0C4FA012000F0A3
:104B2000C1FA40F2DF1000F0BDFA002000F0BAFA3E
:104B3000B42000F0C3FA042000F0B4FA40F21F40A1
:104B400000F0B0FA002000F0ADFA2E2000F0AAFA32
:104B5000002000F0A7FA002000F0A4FA002000F0E6
:104B6000A1FA002000F09EFAB62000F0A7FA022079
:104B700000F098FA4FF4037000F094FA002000F06F
:104B800091FA172000F08EFA152000F08BFA002021
:104B900000F088FA002000F085FAF02000F08EFA8C
:104BA000032000F07FFA292000F088FAD02000F0DE
:104BB00085FA002000F076FABE2000F07FFA05208A
:104BC00000F070FAFE2000F06DFA012000F06AFAA1
:104BD000002000F067FA002000F064FA002000F0E6
:104BE00061FAB82000F06AFA032000F05BFA0120B5
:104BF00000F058FABA2000F061FA012000F052FAF1
:104C0000642000F045F8A088A0F5134141390BD08D
:104C1000B04209D0484507D0584505D0A84203D036
:104C2000404501D0504519D14FF02040D0F8041133
:104C300021F00F01C0F80411D0F8041121F47061C3
:104C4000C0F80411D0F8041141F00501C0F80411B6
:104C5000D0F8041141F4A061C0F804110020FDF760
:104C600089F905490120C1F894024FF6FF70FDF75C
:104C70005DF915B0BDE8F08F00804042034808B5EB
:104C80000088ADF80000BDF8000008BD0000086015
:104C900010B50246BE2000F011FA052000F002FA1D
:104CA000104602F0B4FF9FED0C1B53EC112B02F0E9
:104CB000C1FF02F07FFF80B200F0F4F9012000F0A4
:104CC000F1F9FF2000F0EEF9002000F0EBF9BDE86B
:104CD0001040002000F0E6B966666666666604402D
:104CE00070B5674C00232146A279898841F6631587
:104CF000012A01D01AB11BE0A94202D118E0A94251
:104D000016D1082814D2DFE800F00406080A0C0EB9
:104D1000101206200CE007200AE0042008E005201D
:104D200006E0012004E0002002E0032000E0022071
:104D3000082812D2DFE800F0110406080A0C0E1051
:104D400080230AE0402308E0C02306E0202304E09B
:104D5000602302E0A02300E0E023362045F2105655
:104D6000B14200D10002A1F51342413A07D0A1F5AA
:104D7000EE42893A03D0A1F5EE42963A01D143F0D2
:104D80000803194600F0B0F9A288AA420AD0980692
:104D90002088618802D5884202D303E0884201D985
:104DA000218060806089B24240D100F087F9002004
:104DB00000F078F96089401C80B200F07FF9002093
:104DC00000F070F96089801C80B200F077F92088CB
:104DD000401EC0F30F2000F065F96089C01C80B24E
:104DE00000F06CF92078401EC0B200F05BF9A08999
:104DF00000F064F9002000F055F9A089401C80B251
:104E000000F05CF9002000F04DF9A089801C80B210
:104E100000F054F96088401EC0F30F2000F042F902
:104E2000A089C01C80B200F049F921E000F046F9E9
:104E3000002000F037F9002000F034F92088401EEF
:104E4000C0F30F2000F02EF92078401EC0B200F011
:104E500029F9A08900F032F9002000F023F90020A0
:104E600000F020F96088401EC0F30F2000F01AF90E
:104E7000A078BDE87040401EC0B200F013B9000039
:104E800010020020F0B53A4D0C460246060AA988E9
:104E90002846270A4089A1F5C853633B16D0A1F5DF
:104EA000AA43103B4BD000F009F9304600F0FAF865
:104EB000D0B200F0F7F8A88900F000F9384600F009
:104EC000F1F8E0B2BDE8F04000F0ECB8A97929B300
:104ED00000F0F4F8304600F0E5F8D0B200F0E2F867
:104EE0002888401EC0F30F2000F0DCF82878401E10
:104EF000C0B200F0D7F8A88900F0E0F8384600F01A
:104F0000D1F8E0B200F0CEF86888401EC0F30F2060
:104F100000F0C8F8A878401EC0B2D3E72988891AE3
:104F2000491E8AB200F0CAF8002000F0BBF8002049
:104F300000F0B8F8100A00F0B5F8D0B2D9E700F0E8
:104F4000BDF8304600F0AEF86889401C80B200F031
:104F5000B5F8D0B200F0A6F8A88900F0AFF838464E
:104F600000F0A0F8A889401C80B200F0A7F8A8E7DC
:104F7000100200202DE9F84F82461F460E468B4650
:104F8000580700D0012000EBD700790810FB01F092
:104F9000203AC0B202F0FF090025009047E00C2F34
:104FA00010D0102F12D0182F14D0202F42D1224908
:104FB00001EBC9104FF00008445D200610D51F48D2
:104FC000026811E009EB49001D4906E01D4901EBAB
:104FD0000910EFE71C4909EBC90001EB8000E9E784
:104FE0000A9828B91548426831465046FDF746F8F8
:104FF0006006040E1548761CB6B24088B04219D936
:10500000A6EB0B00B84209D10AF101001FFA80FAA1
:105010000E485E46018851450CD906E008F10100B2
:1050200000F0FF08B8F1080FC7D36D1CEDB200986F
:105030008542B4D3BDE8F88F0A96000834000020FA
:105040004A7E0008BE820008AE88000810020020D8
:105050002DE9F84F044600F0FF0810190D46DDE970
:105060000A761FFA80FA58191FFA80F94FF0000BE0
:1050700011E0544502D3E819444685B24D450FD29C
:105080003B4629462046CDF800B0FFF773FF04EBFE
:10509000570084B2761C3278A2F120005E28E8D94D
:1050A000BDE8F88F01B5BDF80000ADF80000BDF80F
:1050B00000000149088008BD0000086001B5BDF886
:1050C0000000ADF80000BDF800000149088008BDEF
:1050D000FEFF07600248034900890880704700000E
:1050E00010020020FEFF0760024A1080901C018021
:1050F00070470000FEFF0760104810B5016886B0D9
:1051000041F0020101600068012100F002000590F9
:105110000320CDE90210CDE90001094C6946204683
:10512000FBF7A4FC012211462046FBF792FD012269
:1051300002212046FBF78DFD06B010BD303802403D
:105140000004024008B500900548018BC08A491E42
:105150008BB2401E82B20021084600F045F808BD1F
:10516000C802002000B58DB0082309920490009376
:1051700006916846FBF7A6FF002800D001200DB07D
:1051800000BD000010B5084B1C465875A1888AB2B6
:10519000218889B220B1012801D1D9821A8310BD9A
:1051A000DA82198310BD0000C8020020F0B50C4F50
:1051B00094B23D46DFF82CC02B68EA692D7D7E7DD8
:1051C0005CF8255026B103FB01004243AC52F0BD10
:1051D0007E68301A401E03FB001050432C52F0BD75
:1051E000C80200203C0000202DE9F843274EDDF8DE
:1051F00020900024757D0DB1054606E077680D46C8
:10520000B91A1A463B1A491E5B1E306896F814C03C
:10521000DFF87C80521B871A58F82CC0F66900FB17
:10522000015006FB00C51B487F1EBFB2066846F44E
:1052300000060660006800F400000090164806684A
:1052400026F0010606604FF44036066002264663EB
:105250000764C563591AF30303EB0242491C114367
:105260004164C0F83890016841F0010101605A01C1
:1052700002E0641C944202D241688907F9D5816832
:1052800041F002018160BDE8F8830000C8020020FF
:105290003C0000203038024000B002402DE9FF5FA2
:1052A00000F040F904460126784DA0F586404FF401
:1052B000F0714FF0280941F2180A423847D0320401
:1052C000A4F5E0434FF448704FF4C67B843B50D0C4
:1052D00003238C27A4F5E04C4FF4B47EBCF1160CEC
:1052E00054D0A4F5E0484FF4A06CB8F118085DD094
:1052F000A4F58048B8F561785BD054450CD1C5E978
:1053000000C0AF810A2028822881E88168826B81F1
:1053100002217046FFF726FF5D482A685E4F028033
:10532000696841800220E8615A48386057485B4B01
:10533000A8384FF00008C0E90038C0F80880C0F86D
:105340000C80544545D14FF08053036143E04FF446
:105350008870C5E900102E816E810820A5F80C9098
:10536000E881052129828203688204214FF490702C
:10537000D0E7C5E900012E816E812E20A88117207B
:10538000E881D2202882162068821FE04FF48060D6
:1053900028604FF416706860142028816B81AF81FB
:1053A000E881A02028820C206882B1E7C5E900C00E
:1053B000B2E7C5E900015820A881A5F81090302077
:1053C00028812020E8810D2068826B8103215846C6
:1053D000A0E7C0F810802C89631E43616B89A3F19C
:1053E000010CC0F818C0B5F80CC06444A4F1010C5D
:1053F000C0F81CC0B5F80EC06344A3F1010CC0F89E
:1054000020C0A2F1010CA444C0F824C0A1F1010CF9
:105410009C44C0F828C0B5F810C062442244521E13
:10542000C2626A8A11441944491E016380F83680B9
:1054300080F8358080F834801448A838FBF770FC79
:1054400007200621CDE90208CDE90081FF230222D1
:105450000020396800F026F8A888002280B2009069
:105460002888114683B2104600F04AF80020FFF762
:1054700089FE0B4885F81480C0F8946204B04FF0A0
:10548000FF30BDE8F05FFFF75DBE0000C8020020FE
:1054900010020020000000C03C0000200068014015
:1054A000008040422DE9F0438DB0164614AA002436
:1054B00092E88013114D009402942A6801926D685D
:1054C000CDE904634FEA0823CDE9067303954FEA5B
:1054D00009230DF1240E08938EE8260002468DF86C
:1054E000324006488DF831408DF830C06946A83802
:1054F000FBF7EDFB0DB0BDE8F0830000C802002013
:1055000070B51E46044603460548049DFBF700FDA2
:1055100023462A463146BDE870400148FBF722BDCC
:105520002002002030B52A4887B00021026842F0EE
:1055300040020260026802F040020592026842F4F2
:10554000807202600068234C00F480700590402057
:10555000CDE9000101200290032003906946204616
:10556000FBF784FA84201C4D009069462846FBF71F
:105570007DFA40212046FBF767FB044604212846BC
:10558000FBF762FB44EA400480212846FBF75CFB02
:1055900044EA8000C0B2062817D2DFE800F0030713
:1055A0000A0D101344F2423007B030BD47F28400B8
:1055B000FAE747F21600F7E747F21800F4E744F27B
:1055C0008430F1E741F21800EEE70020ECE700003C
:1055D000303802400018024000200240F0B5046854
:1055E0008B88E568C5F30B452B441D04882303EB2A
:1055F000C213E65806F47046E65004680F68E66881
:10560000C6F30B46761C3E442E43E65003688C8955
:10561000DD68C5F30A052C4425048C2404EBC21470
:105620001E5906F470461E5103688F68DE68C6F383
:105630000A06761C3E442E431E519423046803EB55
:10564000C213E55825F00705E55005680C69EC50D4
:1056500091F8313005681F0291F832301C040B7E3E
:105660001E069C2303EBC21355F803C04FF0000C39
:1056700045F803C091F8305034433D432543046856
:10568000E5509823046803EBC213E55825F0FF05A5
:10569000E55005684C69EC50A023046803EBC21385
:1056A000E55840F20776B543E550D1E907452C436C
:1056B0000568EC50AC23046803EBC213E55844F8CA
:1056C00003C005684C6AEC500B698BB3012B32D0D8
:1056D000042B32D0022B30D0032B2ED0072B2CD012
:1056E0000123B024056804EBC2142E5906F0E0260D
:1056F0002E51D1E90065AD1B0E8D5D435E43ED1C5F
:1057000045EA064305682B51B423046803EBC21332
:10571000E5586FF30A05E5500468C96AE15000686E
:10572000842101EBC211425842F001024250F0BD07
:10573000FFE70423D5E70323D3E70223D1E7FEE7FE
:1057400070470907090E002806DA00F00F0000F183
:10575000E02080F8141D704700F1E02080F800146C
:105760007047000000B5254887B023490022C0E9F2
:1057700000120121816008211023C0E90313402396
:1057800043614FF4C073C0E906320A0202624A0262
:1057900042628A0282620220CDE900010621029162
:1057A000CDE903100590069069461448FCF7F0F81F
:1057B000002301221146184600F022F84FF4FA7037
:1057C00000F04EFA002301220221184600F018F8DA
:1057D000002308220321184600F012F84FF40C733E
:1057E00001220421002000F00BF840F2AB21034815
:1057F000FCF75EF907B000BD400100A0E802002000
:105800001FB5002410B1012802D002E0102400E0EE
:105810000824CDE90014CDE902234FF480526946F3
:105820000348FCF756F9002800D0012004B010BD51
:10583000E802002070B51E4C92B00025266846F0A4
:1058400080562660246804F080541194194C266810
:1058500046F44046266024680DF1240C04F44044CC
:105860001194012400940194022406948CE80D0004
:105870006605CDE907616846FBF7FCFE00B1FEE76F
:10588000FBF7DCFB00B1FEE70CA90F2081E831003B
:105890004FF4A0500F904FF48050109005210CA8A9
:1058A000FBF764FD002800D0FEE712B070BD0000D9
:1058B000403802400070004010B501F01FFF012881
:1058C00001D001F00FFCBDE81040FBF7CDB900009E
:1058D0001048016841F4700101600F48016841F00F
:1058E000010101600C4A00210832116002680B4B73
:1058F0001A400260031D0A4A1A60026822F48022DC
:10590000026005480C300160024958068039086081
:105910007047000088ED00E000380240FFFFF6FE0F
:105920001030002410B590F83910222903D0322904
:1059300001D0022010BD8168B1F5805F11D00169EE
:10594000002901681FD0496801F07F03816A4A1C61
:1059500082620B70C18D491E0904090CC18518D0E3
:105960002FE00269816A002A0268526805D0D2B22B
:105970000A80816A491C8162ECE7C2F308020A804E
:10598000816A891CF7E74A68816A4B1C83620A7046
:10599000E0E70168CA6822F02002CA6090F8391076
:1059A000322910D00168CA6822F48072CA60016886
:1059B0004A6922F001024A61012180F83910FCF79E
:1059C00047FA002010BD1221F7E700002DE9F04151
:1059D000044600680169E26821F440510A4302610B
:1059E0002068C16849F20C6291432369A268E569A5
:1059F0001A4363692B431A430A43C2602068416912
:105A000021F44072A16911434161E06964263225A5
:105A1000B0F5004F484A494920681DD0884201D05E
:105A2000904269D1FBF7D6FD00EBC00101EB0010FD
:105A30006168B0468900B0FBF1F1B1FBF8F6FBF705
:105A4000C9FD00EBC00101EB001061688900B0FBEB
:105A5000F1F7FBF7BFFD68E0884201D0904219D111
:105A6000FBF7B8FD00EBC00101EB00106168B04628
:105A70004900B0FBF1F1B1FBF8F6FBF7ABFD00EB31
:105A8000C00101EB001061684900B0FBF1F7FBF7C2
:105A9000A1FD18E0FBF788FD00EBC00101EB001051
:105AA0006168B0464900B0FBF1F1B1FBF8F6FBF7D5
:105AB0007BFD00EBC00101EB001061684900B0FB09
:105AC000F1F7FBF771FD00EBC00101EB001061681D
:105AD0004900B0FBF1F1B1FBF8F06FF01801484359
