:020000040800F2
:10000000D8C3002015030008D51A00086F1A00088D
:10001000D11A0008DD0700086D210008000000006B
:100020000000000000000000000000005D02000869
:10003000E107000800000000B1020008C91B000829
:100040002F0300082F0300082F0300082F030008C8
:100050002F0300082F0300082F0300082F030008B8
:100060002F0300082F0300082F0300082F030008A8
:100070002F0300082F0300082F0300082F03000898
:100080002F0300082F0300082F0300082F03000888
:100090002F0300082F0300082F0300082F03000878
:1000A0002F0300082F0300082F0300082F03000868
:1000B0002F030008411C00082F0300082F0300082D
:1000C0002F0300082F0300082F0300082F03000848
:1000D0002F0300081D2100082F0300082F0300082C
:1000E0002F0300082F0300082F0300082F03000828
:1000F0002F0300082F0300082F0300082F03000818
:100100002F0300082F0300087D1C00082F030008A0
:100110002F0300082F0300082F0300082F030008F7
:100120002F0300082F0300082F0300082F030008E7
:100130002F0300082F0300082F0300082F030008D7
:100140002F0300082F0300082F0300082F030008C7
:100150002F0300082F0300082F0300082F030008B7
:100160002F0300082F0300082F0300082F030008A7
:100170002F0300082F0300082F03000800000000D1
:100180002F0300082F0300082F0300082F03000887
:100190002F0300082F0300082F0300082F03000877
:1001A0002F0300082F0300082F03000800F002F8B7
:1001B00000F044F80AA090E8000C82448344AAF1BD
:1001C0000107DA4501D100F039F8AFF2090EBAE8BB
:1001D0000F0013F0010F18BFFB1A43F0010318477B
:1001E0004844000068440000103A24BF78C878C131
:1001F000FAD8520724BF30C830C144BF04680C602D
:10020000704700000023002400250026103A28BF74
:1002100078C1FBD8520728BF30C148BF0B60704778
:10022000642900F00381732900F0108200207047D8
:100230001FB504F0EBF91FBD10B510BD00F09BFA1F
:100240001146FFF7F5FF02F041F800F0B9FA03B4E8
:10025000FFF7F2FF03BC01F08BFF00002A4B196887
:100260000868B0E8F04F80F30988BFF36F8F4FF054
:10027000000080F311887047000000000648006805
:10028000006880F3088862B661B6BFF34F8FBFF392
:100290006F8F00DF00BF00BF08ED00E0DFF80C004B
:1002A000016841F470010160704700BF88ED00E013
:1002B000EFF30980BFF36F8F134B1A681EF0100F16
:1002C00008BF20ED108A20E9F04F106008B44FF00D
:1002D000500080F31188BFF34F8FBFF36F8F03F08F
:1002E00071FA4FF0000080F3118808BC19680868A3
:1002F000B0E8F04F1EF0100F08BFB0EC108A80F38A
:100300000988BFF36F8F704734000020EFF305803A
:10031000704700000948804709480047FEE7FEE7AC
:10032000FEE7FEE7FEE7FEE7FEE7FEE7FEE7FEE7A5
:1003300004480549054A064B70470000DD1B0008CC
:10034000AD010008D8BD0020D8C30020D8BF0020D0
:10035000D8BF0020704700000FB4044910B503AAAD
:10036000029800F077F910BC5DF814FB2C00002017
:100370002DE9F0410E460446002020622046E16847
:10038000884730B3252805D0D4E901219047206A59
:10039000401CF2E7E168204600278847050018D096
:1003A000A5F14100192802D820354FF400673246E4
:1003B000294620462760FFF733FF40B1012804D0CB
:1003C000F61D26F007060836D8E7361DD6E728467C
:1003D000DAE7206ABDE8F08170B50C460546012ACF
:1003E00005D02878800600D5EA69002302E00123C1
:1003F00005E05B1C934202D2E05C0028F9D1A869B9
:10040000E618C01AA861286A184428622846AFF383
:10041000008004E0D5E9012114F8010B9047B442B3
:10042000F8D32846AFF3008070BD00002DE9F041FD
:100430000646002410687529314616A510D0AFF382
:100440000080002802DA404213A507E031688A07DD
:1004500001D512A502E0490704D511A5012401E048
:10046000AFF3008000210A2206F1240709E0B0FB67
:10047000F2FCB0FBF2F302FB1C003030785418465B
:10048000491C0028F3D123462A463046BDE8F041F6
:1004900000F059B8000000002D0000002B00000003
:1004A00020000000032A40F2308010F0030C00F01E
:1004B000158011F8013BBCF1020F624498BF11F89E
:1004C00001CB00F8013B38BF11F8013BA2F1040257
:1004D00098BF00F801CB38BF00F8013B11F00303CF
:1004E00000F0CA80083AC0F0088051F8043B083A8E
:1004F00051F804CBA0E80810F5E7121D5CBF51F8D5
:10050000043B40F8043BAFF30080D20724BF11F84E
:10051000013B11F801CB48BF11F8012B24BF00F8B3
:10052000013B00F801CB48BF00F8012B704702F0F7
:10053000FF0343EA032242EA024200F0D1B87047C7
:100540007047704770472DE9F0470D46994692462F
:10055000044600F124080168880604D5E06921F00A
:100560001001216000E00120A84201DD471B00E0EE
:100570000027A1697A1902EB0900081AA061207806
:10058000C00602D42046AFF30080002608E0D4E97C
:1005900001211AF806009047206A401C761C206250
:1005A0004E45F4DB2078C0060AD52046AFF3008024
:1005B00006E0D4E9012130209047206A401C2062E7
:1005C000381EA7F10107F4DC07E0D4E9012118F88F
:1005D00005009047206A401C2062281EA5F10105F5
:1005E000F3DC2046AFF300802078000602D502201D
:1005F000BDE8F0870120FBE701694A1C0261087829
:10060000704700B58FB0CDE9013100210591054952
:100610007944CDE9031011466846FFF7A9FE0FB0F3
:1006200000BD0000E5FFFFFF10B5436913B1AFF354
:10063000008001E0FFF7D0FE012010BD127800F12C
:1006400024010A7000224A700122EDE711684FF080
:10065000FF32E9E7074B70B50D467B44FFF7D1FF4A
:100660000446284600F05CF810B14FF0FF3070BD32
:10067000204670BDBB1B000010B5203AC0F00B80B7
:10068000B1E81850203AA0E81850B1E81850A0E896
:100690001850BFF4F5AF5FEA027C24BFB1E81850F0
:1006A000A0E8185044BF18C918C0BDE810405FEA60
:1006B000827C24BF51F8043B40F8043B08BF7047DC
:1006C000D20728BF31F8023B48BF11F8012B28BFE1
:1006D00020F8023B48BF00F8012B70474FF00002A2
:1006E0000429C0F0128010F0030C00F01F80CCF140
:1006F000040CBCF1020F18BF00F8012BA8BF20F8B2
:10070000022BA1EB0C0100F011B85FEAC17C24BF01
:1007100000F8012B00F8012B48BF00F8012B7047AF
:10072000007B00F0800070474FF0000200B51346D8
:1007300094469646203922BFA0E80C50A0E80C5001
:10074000B1F12001BFF4F7AF090728BFA0E80C50B2
:1007500048BF0CC05DF804EB890028BF40F8042BAB
:1007600008BF704748BF20F8022B11F0804F18BF18
:1007700000F8012B7047754600F02CF8AE460500D6
:100780006946534620F00700854618B020B5FFF7AC
:10079000CFFDBDE820404FF000064FF000074FF0BE
:1007A00000084FF0000B21F00701AC46ACE8C0098F
:1007B000ACE8C009ACE8C009ACE8C0098D46704798
:1007C00010B50446AFF300802046BDE81040FFF7A7
:1007D0003EBD00000048704774BD002000BFFEE72A
:1007E00070470000F8B502460B46002500240020A3
:1007F0000021E6E0012606FA01F51E6806EA050476
:10080000AC4273D15E68022E02D05E68122E13D104
:10081000CF0802F1200656F827004E07F70E0F26E4
:10082000BE40B0434F07FF0E1E69BE403043CF08A5
:1008300002F1200646F8270010684F000326BE404C
:10084000B0431E7906F003064F00BE4030431060EF
:100850005E68012E08D05E68022E05D05E68112EFB
:1008600002D05E68122E13D190684F000326BE405E
:10087000B0434F00DE68BE403043906050680126B0
:100880008E40B0431E79C6F300168E403043506050
:10089000D0684F000326BE40B0434F009E68BE4064
:1008A0003043D0605E6806F08056B6F1805FA8D114
:1008B00000BF00260096454E366846F48046434FFA
:1008C0003E603E46366806F48046009600BF00BF94
:1008D0003F4E8F0856F827008E07370F0F26BE4071
:1008E000B0433C4EB24202D100262EE068E03A4EC0
:1008F000B24201D1012628E0384EB24201D102268F
:1009000023E0374EB24201D103261EE0354EB242FB
:1009100001D1042619E0344EB24201D1052614E07B
:10092000324EB24201D106260FE0314EB24201D121
:1009300007260AE02F4EB24201D1082605E02E4ECE
:10094000B24201D1092600E00A268F073F0FBE40C0
:1009500030431F4E8F0846F82700284E3068A043CA
:100960005E6806F48036B6F5803F00D12043234E02
:100970003060361D3068A0435E6806F40036B6F578
:10098000003F00D120431D4E361D3060361D3068BB
:10099000A0435E6806F48016B6F5801F00D12043A0
:1009A000164E08363060361D3068A0435E6806F487
:1009B0000016B6F5001F00D12043104E0C363060F3
:1009C000491C1029FFF416AFF8BD0000443802405E
:1009D00008380140000002400004024000080240C4
:1009E000000C0240001002400014024000180240B7
:1009F000001C02400020024000240240003C014054
:100A00000AB1816101E00B0483617047014800680D
:100A1000704700002000002002480068401C014987
:100A2000086070472000002010B50D48006840F4B1
:100A300000700B4908600846006840F48060086058
:100A40000846006840F480700860032000F06CF8ED
:100A50000F2000F007F800F017F8002010BD00008C
:100A6000003C024070B5044600F01CFA4FF47A7165
:100A7000B0FBF1F5284600F0CFFC00222146501EC5
:100A800000F014F8002070BD08B50020009000BFF1
:100A900008BD00BF00F01F020121914042099200F1
:100AA00002F1E022C2F8001100BF70472DE9F05FAB
:100AB00080460D461646002701F00EF807463946D7
:100AC0002A46334601F00700C0F1070ABAF1040FC5
:100AD00002D94FF0040A01E0C0F1070AD14600F143
:100AE000040ABAF1070F02D24FF0000A01E0A0F1A8
:100AF000030AD4464FF0010A0AFA09FAAAF1010AD8
:100B00000AEA020A0AFA0CFA4FF0010B0BFA0CFB84
:100B1000ABF1010B0BEA030B4AEA0B0421464046FA
:100B200000F0E2FFBDE8F09F00BF00F00702064BB7
:100B300019684FF6FF031940044B0B4343EA0221A7
:100B4000014B196000BF70470CED00E00000FA0592
:100B500038B5002400BF002000902348006840F012
:100B60008050214908600846006800F080500090DD
:100B700000BF00BF0120010491FAA1F1B1FA81F197
:100B80001A4A42F82100FFF741FF044607E0FFF749
:100B90003DFF001BB0F57A7F01D9032038BD144812
:100BA000406800F48030B0F5803FF0D1012041046E
:100BB00091FAA1F1B1FA81F10C4A42F82100FFF754
:100BC00025FF044607E0FFF721FF001BB0F57A7F01
:100BD00001D90320E2E70648406800F40030B0F590
:100BE000003FF0D10020D9E74038024000000E421B
:100BF0000070004070B504460E460025A748006806
:100C000000F00F00B0426FD2A4490E700846006891
:100C100000F00F00B04201D0012070BD207800F03C
:100C20000200022807D19E48006820F0F000A16869
:100C300008439B490860207800F0010000283ED05E
:100C40006068012807D1964808380068C0F3404022
:100C5000B8B90120E1E76068022802D06068032883
:100C600007D18F4808380068C0F3406048B90120B8
:100C7000D3E78B4808380068C0F3400008B901206A
:100C8000CBE78748006820F0030061680843844987
:100C90000860FFF7BBFE05466068012810D108E038
:100CA000FFF7B4FE401B41F28831884201D903208E
:100CB000B3E77B48006800F00C000428F0D1CDE0D9
:100CC0006068022811D108E0FFF7A0FE401B41F246
:100CD0008831884201D903209FE77148006800F0FD
:100CE0000C000828F0D1B9E024E06068032810D196
:100CF00008E0FFF78BFE401B41F28831884201D9A2
:100D000003208AE76648006800F00C000328F0D151
:100D1000A4E008E0FFF77AFE401B41F288318842E8
:100D200001D9032079E75E48006800F00C00002834
:100D3000F0D193E0207800F00200022807D1584853
:100D4000006820F0F000A168084355490860207849
:100D500000F00100002877D06068012807D15048D2
:100D600008380068C0F34040B8B9012055E7606812
:100D7000022802D06068032807D149480838006873
:100D8000C0F3406048B9012047E74548083800688B
:100D9000C0F3400008B901203FE74148006820F057
:100DA0000300616808433E490860FFF72FFE0546CF
:100DB0006068012810D108E0FFF728FE401B41F2CF
:100DC0008831884201D9032027E73548006800F0C0
:100DD0000C000428F0D137E06068022810D108E048
:100DE000FFF714FE401B41F28831884201D90320ED
:100DF00013E72B48006800F00C000828F0D123E02E
:100E00006068032810D108E0FFF700FE401B41F2A4
:100E10008831884201D90320FFE62148006800F0AC
:100E20000C000328F0D10FE008E0FFF7EFFD401BB6
:100E300041F28831884201D90320EEE61848006863
:100E400000F00C000028F0D114490E70084600682C
:100E500000F00F00B04201D00120DEE6207800F063
:100E60000400042807D10E48006820F4E050E1682F
:100E700008430B490860207800F00800082808D1D2
:100E80000748006820F46040216940EAC100044935
:100E900008600F20FFF7E6FD0020BEE6003C0240A0
:100EA0000838024010B500F045F80949096801F01A
:100EB000F001F02292FAA2F2B2FA82F2D140054A8F
:100EC000515CC840044908600846006810BD000035
:100ED00008380240164600080C00002010B5FFF745
:100EE000E1FF0749096801F4E0514FF4E05292FA3A
:100EF000A2F2B2FA82F2D140024A515CC84010BD5F
:100F0000083802401646000810B5FFF7CBFF074926
:100F1000096801F460414FF4604292FAA2F2B2FA19
:100F200082F2D140024A515CC84010BD08380240EC
:100F30001646000870B50021002200230020274C2F
:100F4000246804F00C0424B1042C04D0082C41D1F2
:100F500003E0234840E023483EE0204C241F24685F
:100F600004F03F011D4C241F246804F4800484B164
:100F70001C4CB4FBF1F5194C241F246847F6C076CD
:100F8000344096FAA6F6B6FA86F6F44005FB04F26B
:100F90000FE0134CB4FBF1F5104C241F246847F606
:100FA000C076344096FAA6F6B6FA86F6F44005FB0B
:100FB00004F20A4C241F246804F440344FF44035F2
:100FC00095FAA5F5B5FA85F5EC40641C6300B2FB13
:100FD000F3F001E0024800BF00BF70BD08380240D6
:100FE0000024F40040787D0138B5044600252078BF
:100FF00000F00100002866D0F748006800F00C00FF
:1010000004280DD0F448006800F00C00082813D123
:10101000F148001F006800F48000B0F5800F0BD18C
:10102000ED4808380068C0F3404000284BD06068A5
:10103000002848D1012038BD0020E749891F0870E9
:10104000FFF7E4FC054608E0FFF7E0FC401B41F237
:101050008831884201D90320EDE7DF48083800686D
:10106000C0F340400028EFD12079DB49891F087088
:101070006068A0B1FFF7CAFC054608E0FFF7C6FCB0
:10108000401B41F28831884201D90320D3E7D2487E
:1010900008380068C0F340400028EFD013E0FFF7A5
:1010A000B5FC054608E0FFF7B1FC401B41F2883172
:1010B000884201D90320BEE7C74808380068C0F35A
:1010C00040400028EFD1207800F00200022869D1CA
:1010D000C148006800F00C0058B1BF48006800F03B
:1010E0000C00082821D1BC48001F006800F48000D3
:1010F000D8B9B94808380068C0F3400020B1E068AA
:10110000012801D0012096E7B3480838006820F094
:10111000F800F82292FAA2F2B2FA82F22169914022
:101120000843AD49083908603CE0E06828B3012075
:10113000AA490860FFF76AFC054606E0FFF766FC6F
:10114000401B642801D9032075E7A34808380068CC
:10115000C0F340000028F1D09F480838006820F014
:10116000F800F82292FAA2F2B2FA82F221699140D2
:10117000084399490839086014E00020974908603D
:10118000FFF744FC054606E0FFF740FC401B6428DF
:1011900001D903204FE7904808380068C0F34000A9
:1011A0000028F1D1207800F0080008282CD16069CF
:1011B000A8B101208A490860FFF728FC054606E02F
:1011C000FFF724FC401B642801D9032033E7824841
:1011D0006C300068C0F340000028F1D014E000201B
:1011E0007F490860FFF712FC054606E0FFF70EFC9A
:1011F000401B642801D903201DE777486C30006844
:10120000C0F340000028F1D1207800F00400042849
:101210006FD100BF002000906F483830006840F068
:1012200080506D49383108600846006800F08050F1
:10123000009000BF00BF6B48006840F480706949AF
:101240000860FFF7E3FB054606E0FFF7DFFB401B06
:10125000642801D90320EEE66248006800F480703B
:101260000028F2D000205C4968310870FFF7CEFBFF
:10127000054608E0FFF7CAFB401B41F2883188426F
:1012800001D90320D7E6544868300068C0F3400015
:101290000028EFD1207A504968310870A068A0B1C9
:1012A000FFF7B4FB054608E0FFF7B0FB401B41F237
:1012B0008831884201D90320BDE64748683000687C
:1012C000C0F340000028EFD013E0FFF79FFB054676
:1012D00008E0FFF79BFB401B41F28831884201D9AF
:1012E0000320A8E63C4868300068C0F340000028AE
:1012F000EFD1A069F0B33848006800F00C0008286E
:1013000072D0A069022850D1002034490866FFF746
:101310007DFB054606E0FFF779FB401B642801D9F9
:10132000032088E62C4808380068C0F34060002895
:10133000F1D1D4E90701084347F6C07292FAA2F24C
:10134000B2FA82F2616A914008430122A16AC2EBBB
:1013500051014FF4403292FAA2F2B2FA82F2914075
:1013600008434FF0706292FAA2F2B2FA82F2E16A96
:10137000914000E03AE008431749091F0860012046
:1013800016490866FFF742FB054606E0FFF73EFBFD
:10139000401B642801D903204DE60F480838006837
:1013A000C0F340600028F1D020E000200B4908661F
:1013B000FFF72CFB054606E0FFF728FB401B6428DF
:1013C00001D9032037E6044808380068C0F34060BC
:1013D0000028F1D10AE007E0083802400000474247
:1013E000800E474200700040012024E6002022E6E3
:1013F000042808D14FF0E021096941F004014FF0C1
:10140000E022116107E04FF0E021096921F00401B9
:101410004FF0E0221161704770B504462546681E02
:10142000B0F1807F01D301200FE0681E4FF0E02172
:1014300048610F214FF0FF3000F056FB00204FF0C5
:10144000E021886107200861002070BD7047704767
:1014500010B504460CB9012010BD94F8390028B924
:10146000002084F83800204600F00CF8022084F8B0
:101470003900211D206800F01FFC012084F839008C
:101480000020E9E738B504461C492068884218D195
:1014900000BF002000901A48006840F00200184980
:1014A00008600846006800F00200009000BF00BF1E
:1014B000002204211D20FFF7F9FA1D20FFF7E9FAA9
:1014C0001BE010492068884217D100BF002000901F
:1014D0000B48006840F008000949086008460068A9
:1014E00000F00800009000BF00BF0022052132205C
:1014F000FFF7DCFA3220FFF7CCFA38BD00040040D9
:1015000040380240000C004001460868C06840F0C6
:1015100001000A68D0600868006840F001000A68AD
:10152000106000207047704710B5044620680069BD
:10153000C0F34000D8B12068C068C0F34000B0B12B
:101540006FF0020021680861012020762068806920
:1015500000F0030018B12046FFF7E5FF05E0204644
:1015600000F0ADF8204600F0ABF8002020762068AF
:101570000069C0F38000D8B12068C068C0F3800063
:10158000B0B16FF004002168086102202076206865
:10159000806900F4407018B12046FFF7C4FF05E0F1
:1015A000204600F08CF8204600F08AF800202076D3
:1015B00020680069C0F3C000D8B12068C068C0F3DB
:1015C000C000B0B16FF008002168086104202076E7
:1015D0002068C06900F0030018B12046FFF7A3FFA0
:1015E00005E0204600F06BF8204600F069F8002086
:1015F000207620680069C0F30010D8B12068C06868
:10160000C0F30010B0B16FF010002168086108202D
:1016100020762068C06900F4407018B12046FFF7BA
:1016200082FF05E0204600F04AF8204600F048F826
:10163000002020762068006900F0010058B1206881
:10164000C06800F0010030B16FF00100216808614E
:10165000204600F037F820680069C0F3C01058B188
:101660002068C068C0F3C01030B16FF080002168FE
:1016700008612046FFF7EAFE20680069C0F3801089
:1016800058B12068C068C0F3801030B16FF04000DE
:1016900021680861204600F03DF820680069C0F329
:1016A000401058B12068C068C0F3401030B16FF0EE
:1016B0002000216808612046FFF7C9FE10BD704771
:1016C0007047000010B504460648844203D106A0C6
:1016D000FEF742FE05E00948844202D108A0FEF769
:1016E0003BFE10BDB001002054494D33CAE4B3F6AF
:1016F0002E2E2E2E2E2E2E0D0A000000EC01002084
:1017000054494D35CAE4B3F62E2E2E2E2E2E2E0D14
:101710000A00000070477047014691F83900704791
:10172000F8B50446002500262068006800F0010591
:101730002068C06800F480767DB176B100BF0020DB
:10174000009020680068009020684068009000BF0A
:1017500000BFE06B40F00100E06320680068C0F368
:1017600040052068406900F001067DB176B100BFF8
:101770000020009020680068009020684068009079
:1017800000BF00BFE06B40F00400E0632068006829
:10179000C0F380052068406900F001067DB176B194
:1017A00000BF00200090206800680090206840681A
:1017B000009000BF00BFE06B40F00200E0632068D3
:1017C0000068C0F3C0052068406900F001067DB1E3
:1017D00076B100BF0020009020680068009020686B
:1017E0004068009000BF00BFE06B40F00800E0637D
:1017F00020680068C0F340152068C06800F020062B
:101800001DB116B1204600F0E1FA20680068C0F36F
:10181000C0152068C06800F080061DB116B12046D2
:1018200000F044FC20680068C0F380152068C068A0
:1018300000F040061DB116B1204600F0AFFAE06B93
:1018400028B1012084F839002046FFF764FFF8BD75
:1018500010B504460CB9012010BDA06900B100E02C
:1018600000BF94F8390028B9002084F838002046D9
:1018700000F026F8022084F839002068C06820F4BF
:1018800000502168C860204600F0FEFA2068006918
:1018900020F49040216808612068406920F02A0007
:1018A000216848612068C06840F400502168C86021
:1018B0000020E063012084F839000020CCE700001C
:1018C00010B586B004462249206888423ED100BF48
:1018D000002000901F48006840F001001D4908608A
:1018E0000846006800F00100009000BF00BF00BF84
:1018F0000020009017481430006840F0100015498F
:10190000143108600846006800F01000009000BF25
:1019100000BF481501900220029001200390022090
:1019200004900720059001A90B48FEF75BFF4FF4D8
:101930008060019001A90848FEF754FF2520FFF7B9
:10194000A8F8032211462520FFF7B0F806B010BD15
:1019500000100140303802400000024030B503461C
:10196000002493F83940012C01D0122C37D101B159
:101970000AB9012030BD00BF93F83800012801D119
:101980000220F7E7012083F8380000BF99629A85AA
:10199000DA850020D86393F83900122803D1322069
:1019A00083F8390002E0222083F839001868C06803
:1019B00040F480701D68E8601868406940F00100DC
:1019C0001D68686100BF002083F8380000BF1868F8
:1019D000C06840F020001D68E8600020CAE70220CF
:1019E000C8E700001D4A0168914236D11C490988A8
:1019F00001F4004189BB1A49098801F4804171B1A1
:101A0000184909780A2903D00021154A118024E0D9
:101A10001349098841F40041114A11801DE0114920
:101A200009780D2906D10E49098841F480410C4AF4
:101A3000118012E00B490978094A1288C2F30D029D
:101A4000094B995406490988491C054A11801146D9
:101A50000988C72901DD002111807047001001406D
:101A60003000002032000020A8000020704700BF96
:101A7000FEE7000000B587B000BF002001901248CB
:101A8000006840F00200104908600846006800F055
:101A90000200019000BF00BF0320029001200390CC
:101AA00004900320059002A90848FEF79BFE01223E
:101AB00011460648FEF7A4FF012202210348FEF763
:101AC0009FFF07B000BD0000303802400004024014
:101AD00000BFFEE77047000002480068C0F3022024
:101AE000704700000CED00E010B5002807DA0A0787
:101AF000140E054A00F00F031B1FD45403E00A071D
:101B0000130E024A135410BD18ED00E000E400E08B
:101B10002DE9F04192B00546884616461F4600243E
:101B200000BF002000902648006840F08050244903
:101B300008600846006800F08050009000BF00BFB9
:101B400000BF002000901F48006840F440401D493D
:101B500008600846006800F44040009000BF00BFE5
:101B600001200690079002200C9041050D91CDF8C0
:101B700038800F951096119706A8FFF735FA04469E
:101B80000CB100BFFEE7FEF7E3FF04460CB100BF57
:101B9000FEE70F20019002200290002003904FF4F6
:101BA000A05004904FF480500590052101A8FFF744
:101BB00021F804460CB100BFFEE712B0BDE8F08189
:101BC000403802400070004010B502F077FA01285A
:101BD00001D001F0F9FEFEF71FFF10BD14480068A8
:101BE00040F47000124908601248006840F001009B
:101BF0001049086000200F49083108600D4800684E
:101C00000D4908400B4908600C48091D0860081F71
:101C1000006820F48020091F0860002005490C316D
:101C200008604FF00060024980390860704700008A
:101C300088ED00E000380240FFFFF6FE103000247F
:101C400010B50248FFF770FC10BD0000B001002085
:101C500070B505460C4607480749086008464460C9
:101C600000218160C5600161FFF7F2FB0248FFF7C8
:101C70004BFC70BD00040040B001002010B50248CC
:101C8000FFF752FC10BD0000EC01002070B50546C6
:101C90000C460748074908600846446000218160F7
:101CA000C5600161FFF7D4FB0248FFF72DFC70BD52
:101CB000000C0040EC010020002202682C4B9842EE
:101CC0000ED0B0F1804F0BD02A4B984208D02A4B4F
:101CD000984205D0294B984202D0294B984201D115
:101CE000012300E000231BB122F070024B681A436D
:101CF0001F4B984220D0B0F1804F1DD01D4B984211
:101D00001AD01D4B984217D01C4B984214D01C4B34
:101D1000984211D01B4B98420ED01B4B98420BD0CF
:101D20001A4B984208D01A4B984205D0194B98424A
:101D300002D0194B984201D1012300E000231BB1CE
:101D400022F44072CB681A4302608B68C3620B684E
:101D50008362074B984202D0094B984201D101237C
:101D600000E000230BB10B6903630123436170475B
:101D7000000001400004004000080040000C00404A
:101D8000000401400040014000440140004801407F
:101D900000180040001C00400020004010B5044620
:101DA0002068C06820F040002168C86094F83900BD
:101DB000322803D1222084F8390002E0012084F87F
:101DC00039002046FFF752FE002010BD70B50446D2
:101DD000002694F83960222E01D0322E52D1A0680C
:101DE000B0F5805F13D1A56A206940B920684068CA
:101DF000C0F308002880A06A801CA06219E0206857
:101E00004068C0B22880A06A401CA06211E020692E
:101E100038B920684068C1B2A26A501CA062117033
:101E200007E02068406800F07F01A26A501CA062B1
:101E30001170E08D401E80B2E08508BB2068C0684C
:101E400020F020002168C86094F83900322803D1BE
:101E5000122084F839000EE02068C06820F48070F9
:101E60002168C8602068406920F00100216848614D
:101E7000012084F839002046FFF7B4FD002070BD32
:101E80000020FCE70220FAE72DE9F0410446002596
:101E90002068056925F44055E06805432068056120
:101EA0002068C56849F20C6085432169A068084331
:101EB00061690843E169084305432068C5602068FB
:101EC000456925F44075A069054320684561E069CE
:101ED000B0F5004F72D173492068884203D072492F
:101EE0002068884234D1FFF70FF800EBC00101EB06
:101EF000001061684900B0FBF1F06421B0FBF1F61D
:101F0000FFF702F800EBC00101EB00106168490027
:101F1000B0FBF1F7FEF7F8FF00EBC00101EB00109A
:101F200061684900B0FBF1F06421B0FBF1F000EB17
:101F3000C00101EB0010A7EB8000322101EB001083
:101F40006421B0FBF1F066F31F1021688860A6E001
:101F5000FEF7C4FF00EBC00101EB0010616849000F
:101F6000B0FBF1F06421B0FBF1F6FEF7B7FF00EB38
:101F7000C00101EB001061684900B0FBF1F7FEF70A
:101F8000ADFF00EBC00101EB001061684900B0FB40
:101F9000F1F06421B0FBF1F000EBC00101EB0010A7
:101FA000A7EB8000322101EB00106421B0FBF1F0BF
:101FB00066F31F102168886071E0FFE739492068E7
:101FC000884203D038492068884234D1FEF79CFF0C
:101FD00000EBC00101EB001061688900B0FBF1F07B
:101FE0006421B0FBF1F6FEF78FFF00EBC00101EBBF
:101FF000001061688900B0FBF1F7FEF785FF00EB88
:10200000C00101EB001061688900B0FBF1F06421B0
:10201000B0FBF1F000EBC00101EB0010A7EB80007A
:10202000322101EB00106421B0FBF1F066F31F10C8
:102030002168886033E0FEF751FF00EBC00101EB3F
:10204000001061688900B0FBF1F06421B0FBF1F68B
:10205000FEF744FF00EBC00101EB0010616889004E
:10206000B0FBF1F7FEF73AFF00EBC00101EB001007
:1020700061688900B0FBF1F06421B0FBF1F000EB86
:10208000C00101EB0010A7EB8000322101EB001032
:102090006421B0FBF1F066F31F1021688860BDE891
:1020A000F0810000001001400014014010B501460D
:1020B000002391F83930122B01D0322B2CD18868B3
:1020C000B0F5805F0FD10A6A1088C0F308000C6871
:1020D0006060086918B9086A801C086209E0086A2B
:1020E000401C086205E00C6A601C086220780C68DD
:1020F0006060C88C401E80B2C88458B90868C06847
:1021000020F080000C68E0600868C06840F0400083
:102110000C68E060002010BD0220FCE770B50024D0
:102120000F4D1048FFF7FCFA00BF03E0641CAC42FF
:1021300000D904E00B48FFF7EFFA0128F6D100BF01
:10214000002403E0641CAC4200D906E001220649E9
:102150000448FFF703FC0028F4D100BF70BD000065
:10216000FFFF0100700100203200002000BFFEE7E9
:1021700000BF704770B504460420FFF739F90C48DA
:10218000046025464FF47A704543012009490880D0
:102190004FF0E020006940F002004FF0E0210861BC
:1021A00008464561006940F00100086170BD00000B
:1021B000240000202800002070B5034600224FF0C4
:1021C000E02675690D4E366803FB06F44FF0E026F5
:1021D000B16910E04FF0E026B06988420BD0884228
:1021E00002D20E1A324402E02E1A0E443244014644
:1021F000A24200D300E0EDE700BF70BD2400002044
:1022000030B50446002504E04FF47A70FFF7D4FFA0
:102210006D1CA542F8D330BD00BF054A126802F01C
:102220004002002AF9D0C2B2014B5A607047000048
:10223000001001402AE016480068401C144908605C
:1022400008460068052817D112A0FEF785F800BFE0
:10225000502080F31188BFF34F8FBFF36F8F00BF03
:1022600041F28830FFF7CCFF10A0FEF775F8002090
:1022700080F3118800BF00BF12480068C0431249B4
:10228000C1F884024FF47A7001F0A2F8D3E700009D
:1022900008000020B9D8B1D5D6D0B6CF2E2E2E2E1C
:1022A0002E2E2E2E2E2E2E2E2E0D0A00B4F2BFAA6A
:1022B000D6D0B6CF2E2E2E2E2E2E2E2E2E2E2E2ECB
:1022C0002E0D0A0084824042008040421CB5FEF779
:1022D000ABFB0823022219214FF4B470FFF718FC5E
:1022E000B420FFF747FFFFF7C5FB4FF4E13000F0E4
:1022F00095FE42F2273142F20F70FFF7A9FC42F23D
:10230000273142F20F70FFF7C1FC0748012100237B
:102310000A02CDE9001005A1074801F09FFE01F077
:10232000F3F900201CBD00000000002073746172EE
:10233000745F7461736B0000D52F00082DE9F041C4
:1023400005460E461C4807681C480068001D00F042
:1023500081FE50B91948006890F82C10012088407F
:1023600017490968814316480160681C38B936B1BD
:1023700012480168091D134800F0AAFE1AE07C19F2
:102380000E4800684460BC4207D20C480168091D31
:102390000D48006800F082FE0CE008480168091D45
:1023A0000A48006800F07AFE09480068844201D2B9
:1023B00007480460BDE8F081480000203400002098
:1023C0004C000020380500203C0000203800002090
:1023D0006400002010B5044600F086FE2448006822
:1023E000401C234908602348006840B92148046024
:1023F0000846006801280DD100F0EEF90AE01E48F9
:10240000006838B91B480068C06AE16A884201D890
:102410001848046019480068401C184908600846BC
:102420000068606494F82C10012088401449096801
:10243000084313490860E16A01EB8101114A02EB8C
:102440008100211D00F044FE00F092FE0A48006861
:1024500068B108480068C06AE16A884207D24FF054
:10246000805009490860BFF34F8FBFF36F8F10BDD5
:1024700044000020340000205000002060000020B4
:102480004C0000206802002004ED00E010B500F0D0
:102490002BFE10480068D0B90F4800F0EFFD0F4840
:1024A00000F0ECFD0C480E4908600C480D4908602E
:1024B00000221021052001F0A1FA06490860084613
:1024C000006820B108A10348006800F045FF00F053
:1024D0004FFE10BD780000204C0500206005002054
:1024E0007000002074000020546D72510000000044
:1024F00070B523E001F05EF91348006808B90120C7
:1025000000E00020054601F065FFBDB900F0ECFDDC
:102510000D48C068C468201D00F09CFD0B48006891
:10252000401E0A4908600A480068401E08490860C1
:1025300000F01EFE204600F060F800BF044800686E
:102540000028D7D170BD00002405002044000020E1
:102550004000002070B504460D46206C70B1216C1F
:10256000E0680844E0606168E068884201D3206860
:10257000E0602846226CE168FDF794FF70BD2DE90C
:10258000F04104460F4615464FF00008A66B206C3C
:1025900040B9206860BB606801F056FE80460020AC
:1025A000606025E07DB93946226CA068FDF77AFFAE
:1025B000216CA0680844A060D4E90110884217D3B8
:1025C0002068A06014E03946226CE068FDF76AFFDD
:1025D000216CE068401AE0602168E068884203D21C
:1025E000216C6068401AE060022D01D106B1761EB0
:1025F000701CA0634046BDE8F08110B50446206B16
:1026000000F0EEFD204600F0EBFD10BD0146084A4B
:10261000126812680AB9012200E000220A600A6802
:1026200022B9034A1268D268106800E0002070479F
:102630007000002030B54FF43843174800F007040D
:102640002CB1C01D20F00700134C041B1B1B0246BD
:10265000124C22600024114D6C60D018083820F014
:1026600007000F4C206000240D4D2D686C600C4D50
:102670002D682C601146441A4C60094C24680C608B
:10268000084D4C682C60084D4C682C604FF000449D
:10269000064D2C6030BD0000740500209000002025
:1026A00098000020A00000209C000020A400002032
:1026B00000BFFFF71DFF064800680128F9D94FF059
:1026C000805004490860BFF34F8FBFF36F8FF0E76E
:1026D0006802002004ED00E02DE9F04106460D46B9
:1026E00017469846069C0DB9246000E02760E66313
:1026F00025640121204601F09FFA84F850800020D3
:10270000A064BDE8F08100002DE9F05F82460F462D
:1027100090469B460A9E0C9C4FEA8801A522206B9E
:10272000FDF705FFA8F10100216B01EB800929F0FD
:10273000070909F0070008B9012000E0002028B9C6
:1027400040F22B321BA120A0FDF706FE002507E07A
:10275000795D04F134004155785D00B902E06D1CEB
:10276000102DF5D300BF002143200155202E00D3AA
:102770001F26E662E66400202065201D00F08BFC29
:1027800004F1180000F087FC2461C6F12000A0616C
:1027900064620020606584F858005A4651464846F5
:1027A00000F002FC20600B9808B10B980460BDE8B3
:1027B000F09F00002E2E5C4672656552544F535CAC
:1027C0007461736B732E63004572726F723A257376
:1027D0002C25640D0A00000010B5002407E004EB6E
:1027E00084010F4A02EB810000F048FC641C202C9D
:1027F000F5D30C4800F042FC0B4800F03FFC0B48BE
:1028000000F03CFC0A4800F039FC0A4800F036FCB5
:1028100004480949086004480849086010BD0000E0
:1028200068020020E8040020FC04002010050020BD
:102830002405002038050020380000203C0000203E
:1028400010B50146164800E0006803688B42FBD3D0
:102850000246436813448B4204D143684C682344C6
:10286000436001460A464B6813440468A34211D1F1
:102870000C4C03682468A34208D04B680468646861
:1028800023444B6003681B680B6005E0054B1B6825
:102890000B6001E003680B60884200D0016010BD4E
:1028A00090000020980000202DE9F04104460D46DC
:1028B00016461F464FF0000865602461B5420CD8EB
:1028C000F01BA169884202D34FF0010811E0211DDD
:1028D0000948006800F0E2FB0BE0BE4204D2BD42B2
:1028E00002D34FF0010804E0211D0448006800F005
:1028F000D5FB4046BDE8F081740000207000002048
:1029000070B5054600F0F0FBA86B08B9012400E0A3
:10291000002400F02DFC204670BD70B5054600F087
:10292000E3FBA86BE96B884201D1012400E000249D
:1029300000F01EFC204670BD2DE9F3410D460098C5
:10294000846C00272CB940F6CE121AA11EA0FDF708
:1029500003FDA06BE16B884201D2012000E0002062
:1029600028B940F6CF1213A117A0FDF7F5FCA06B14
:10297000E16B88421BD294F945602A46694620469D
:10298000FFF7FDFD0746701C60B9606A08B90120B9
:1029900000E0002050B904F1240001F0C1FC28B18E
:1029A000012703E0701C40B284F8450000BF3846A0
:1029B000BDE8FC812E2E5C4672656552544F535C17
:1029C00071756575652E63004572726F723A257375
:1029D0002C25640D0A000000F8B505460F46134883
:1029E0000068C068C468201D00F034FBE06901285D
:1029F00018D1A06941192B463A462046FFF754FFEB
:102A000080B1002003462A4601460090204601F08E
:102A1000ABFD06462EB94FF4027205A10AA0FDF7E0
:102A20009BFC00BF2046616A8847F8BD700000200B
:102A30002E2E5C4672656552544F535C74696D6509
:102A400072732E63000000004572726F723A257334
:102A50002C25640D0A000000F0B587B070E00398E3
:102A600000280CDA04AE2EB940F2E7223AA140A0C9
:102A7000FDF772FCD6E90020B168904700BF0398CB
:102A800000285DDB059C606908B9012000E000209A
:102A900010B9201D00F0DEFA02A800F0C7F80546C4
:102AA00003980A284AD2DFE800F00905072C2E45D2
:102AB00006082D2F00BF00BF00BF00BF0498A26909
:102AC000811803462A462046FFF7EEFEC0B1204695
:102AD000616A8847E069012812D1002000900498BB
:102AE000A169421800231946204601F03DFD074622
:102AF0002FB940F2213218A11DA0FDF72DFC00BF17
:102B00001DE000BF1BE000BF0498A061A06908B1F0
:102B1000012000E0002028B94FF44E720EA114A04D
:102B2000FDF71AFCA06941192B462A462046FFF7FB
:102B3000BBFE04E0204600F053FB00E000BF00BFF6
:102B400000231A4603A90E48006800F091FF0028F0
:102B500085D107B0F0BD00002E2E5C46726565522F
:102B6000544F535C74696D6572732E6300000000EE
:102B70004572726F723A25732C25640D0A000000AD
:102B800078000020F8B505460C4600F013FE6846B4
:102B900000F04CF80646009820BB44B9B54206D870
:102BA00001F018FC31462846FFF716FF1CE03CB147
:102BB0000E480068006808B9012000E000200446C3
:102BC000A91B22460A48006800F0DCFB01F002FC69
:102BD00050B94FF0805007490860BFF34F8FBFF3E3
:102BE0006F8F01E001F0F6FBF8BD000074000020DB
:102BF0007800002004ED00E00A490968096809B975
:102C0000012100E0002121B14FF0FF31064A11609F
:102C100006E004490968C968C868034A4168116048
:102C200070470000380000206400002070B50446A2
:102C300001F054FA054607480068854204D200F0C6
:102C40000BF80120206001E00020206001480560B1
:102C5000284670BD800000202DE9F8432DE0214872
:102C60000068C06805681F480068C068C468201D07
:102C700000F0F0F92046616A8847E06901281CD11C
:102C8000A0694619AE4207D966602461211D154826
:102C9000006800F003FA10E0002003462A460146CF
:102CA0000090204601F060FC07462FB940F29232B6
:102CB0000DA113A0FDF750FB00BF0A480068006893
:102CC00008B9012000E000200028C8D00548D0F84D
:102CD00000800F480068034908600D48C0F8008074
:102CE000BDE8F883700000202E2E5C4672656552A8
:102CF000544F535C74696D6572732E63000000005D
:102D00004572726F723A25732C25640D0A0000001B
:102D1000740000200C480068401C08B9012000E045
:102D2000002028B940F20F1208A113A0FDF714FBF0
:102D300000BF502080F31188BFF34F8FBFF36F8F18
:102D400000BF00BFFEE70000840000202E2E5C467E
:102D500072656552544F535C706F727461626C653A
:102D60005C525644535C41524D5F434D34465C7057
:102D70006F72742E630000004572726F723A257391
:102D80002C25640D0A00000008B500BF6846FFF757
:102D90003DFC044620460099FFF7F4FEFFF75CFE79
:102DA000F4E770B5044600F09FF994F945501AE035
:102DB000A06C38B100212046FFF7BEFD88B100F0BD
:102DC000C7FB0EE0606A08B9012000E0002038B9B6
:102DD00004F1240001F0A4FA18B100F0B9FB00E0FE
:102DE00003E0681E45B2002DE2DC00BFFF2084F83E
:102DF000450000F0BDF900F077F994F9445010E077
:102E0000206908B9012000E0002048B904F1100051
:102E100001F086FA08B100F09BFB681E45B200E0A5
:102E200001E0002DECDC00BFFF2084F8440000F03E
:102E30009FF970BD2DE9F04104464FF0000800F005
:102E4000B9FC3E48006808B9FFF7F4FB3C4800684D
:102E5000204000285FD1A4B1083404F0070080B1FD
:102E600004F00700C0F10800044404F0070008B9AA
:102E7000012000E0002020B9BF2232A13BA0FDF7D5
:102E80006BFA002C47D03D480068844243D83C4E42
:102E90003046056801E02E462D686868A04202D2DF
:102EA00028680028F7D125480068854233D030686B
:102EB00000F10808286830606868001B102813D9E2
:102EC0002F1907F0070008B9012000E0002020B901
:102ED000EC221CA125A0FDF73FFA6868001B786072
:102EE0006C603846FFF7ACFC244968680968081A2A
:102EF000224908600846006822490968884203D2CE
:102F00001E4800681F4908600D4968680968084341
:102F100068600020286001F05DFA08F0070008B939
:102F2000012000E0002028B94FF4967205A10FA0FF
:102F3000FDF712FA4046BDE8F0810000980000203D
:102F4000A40000202E2E5C4672656552544F535CDF
:102F5000706F727461626C655C4D656D4D616E671A
:102F60005C686561705F342E630000004572726FAB
:102F7000723A25732C25640D0A0000009C00002085
:102F800090000020A00000200648006830B10549EC
:102F9000096801F15000096D491C01600148006891
:102FA0007047000034000020001F4FF08073036062
:102FB000001F21F001030360001F054B036014385C
:102FC0000260001F6FF002030360203870470000AA
:102FD000152D00081CB5044600F086F808480221AB
:102FE0000023CA01CDE9001006A10A4801F036F815
:102FF0000948006800F026FA00F0BAF81CBD00008D
:1030000004000020696E746572727570745F74617B
:10301000736B0000352200080000002010B5044644
:1030200009480A4908600846446000218160C1607F
:10303000016181610C214161FEF70AFC0122044912
:103040000248FEF78BFC10BD00100140700100200B
:103050003200002001460A69D1E901309860D1E9C7
:10306000010358605068884201D188685060002090
:1030700008611068401E10601068704700F1080178
:1030800041604FF0FF31816000F10801C1600161D2
:1030900000210160704700210161704710B50246B0
:1030A0000B685C1C0CB9106907E002F1080000E035
:1030B0004068446824689C42FAD944684C604C6873
:1030C000A160886041600A611468641C146010BDCE
:1030D00042684A6093688B609368596091600861A8
:1030E00003685B1C0360704710B500BF502080F37D
:1030F0001188BFF34F8FBFF36F8F00BF0B4800687D
:10310000401C0A4908600846006801280DD108489B
:103110000068C0B208B9012000E0002028B940F2E0
:10312000B91204A10EA0FDF717F910BD840000200C
:1031300004ED00E02E2E5C4672656552544F535CE0
:10314000706F727461626C655C525644535C41529C
:103150004D5F434D34465C706F72742E6300000007
:103160004572726F723A25732C25640D0A000000B7
:1031700010B50B48006828B94FF4E07209A114A0FB
:10318000FDF7EAF806480068401E05490860084651
:10319000006820B9002080F3118800BF00BF10BD77
:1031A000840000202E2E5C4672656552544F535C9D
:1031B000706F727461626C655C525644535C41522C
:1031C0004D5F434D34465C706F72742E6300000097
:1031D0004572726F723A25732C25640D0A00000047
:1031E00070B506463546002E35D0083D2C461A49A6
:1031F00060680968084008B1012000E0002028B993
:103200004FF4A07215A11FA0FDF7A6F8206808B919
:10321000012000E0002028B940F241120FA119A0BE
:10322000FDF79AF80C4960680968084098B1206871
:1032300088B90949606809688843606000F0BAFA93
:103240001449606809680844124908602046FFF77D
:10325000F7FA01F0BFF870BDA40000202E2E5C46E6
:1032600072656552544F535C706F727461626C6525
:103270005C4D656D4D616E675C686561705F342E95
:10328000630000004572726F723A25732C25640D3D
:103290000A0000009C000020064800684FF47A7184
:1032A000B0FBF1F0401E4FF0E021486107200861BB
:1032B000704700000C00002070B5FDF727F80546A8
:1032C000102D11D305F1E02090F8F043104800785C
:1032D000844201DB012000E0002028B94FF4407255
:1032E0000CA117A0FDF738F81948006800F4E06059
:1032F00018490968884201D8012000E0002028B957
:103300004FF4447203A10EA0FDF726F870BD000033
:10331000880000202E2E5C4672656552544F535C27
:10332000706F727461626C655C525644535C4152BA
:103330004D5F434D34465C706F72742E6300000025
:103340004572726F723A25732C25640D0A000000D5
:103350000CED00E08C000020024600200BE0084B42
:1033600053F8303033B9064B43F8301003EBC00349
:103370005A6002E0401C0828F1D300BF70470000EB
:10338000280200202DE9F04105460E4617462C463E
:10339000FFF7AAFE94F94400401C10B9002084F8FD
:1033A000440094F94500401C10B9002084F8450001
:1033B000FFF7DEFEA06B28B93A46314604F124003F
:1033C00000F0F6F82046FFF7ECFCBDE8F0810000C5
:1033D00070B504460025ACB10F48006808B901205B
:1033E00000E0002028B940F2CF420CA110A0FCF769
:1033F000B3FF00F0DFF900212046FEF79FFF00F049
:10340000E9FF05463DB94FF080500D490860BFF314
:103410004F8FBFF36F8F70BD6C0000202E2E5C4667
:1034200072656552544F535C7461736B732E630005
:103430004572726F723A25732C25640D0A000000E4
:1034400004ED00E070B50546FFF74EFE15B92D48B6
:10345000006800E028460446201DFFF7FBFD78B910
:10346000E06A00EB8000284951F8200040B994F848
:103470002C100120884025490968814323480160B8
:10348000A06A18B104F11800FFF7E4FD20480068B5
:10349000401C1F4908601B480068844209D1211D57
:1034A0001C48FFF715FE1C480068401C1A490860BC
:1034B00009E01A480068401E184908602046FFF7D6
:1034C0009CF8FFF799FBFFF753FE15480068C0B161
:1034D0000C480068844214D11248006808B90120E1
:1034E00000E0002028B940F265420FA113A0FCF7CC
:1034F00033FF4FF0805015490860BFF34F8FBFF383
:103500006F8F70BD34000020680200204C00002046
:10351000600000202405002040000020440000201E
:10352000500000206C0000202E2E5C467265655213
:10353000544F535C7461736B732E63004572726FEA
:10354000723A25732C25640D0A00000004ED00E09A
:1035500001200149086070475800002070B50446FA
:103560000D462CB940F6063207A10CA0FCF7F4FE7C
:103570000E48016818312046FFF790FD01212846CA
:10358000FEF7DCFE70BD00002E2E5C4672656552B3
:10359000544F535C7461736B732E63004572726F8A
:1035A000723A25732C25640D0A00000034000020B7
:1035B00070B505460E4614462DB940F6313209A1C4
:1035C0000DA0FCF7C9FE1048016818312846FFF726
:1035D0007FFD0CB14FF0FF3621463046FEF7AEFEC0
:1035E00070BD00002E2E5C4672656552544F535CD0
:1035F0007461736B732E63004572726F723A257338
:103600002C25640D0A0000003400002070B505462A
:103610002C46002D4BD02649E06A0968C96A8842C9
:1036200045D2A06900F0004028B921480068C06A6E
:10363000C0F12000A061E16A01EB81011D4A02EBAB
:1036400081016069884201D1012000E0002050B36F
:10365000201DFFF7FFFC78B9E06A00EB80001549F8
:1036600051F8200040B994F82C10012088401249EC
:1036700009688143104801600D480068C06AE06233
:1036800094F82C10012088400B49096808430A4926
:103690000860E16A01EB8101064A02EB8100211D0D
:1036A000FFF716FD03E002480068C06AE06270BDE3
:1036B00034000020680200204C00002010B50446B1
:1036C0002CB940F6C13205A109A0FCF745FE0C4813
:1036D000006820600B480068606010BD2E2E5C46BC
:1036E00072656552544F535C7461736B732E630043
:1036F0004572726F723A25732C25640D0A00000022
:103700005C000020480000201CB51A4800210B4630
:103710008222CDE9001018A1194800F09FFC044650
:10372000012C02D100F0E6FE0446012C15D100BFA9
:10373000502080F31188BFF34F8FBFF36F8F00BF0E
:103740004FF0FF300F49086001200F49086000204A
:103750000E49086000F08AF80BE0601C08B10120F7
:1037600000E0002028B940F2847209A10DA0FCF706
:10377000F3FD1CBD6800002049444C4500000000DA
:10378000B1260008640000205000002048000020FE
:103790002E2E5C4672656552544F535C7461736B98
:1037A000732E63004572726F723A25732C25640D77
:1037B0000A00000002480068401C01490860704788
:1037C0006C00002010B51B48006818B101201A4990
:1037D00008602DE000201849086018480068B0FA19
:1037E00080F0C0F11F0404EB8400154951F820005B
:1037F00008B1012000E0002028B940F6F62211A10E
:1038000015A0FCF7A9FD04EB84010D4A02EB810031
:1038100041684968416000F1080142688A4202D16A
:103820004168496841604168C9680F4A116000BF3A
:1038300010BD00006C000020580000204C0000204B
:10384000680200202E2E5C4672656552544F535C10
:103850007461736B732E63004572726F723A2573D5
:103860002C25640D0A000000340000201CB54048DF
:1038700000684049884201D0012000E0002028B9BA
:1038800040F259123CA147A0FCF766FD3848006899
:103890003849491E884201D0012000E0002028B9A3
:1038A0004FF4AD7234A13FA0FCF756FD414C2046C9
:1038B00000780190FF2021460870084600780090AB
:1038C0009DF8000000F0F0009DF80010884201D142
:1038D000012000E0002028B940F2731226A131A097
:1038E000FCF73AFD9DF8000000F0500032490870E6
:1038F00007203249086009E030480068401E2F491F
:1039000008609DF800004006000E00909DF8000041
:1039100000F080008028EFD0284800680002274986
:1039200008600846008800F4E060086021490198BA
:1039300008700F482030006840F470000C492031B6
:1039400008600846006840F070400860FFF7A4FC7B
:1039500000201B490860FCF7A1FC1A48006840F0F1
:10396000404018490860FCF789FC00201CBD00009D
:1039700000ED00E071C20F412E2E5C46726565526B
:10398000544F535C706F727461626C655C52564444
:10399000535C41524D5F434D34465C706F72742EE0
:1039A000630000004572726F723A25732C25640D16
:1039B0000A00000000E400E0880000208C000020E5
:1039C0008400002034EF00E010B500BF502080F3E9
:1039D0001188BFF34F8FBFF36F8F00BF00F084FBE0
:1039E00018B14FF080500449086000BF002080F3F8
:1039F000118800BF10BD000004ED00E02DE9F84380
:103A000005460E4690460DB1012000E0002028B981
:103A10004FF4C4720DA112A0FCF79EFC0EB9002752
:103A200001E005FB06F707F15400FFF703FA04462F
:103A300044B104F1540943464A46314628460094AD
:103A4000FEF74AFE2046BDE8F88300002E2E5C46B5
:103A500072656552544F535C71756575652E6300D0
:103A60004572726F723A25732C25640D0A000000AE
:103A70002DE9FF4782B005460E461F464FF0000A6B
:103A80002C462CB940F2DC4261A166A0FCF764FC34
:103A90000EB9206C08B9012000E0002028B940F2DE
:103AA000DD425BA15FA0FCF757FC00F007FB08B903
:103AB000049808B9012000E0002028B94FF49C6266
:103AC00053A158A0FCF748FC00BFFFF70DFBD4F84A
:103AD0003890B9F1000F3DD0D4F80C803146204623
:103AE000FEF738FDDFB9A9F10100A063206810B925
:103AF000FFF74AFA6060206908B9012000E0002061
:103B000010BB04F1100000F00BFCE8B14FF0805046
:103B100048490860BFF34F8FBFF36F8F14E0C4F8BC
:103B20000C80606A08B9012000E0002060B904F14F
:103B3000240000F0F5FB38B14FF080503D4908609B
:103B4000BFF34F8FBFF36F8FFFF712FB012006B05B
:103B5000BDE8F087049818B9FFF70AFB0020F6E7E4
:103B6000BAF1000F04D16846FFF7A8FD4FF0010A33
:103B7000FFF7FEFAFFF71EFEFFF7B6FA94F94400CE
:103B8000401C10B9002084F8440094F94500401C02
:103B900010B9002084F84500FFF7EAFA04A9684646
:103BA00000F00CFA40BB2046FEF7AAFEF0B12068F8
:103BB00030B9FFF799FA6068FFF728FDFFF7D8FAE8
:103BC00004F124000499FFF7C9FC2046FFF7E9F847
:103BD00000F000FC00287FF478AF4FF080501549CA
:103BE0000860BFF34F8FBFF36F8F6EE72046FFF77C
:103BF000D8F800F0EFFB68E72046FFF7D2F800F0B6
:103C0000E9FB2046FEF77CFE0028EED000209EE770
:103C10002E2E5C4672656552544F535C7175657506
:103C2000652E63004572726F723A25732C25640D00
:103C30000A00000004ED00E070B505460E462C4673
:103C40002CB940F21B121EA122A0FCF785FBFFF746
:103C50004BFAD4E90F12206801FB020060600020DB
:103C6000A0632068A060E06B401E226C216800FB0E
:103C70000210E060FF2084F8440084F845009EB9FB
:103C8000206908B9012000E00020A8B904F1100063
:103C900000F046FB80B14FF0805012490860BFF33E
:103CA0004F8FBFF36F8F07E004F11000FFF7E6F9C5
:103CB00004F12400FFF7E2F9FFF75AFA012070BD82
:103CC0002E2E5C4672656552544F535C7175657556
:103CD000652E63004572726F723A25732C25640D50
:103CE0000A00000004ED00E02DE9FF4383B0064622
:103CF00088461D464FF0000934462CB940F2D922BF
:103D000060A165A0FCF728FBB8F1000F01D1206C81
:103D100008B9012000E0002028B940F2DA2259A1B8
:103D20005DA0FCF719FB022D02D1E06B012801D147
:103D3000012000E0002028B940F2DB2251A156A06A
:103D4000FCF70AFB00F0BAF908B9059808B9012098
:103D500000E0002028B940F2DE224AA14EA0FCF784
:103D6000FBFA00BFFFF7C0F9A06BE16B884201D3FB
:103D7000022D38D12A4641462046FEF700FC074670
:103D8000A06C68B129462046FEF7D6FD28B34FF057
:103D9000805045490860BFF34F8FBFF36F8F1CE021
:103DA000606A08B9012000E0002068B904F124002D
:103DB00000F0B6FA88B14FF080503B490860BFF37D
:103DC0004F8FBFF36F8F08E03FB14FF080503649FF
:103DD0000860BFF34F8FBFF36F8FFFF7C9F9012062
:103DE00007B0BDE8F083059818B9FFF7C1F90020C6
:103DF000F6E7B9F1000F04D101A8FFF75FFC4FF01F
:103E00000109FFF7B5F9FFF7D5FCFFF76DF994F954
:103E10004400401C10B9002084F8440094F9450087
:103E2000401C10B9002084F84500FFF7A1F905A94E
:103E300001A800F0C3F8F0B92046FEF76EFDA0B16E
:103E400004F110000599FFF789FB2046FEF7A9FF52
:103E500000F0C0FA002885D14FF080501249086068
:103E6000BFF34F8FBFF36F8F7CE72046FEF799FFBC
:103E700000F0B0FA76E72046FEF793FF00F0AAFACA
:103E80000020ADE72E2E5C4672656552544F535CA0
:103E900071756575652E63004572726F723A257390
:103EA0002C25640D0A00000004ED00E02DE9F05F10
:103EB00080468A4615461E4644462CB940F29F323B
:103EC00035A13AA0FCF748FABAF1000F01D1206CF5
:103ED00008B9012000E0002028B94FF468722EA133
:103EE00032A0FCF739FA022E02D1E06B012801D191
:103EF000012000E0002028B940F2A13226A12BA029
:103F0000FCF72AFAFFF7D8F900BF5021EFF3118030
:103F100081F31188BFF34F8FBFF36F8F00BF074648
:103F2000A06BE16B884201D3022E2BD194F945B0EE
:103F3000324651462046FEF722FB0BF10100C8B97C
:103F4000A06C40B131462046FEF7F6FCB8B1B5B1E1
:103F50000120286013E0606A08B9012000E0002019
:103F600068B904F1240000F0DBF940B13DB1012053
:103F7000286004E00BF1010040B284F845004FF0E6
:103F8000010901E04FF0000900BF87F3118800BF6D
:103F90004846BDE8F09F00002E2E5C4672656552D3
:103FA000544F535C71756575652E63004572726F71
:103FB000723A25732C25640D0A0000002DE9F041AA
:103FC00004460D462CB940F6CB3219A11DA0FCF7D2
:103FD000C3F92DB940F6CC3215A11AA0FCF7BCF9F3
:103FE000FFF782F81B4807682868401C08B90026BC
:103FF00019E0194920680968884204D06068B8420D
:1040000001D801260FE06068381A2968884209D271
:1040100028686168791A401A28602046FFF74EFB2D
:10402000002600E00126FFF7A3F83046BDE8F08146
:104030002E2E5C4672656552544F535C7461736BEF
:10404000732E63004572726F723A25732C25640DCE
:104050000A000000480000205C0000202DE9FF4F0E
:1040600085B0804689461746DDE912ABB800FEF7F9
:10407000E1FE064656B15C20FEF7DCFE04460CB1BC
:10408000266304E03046FFF7ABF800E000247CB183
:104090000020CDE900ABCDE902403A464946404612
:1040A000089BFEF731FB2046FEF794F9012501E05D
:1040B0004FF0FF35284609B0BDE8F08F0549096883
:1040C00009B9012005E00449096809B9022000E0A6
:1040D00000207047500000206C0000200149086853
:1040E00070470000480000202DE9F0414FF0000823
:1040F00041480068002872D140480068451C3F488C
:104100000560EDB93E480068006808B9012000E08C
:10411000002028B940F6D9123AA13FA0FCF71CF9BB
:104120003748076840480068354908603E480760DE
:104130003E480068401C3D490860FEF75DFD00BF39
:104140003B48006885423CD300BF2D4800680068AA
:1041500008B9012000E0002020B14FF0FF303449C1
:1041600008602DE026480068C068C4686668B542EB
:1041700002D22F48066023E0201DFEF76BFFA06AE5
:1041800018B104F11800FEF765FF94F82C10012017
:10419000884028490968084326490860E16A01EB1C
:1041A0008101254A02EB8100211DFEF791FF234981
:1041B000E06A0968C96A8842C7D34FF00108C4E7BA
:1041C00000BF1E480068C06A00EB80001A4951F821
:1041D0002000012801D94FF0010805E0FFE7184849
:1041E0000068401C164908601648006808B14FF086
:1041F00001084046BDE8F0816C0000204800002026
:10420000380000202E2E5C4672656552544F535C78
:104210007461736B732E63004572726F723A25730B
:104220002C25640D0A0000003C0000205C000020EA
:10423000640000204C0000206802002034000020B0
:10424000540000205800002070B505462C4600267A
:10425000002D4BD026480068844201D1012000E0A7
:10426000002028B940F6C76222A127A0FCF774F805
:10427000206D28B940F6C9621EA123A0FCF76CF896
:10428000206D401E2065E16CE06A88422ED0206DD2
:1042900060BB201DFEF7DEFE78B9E06A00EB80000F
:1042A0001D4951F8200040B994F82C100120884095
:1042B0001A490968814319480160E06CE062E06ACC
:1042C000C0F12000A06194F82C100120884013490F
:1042D0000968084311490860E16A01EB81010E4A4F
:1042E00002EB8100211DFEF7F3FE0126304670BD72
:1042F000340000202E2E5C4672656552544F535C8C
:104300007461736B732E63004572726F723A25731A
:104310002C25640D0A000000680200204C000020DB
:1043200070B50646F068C4682CB940F661321AA12F
:104330001EA0FCF711F804F11800FEF78BFE1F48D1
:104340000068A8B9201DFEF785FE94F82C10012006
:1043500088401B490968084319490860E16A01EB74
:104360008101184A02EB8100211DFEF7B1FE04E035
:1043700004F118011448FEF7ABFE1449E06A09681D
:10438000C96A884204D9012501201149086000E06A
:104390000025284670BD00002E2E5C4672656552D1
:1043A000544F535C7461736B732E63004572726F6C
:1043B000723A25732C25640D0A0000006C00002061
:1043C0004C0000206802002010050020340000206E
:1043D0005800002070B5002400263448006828B931
:1043E0004FF4FD6232A137A0FBF7B6FFFEF77CFE6B
:1043F0002E480068401E2D490860084600680028C5
:104400004FD13448006800284BD024E03248C068BF
:10441000C46804F11800FEF71DFE201DFEF71AFE09
:1044200094F82C10012088402C49096808432B4936
:104430000860E16A01EB8101294A02EB8100211D3C
:10444000FEF746FE2749E06A0968C96A884202D336
:104450000120254908602048006808B9012000E0D3
:1044600000200028D2D00CB1FEF7C6FB1F4805681B
:1044700065B100BFFFF738FE10B101201A4908608E
:104480006D1E002DF6D100201849086016480068FE
:1044900038B10126300716490860BFF34F8FBFF3CC
:1044A0006F8FFEF765FE304670BD00006C00002087
:1044B0002E2E5C4672656552544F535C7461736B6B
:1044C000732E63004572726F723A25732C25640D4A
:1044D0000A00000044000020100500204C000020CD
:1044E0006802002034000020580000205400002002
:1044F00004ED00E01CB50024FDF7C8FF0B48006880
:1045000058B10B481F2100234FF48272CDE90010EF
:1045100008A10A48FFF7A2FD04462CB940F2331265
:1045200007A10DA0FBF718FF20461CBD7800002056
:104530007C000020546D722053766300892D0008A2
:104540002E2E5C4672656552544F535C74696D65DE
:1045500072732E63000000004572726F723A257309
:104560002C25640D0A0000002DE9FF4704460D4686
:1045700016461F46DDF830804FF000092CB94FF485
:10458000D37217A11CA0FBF7E7FE1F48006810B309
:10459000009501960294062D15DAFFF78FFD02288B
:1045A00008D100234246694617480068FFF79CFB84
:1045B000814610E000231A46694613480068FFF759
:1045C00093FB814607E000233A4669460E4800689F
:1045D000FFF76CFC8146484604B0BDE8F087000058
:1045E0002E2E5C4672656552544F535C74696D653E
:1045F00072732E63000000004572726F723A257369
:104600002C25640D0A000000780000204FF0407057
:10461000E1EE100A704700000000010203040102ED
:1046200003040607080900004846000800000020AF
:10463000A8000000E8010008F0460008A8000020DB
:1046400030C3000004020008000000000000000069
:10465000000000000024F400000000000000000042
:104660000102030406070809000000000000000022
:10467000000000000000000000000000000000003A
:10468000000000000000000000000000000000002A
:10469000000000000000000000000000000000001A
:1046A000000000000000000000000000000000000A
:1046B00000000000000000000000000000000000FA
:1046C000000000000000000000000000AAAAAAAA42
:1046D00000000000000000000000000000000000DA
:1046E00000000000000000000000000000000000CA
:04000005080001AD41
:00000001FF
